{
  "contractName": "NbaBetting",
  "abi": [
    {
      "inputs": [
        {
          "internalType": "address",
          "name": "_nbaTokenAddress",
          "type": "address"
        }
      ],
      "stateMutability": "nonpayable",
      "type": "constructor"
    },
    {
      "anonymous": false,
      "inputs": [
        {
          "indexed": true,
          "internalType": "bytes32",
          "name": "id",
          "type": "bytes32"
        }
      ],
      "name": "ChainlinkCancelled",
      "type": "event"
    },
    {
      "anonymous": false,
      "inputs": [
        {
          "indexed": true,
          "internalType": "bytes32",
          "name": "id",
          "type": "bytes32"
        }
      ],
      "name": "ChainlinkFulfilled",
      "type": "event"
    },
    {
      "anonymous": false,
      "inputs": [
        {
          "indexed": true,
          "internalType": "bytes32",
          "name": "id",
          "type": "bytes32"
        }
      ],
      "name": "ChainlinkRequested",
      "type": "event"
    },
    {
      "inputs": [
        {
          "internalType": "address",
          "name": "",
          "type": "address"
        },
        {
          "internalType": "uint256",
          "name": "",
          "type": "uint256"
        }
      ],
      "name": "betAmounts",
      "outputs": [
        {
          "internalType": "uint256",
          "name": "",
          "type": "uint256"
        }
      ],
      "stateMutability": "view",
      "type": "function"
    },
    {
      "inputs": [
        {
          "internalType": "uint256",
          "name": "",
          "type": "uint256"
        }
      ],
      "name": "betters",
      "outputs": [
        {
          "internalType": "address",
          "name": "",
          "type": "address"
        }
      ],
      "stateMutability": "view",
      "type": "function"
    },
    {
      "inputs": [],
      "name": "date",
      "outputs": [
        {
          "internalType": "string",
          "name": "",
          "type": "string"
        }
      ],
      "stateMutability": "view",
      "type": "function"
    },
    {
      "inputs": [
        {
          "internalType": "uint256",
          "name": "",
          "type": "uint256"
        }
      ],
      "name": "gameDate",
      "outputs": [
        {
          "internalType": "string",
          "name": "",
          "type": "string"
        }
      ],
      "stateMutability": "view",
      "type": "function"
    },
    {
      "inputs": [
        {
          "internalType": "uint256",
          "name": "",
          "type": "uint256"
        }
      ],
      "name": "gameIds",
      "outputs": [
        {
          "internalType": "uint256",
          "name": "",
          "type": "uint256"
        }
      ],
      "stateMutability": "view",
      "type": "function"
    },
    {
      "inputs": [
        {
          "internalType": "uint256",
          "name": "",
          "type": "uint256"
        }
      ],
      "name": "gameTime",
      "outputs": [
        {
          "internalType": "string",
          "name": "",
          "type": "string"
        }
      ],
      "stateMutability": "view",
      "type": "function"
    },
    {
      "inputs": [
        {
          "internalType": "address",
          "name": "",
          "type": "address"
        },
        {
          "internalType": "uint256",
          "name": "",
          "type": "uint256"
        }
      ],
      "name": "gamesBetted",
      "outputs": [
        {
          "internalType": "uint8",
          "name": "",
          "type": "uint8"
        }
      ],
      "stateMutability": "view",
      "type": "function"
    },
    {
      "inputs": [
        {
          "internalType": "address",
          "name": "",
          "type": "address"
        }
      ],
      "name": "hasBetted",
      "outputs": [
        {
          "internalType": "bool",
          "name": "",
          "type": "bool"
        }
      ],
      "stateMutability": "view",
      "type": "function"
    },
    {
      "inputs": [
        {
          "internalType": "uint256",
          "name": "",
          "type": "uint256"
        }
      ],
      "name": "homeTeam",
      "outputs": [
        {
          "internalType": "string",
          "name": "",
          "type": "string"
        }
      ],
      "stateMutability": "view",
      "type": "function"
    },
    {
      "inputs": [
        {
          "internalType": "uint256",
          "name": "",
          "type": "uint256"
        }
      ],
      "name": "isStored",
      "outputs": [
        {
          "internalType": "bool",
          "name": "",
          "type": "bool"
        }
      ],
      "stateMutability": "view",
      "type": "function"
    },
    {
      "inputs": [],
      "name": "nbaToken",
      "outputs": [
        {
          "internalType": "contract IERC20",
          "name": "",
          "type": "address"
        }
      ],
      "stateMutability": "view",
      "type": "function"
    },
    {
      "inputs": [
        {
          "internalType": "address",
          "name": "",
          "type": "address"
        }
      ],
      "name": "nbaTokenBalance",
      "outputs": [
        {
          "internalType": "uint256",
          "name": "",
          "type": "uint256"
        }
      ],
      "stateMutability": "view",
      "type": "function"
    },
    {
      "inputs": [],
      "name": "numGames",
      "outputs": [
        {
          "internalType": "uint256",
          "name": "",
          "type": "uint256"
        }
      ],
      "stateMutability": "view",
      "type": "function"
    },
    {
      "inputs": [],
      "name": "owner",
      "outputs": [
        {
          "internalType": "address",
          "name": "",
          "type": "address"
        }
      ],
      "stateMutability": "view",
      "type": "function"
    },
    {
      "inputs": [
        {
          "internalType": "address",
          "name": "",
          "type": "address"
        },
        {
          "internalType": "uint256",
          "name": "",
          "type": "uint256"
        }
      ],
      "name": "teamsBetted",
      "outputs": [
        {
          "internalType": "uint8",
          "name": "",
          "type": "uint8"
        }
      ],
      "stateMutability": "view",
      "type": "function"
    },
    {
      "inputs": [],
      "name": "tempGameDate",
      "outputs": [
        {
          "internalType": "string",
          "name": "",
          "type": "string"
        }
      ],
      "stateMutability": "view",
      "type": "function"
    },
    {
      "inputs": [],
      "name": "tempGameId",
      "outputs": [
        {
          "internalType": "uint256",
          "name": "",
          "type": "uint256"
        }
      ],
      "stateMutability": "view",
      "type": "function"
    },
    {
      "inputs": [],
      "name": "tempGameTime",
      "outputs": [
        {
          "internalType": "string",
          "name": "",
          "type": "string"
        }
      ],
      "stateMutability": "view",
      "type": "function"
    },
    {
      "inputs": [],
      "name": "tempHomeScore",
      "outputs": [
        {
          "internalType": "uint256",
          "name": "",
          "type": "uint256"
        }
      ],
      "stateMutability": "view",
      "type": "function"
    },
    {
      "inputs": [],
      "name": "tempHomeTeam",
      "outputs": [
        {
          "internalType": "string",
          "name": "",
          "type": "string"
        }
      ],
      "stateMutability": "view",
      "type": "function"
    },
    {
      "inputs": [],
      "name": "tempStatus",
      "outputs": [
        {
          "internalType": "string",
          "name": "",
          "type": "string"
        }
      ],
      "stateMutability": "view",
      "type": "function"
    },
    {
      "inputs": [],
      "name": "tempVisitorScore",
      "outputs": [
        {
          "internalType": "uint256",
          "name": "",
          "type": "uint256"
        }
      ],
      "stateMutability": "view",
      "type": "function"
    },
    {
      "inputs": [],
      "name": "tempVisitorTeam",
      "outputs": [
        {
          "internalType": "string",
          "name": "",
          "type": "string"
        }
      ],
      "stateMutability": "view",
      "type": "function"
    },
    {
      "inputs": [
        {
          "internalType": "uint256",
          "name": "",
          "type": "uint256"
        }
      ],
      "name": "visitorTeam",
      "outputs": [
        {
          "internalType": "string",
          "name": "",
          "type": "string"
        }
      ],
      "stateMutability": "view",
      "type": "function"
    },
    {
      "inputs": [],
      "name": "getGameIds",
      "outputs": [],
      "stateMutability": "nonpayable",
      "type": "function"
    },
    {
      "inputs": [
        {
          "internalType": "bytes32",
          "name": "_requestId",
          "type": "bytes32"
        },
        {
          "internalType": "bytes32",
          "name": "_datetime",
          "type": "bytes32"
        }
      ],
      "name": "processTimeData",
      "outputs": [],
      "stateMutability": "nonpayable",
      "type": "function"
    },
    {
      "inputs": [
        {
          "internalType": "bytes32",
          "name": "_requestId",
          "type": "bytes32"
        },
        {
          "internalType": "uint256",
          "name": "_totalCount",
          "type": "uint256"
        }
      ],
      "name": "gamesToGet",
      "outputs": [],
      "stateMutability": "nonpayable",
      "type": "function"
    },
    {
      "inputs": [
        {
          "internalType": "bytes32",
          "name": "_requestId",
          "type": "bytes32"
        },
        {
          "internalType": "uint256",
          "name": "_id",
          "type": "uint256"
        }
      ],
      "name": "storeGameId",
      "outputs": [],
      "stateMutability": "nonpayable",
      "type": "function"
    },
    {
      "inputs": [],
      "name": "getFutureGamesData",
      "outputs": [],
      "stateMutability": "nonpayable",
      "type": "function"
    },
    {
      "inputs": [
        {
          "internalType": "bytes32",
          "name": "_requestId",
          "type": "bytes32"
        },
        {
          "internalType": "bytes32",
          "name": "_homeTeam",
          "type": "bytes32"
        }
      ],
      "name": "storeHomeData",
      "outputs": [],
      "stateMutability": "nonpayable",
      "type": "function"
    },
    {
      "inputs": [
        {
          "internalType": "bytes32",
          "name": "_requestId",
          "type": "bytes32"
        },
        {
          "internalType": "bytes32",
          "name": "_visitorTeam",
          "type": "bytes32"
        }
      ],
      "name": "storeVisitorData",
      "outputs": [],
      "stateMutability": "nonpayable",
      "type": "function"
    },
    {
      "inputs": [
        {
          "internalType": "bytes32",
          "name": "_requestId",
          "type": "bytes32"
        },
        {
          "internalType": "bytes32",
          "name": "_date",
          "type": "bytes32"
        }
      ],
      "name": "storeDateData",
      "outputs": [],
      "stateMutability": "nonpayable",
      "type": "function"
    },
    {
      "inputs": [
        {
          "internalType": "bytes32",
          "name": "_requestId",
          "type": "bytes32"
        },
        {
          "internalType": "bytes32",
          "name": "_time",
          "type": "bytes32"
        }
      ],
      "name": "storeTimeData",
      "outputs": [],
      "stateMutability": "nonpayable",
      "type": "function"
    },
    {
      "inputs": [
        {
          "internalType": "uint256",
          "name": "_amount",
          "type": "uint256"
        }
      ],
      "name": "depositOrWithdraw",
      "outputs": [],
      "stateMutability": "nonpayable",
      "type": "function"
    },
    {
      "inputs": [
        {
          "internalType": "uint8",
          "name": "_game",
          "type": "uint8"
        },
        {
          "internalType": "uint8",
          "name": "_team",
          "type": "uint8"
        },
        {
          "internalType": "uint256",
          "name": "_amount",
          "type": "uint256"
        }
      ],
      "name": "placeBet",
      "outputs": [],
      "stateMutability": "nonpayable",
      "type": "function"
    },
    {
      "inputs": [],
      "name": "rewardBets",
      "outputs": [],
      "stateMutability": "nonpayable",
      "type": "function"
    },
    {
      "inputs": [
        {
          "internalType": "bytes32",
          "name": "_requestId",
          "type": "bytes32"
        },
        {
          "internalType": "bytes32",
          "name": "_status",
          "type": "bytes32"
        }
      ],
      "name": "checkGameStatus",
      "outputs": [],
      "stateMutability": "nonpayable",
      "type": "function"
    },
    {
      "inputs": [
        {
          "internalType": "bytes32",
          "name": "_requestId",
          "type": "bytes32"
        },
        {
          "internalType": "uint256",
          "name": "_homeScore",
          "type": "uint256"
        }
      ],
      "name": "homeScore",
      "outputs": [],
      "stateMutability": "nonpayable",
      "type": "function"
    },
    {
      "inputs": [
        {
          "internalType": "bytes32",
          "name": "_requestId",
          "type": "bytes32"
        },
        {
          "internalType": "uint256",
          "name": "_visitorScore",
          "type": "uint256"
        }
      ],
      "name": "visitorScore",
      "outputs": [],
      "stateMutability": "nonpayable",
      "type": "function"
    },
    {
      "inputs": [
        {
          "internalType": "uint256",
          "name": "_convert",
          "type": "uint256"
        }
      ],
      "name": "convertUintToString",
      "outputs": [
        {
          "internalType": "string",
          "name": "",
          "type": "string"
        }
      ],
      "stateMutability": "pure",
      "type": "function"
    },
    {
      "inputs": [
        {
          "internalType": "bytes32",
          "name": "_job",
          "type": "bytes32"
        },
        {
          "internalType": "bytes4",
          "name": "_selector",
          "type": "bytes4"
        },
        {
          "internalType": "string",
          "name": "_api",
          "type": "string"
        },
        {
          "internalType": "string",
          "name": "_path",
          "type": "string"
        }
      ],
      "name": "makeApiCall",
      "outputs": [],
      "stateMutability": "nonpayable",
      "type": "function"
    },
    {
      "inputs": [
        {
          "internalType": "uint256",
          "name": "_gameId",
          "type": "uint256"
        }
      ],
      "name": "getGameHome",
      "outputs": [
        {
          "internalType": "string",
          "name": "",
          "type": "string"
        }
      ],
      "stateMutability": "view",
      "type": "function"
    },
    {
      "inputs": [
        {
          "internalType": "uint256",
          "name": "_gameId",
          "type": "uint256"
        }
      ],
      "name": "getGameVisitor",
      "outputs": [
        {
          "internalType": "string",
          "name": "",
          "type": "string"
        }
      ],
      "stateMutability": "view",
      "type": "function"
    },
    {
      "inputs": [
        {
          "internalType": "uint256",
          "name": "_gameId",
          "type": "uint256"
        }
      ],
      "name": "getGameDate",
      "outputs": [
        {
          "internalType": "string",
          "name": "",
          "type": "string"
        }
      ],
      "stateMutability": "view",
      "type": "function"
    },
    {
      "inputs": [
        {
          "internalType": "uint256",
          "name": "_gameId",
          "type": "uint256"
        }
      ],
      "name": "getGameTime",
      "outputs": [
        {
          "internalType": "string",
          "name": "",
          "type": "string"
        }
      ],
      "stateMutability": "view",
      "type": "function"
    }
  ],
  "bytecode": "0x6080604052600160045573aa1dc356dc4b18f30c347798fd5379f3d77abc5b600660006101000a81548173ffffffffffffffffffffffffffffffffffffffff021916908373ffffffffffffffffffffffffffffffffffffffff1602179055503480156200006b57600080fd5b506040516200597638038062005976833981810160405260208110156200009157600080fd5b810190808051906020019092919050505080600860006101000a81548173ffffffffffffffffffffffffffffffffffffffff021916908373ffffffffffffffffffffffffffffffffffffffff16021790555033600760006101000a81548173ffffffffffffffffffffffffffffffffffffffff021916908373ffffffffffffffffffffffffffffffffffffffff1602179055505061584180620001356000396000f3fe608060405234801561001057600080fd5b506004361061027f5760003560e01c80638d5603131161015c578063c702738d116100ce578063d82c13f011610087578063d82c13f014611215578063dc7e462e14611257578063e84b193314611261578063ec5afd741461126b578063ee5b977b146112c7578063fed95b99146112ff5761027f565b8063c702738d14610f90578063c806bd5914610ff8578063cd32a2b61461107b578063cf4da95f146110a9578063cfae61d314611150578063d743dc3c146111f75761027f565b80639fda5d62116101205780639fda5d6214610cd7578063a69f7a6d14610d45578063ac22ab0c14610dec578063bfbbdd7814610e93578063c100cdb614610f3a578063c3f010f714610f725761027f565b80638d56031314610b705780638da5cb5b14610bb657806392b070a614610c005780639d12286214610c4a5780639f668bba14610ccd5761027f565b806344f6ede1116101f5578063677f9f12116101b9578063677f9f12146107a45780636826b637146107c25780636deeebc4146109475780636ea18a0b1461099f5780636f6f289514610a22578063850c70e814610ac95761027f565b806344f6ede1146106115780634f2839501461067957806353679290146106b157806357add516146106e9578063645dfa261461076c5761027f565b80632f30cc4b116102475780632f30cc4b14610435578063323046b11461046d57806336e9ae13146104f05780633871b5921461050e578063399b5c46146105465780633ef5e8a21461058e5761027f565b806311ed5d6b14610284578063205a5bd3146102bc5780632785f5751461031e5780632b408dac146103565780632bca776a1461038e575b600080fd5b6102ba6004803603604081101561029a57600080fd5b8101908080359060200190929190803590602001909291905050506113a6565b005b610308600480360360408110156102d257600080fd5b81019080803573ffffffffffffffffffffffffffffffffffffffff169060200190929190803590602001909291905050506115c2565b6040518082815260200191505060405180910390f35b6103546004803603604081101561033457600080fd5b8101908080359060200190929190803590602001909291905050506115e7565b005b61038c6004803603604081101561036c57600080fd5b810190808035906020019092919080359060200190929190505050611803565b005b6103ba600480360360208110156103a457600080fd5b810190808035906020019092919050505061197c565b6040518080602001828103825283818151815260200191508051906020019080838360005b838110156103fa5780820151818401526020810190506103df565b50505050905090810190601f1680156104275780820380516001836020036101000a031916815260200191505b509250505060405180910390f35b61046b6004803603604081101561044b57600080fd5b810190808035906020019092919080359060200190929190505050611a31565b005b610475611b8d565b6040518080602001828103825283818151815260200191508051906020019080838360005b838110156104b557808201518184015260208101905061049a565b50505050905090810190601f1680156104e25780820380516001836020036101000a031916815260200191505b509250505060405180910390f35b6104f8611c2b565b6040518082815260200191505060405180910390f35b6105446004803603604081101561052457600080fd5b810190808035906020019092919080359060200190929190505050611c31565b005b61058c6004803603606081101561055c57600080fd5b81019080803560ff169060200190929190803560ff16906020019092919080359060200190929190505050611d8d565b005b61059661225e565b6040518080602001828103825283818151815260200191508051906020019080838360005b838110156105d65780820151818401526020810190506105bb565b50505050905090810190601f1680156106035780820380516001836020036101000a031916815260200191505b509250505060405180910390f35b61065d6004803603604081101561062757600080fd5b81019080803573ffffffffffffffffffffffffffffffffffffffff169060200190929190803590602001909291905050506122fc565b604051808260ff1660ff16815260200191505060405180910390f35b6106af6004803603604081101561068f57600080fd5b810190808035906020019092919080359060200190929190505050612332565b005b6106e7600480360360408110156106c757600080fd5b81019080803590602001909291908035906020019092919050505061248e565b005b6106f16125d2565b6040518080602001828103825283818151815260200191508051906020019080838360005b83811015610731578082015181840152602081019050610716565b50505050905090810190601f16801561075e5780820380516001836020036101000a031916815260200191505b509250505060405180910390f35b6107a26004803603604081101561078257600080fd5b810190808035906020019092919080359060200190929190505050612670565b005b6107ac6127cc565b6040518082815260200191505060405180910390f35b610945600480360360808110156107d857600080fd5b810190808035906020019092919080357bffffffffffffffffffffffffffffffffffffffffffffffffffffffff191690602001909291908035906020019064010000000081111561082857600080fd5b82018360208201111561083a57600080fd5b8035906020019184600183028401116401000000008311171561085c57600080fd5b91908080601f016020809104026020016040519081016040528093929190818152602001838380828437600081840152601f19601f820116905080830192505050505050509192919290803590602001906401000000008111156108bf57600080fd5b8201836020820111156108d157600080fd5b803590602001918460018302840111640100000000831117156108f357600080fd5b91908080601f016020809104026020016040519081016040528093929190818152602001838380828437600081840152601f19601f8201169050808301925050505050505091929192905050506127d2565b005b6109896004803603602081101561095d57600080fd5b81019080803573ffffffffffffffffffffffffffffffffffffffff169060200190929190505050612912565b6040518082815260200191505060405180910390f35b6109a761292a565b6040518080602001828103825283818151815260200191508051906020019080838360005b838110156109e75780820151818401526020810190506109cc565b50505050905090810190601f168015610a145780820380516001836020036101000a031916815260200191505b509250505060405180910390f35b610a4e60048036036020811015610a3857600080fd5b81019080803590602001909291905050506129c8565b6040518080602001828103825283818151815260200191508051906020019080838360005b83811015610a8e578082015181840152602081019050610a73565b50505050905090810190601f168015610abb5780820380516001836020036101000a031916815260200191505b509250505060405180910390f35b610af560048036036020811015610adf57600080fd5b8101908080359060200190929190505050612a78565b6040518080602001828103825283818151815260200191508051906020019080838360005b83811015610b35578082015181840152602081019050610b1a565b50505050905090810190601f168015610b625780820380516001836020036101000a031916815260200191505b509250505060405180910390f35b610b9c60048036036020811015610b8657600080fd5b8101908080359060200190929190505050612b28565b604051808215151515815260200191505060405180910390f35b610bbe612b47565b604051808273ffffffffffffffffffffffffffffffffffffffff1673ffffffffffffffffffffffffffffffffffffffff16815260200191505060405180910390f35b610c08612b6d565b604051808273ffffffffffffffffffffffffffffffffffffffff1673ffffffffffffffffffffffffffffffffffffffff16815260200191505060405180910390f35b610c52612b93565b6040518080602001828103825283818151815260200191508051906020019080838360005b83811015610c92578082015181840152602081019050610c77565b50505050905090810190601f168015610cbf5780820380516001836020036101000a031916815260200191505b509250505060405180910390f35b610cd5612c31565b005b610d0360048036036020811015610ced57600080fd5b8101908080359060200190929190505050613137565b604051808273ffffffffffffffffffffffffffffffffffffffff1673ffffffffffffffffffffffffffffffffffffffff16815260200191505060405180910390f35b610d7160048036036020811015610d5b57600080fd5b8101908080359060200190929190505050613173565b6040518080602001828103825283818151815260200191508051906020019080838360005b83811015610db1578082015181840152602081019050610d96565b50505050905090810190601f168015610dde5780820380516001836020036101000a031916815260200191505b509250505060405180910390f35b610e1860048036036020811015610e0257600080fd5b8101908080359060200190929190505050613223565b6040518080602001828103825283818151815260200191508051906020019080838360005b83811015610e58578082015181840152602081019050610e3d565b50505050905090810190601f168015610e855780820380516001836020036101000a031916815260200191505b509250505060405180910390f35b610ebf60048036036020811015610ea957600080fd5b81019080803590602001909291905050506132d8565b6040518080602001828103825283818151815260200191508051906020019080838360005b83811015610eff578082015181840152602081019050610ee4565b50505050905090810190601f168015610f2c5780820380516001836020036101000a031916815260200191505b509250505060405180910390f35b610f7060048036036040811015610f5057600080fd5b81019080803590602001909291908035906020019092919050505061338d565b005b610f7a6134b4565b6040518082815260200191505060405180910390f35b610fdc60048036036040811015610fa657600080fd5b81019080803573ffffffffffffffffffffffffffffffffffffffff169060200190929190803590602001909291905050506134ba565b604051808260ff1660ff16815260200191505060405180910390f35b6110006134f0565b6040518080602001828103825283818151815260200191508051906020019080838360005b83811015611040578082015181840152602081019050611025565b50505050905090810190601f16801561106d5780820380516001836020036101000a031916815260200191505b509250505060405180910390f35b6110a76004803603602081101561109157600080fd5b810190808035906020019092919050505061358e565b005b6110d5600480360360208110156110bf57600080fd5b81019080803590602001909291905050506139d2565b6040518080602001828103825283818151815260200191508051906020019080838360005b838110156111155780820151818401526020810190506110fa565b50505050905090810190601f1680156111425780820380516001836020036101000a031916815260200191505b509250505060405180910390f35b61117c6004803603602081101561116657600080fd5b8101908080359060200190929190505050613a87565b6040518080602001828103825283818151815260200191508051906020019080838360005b838110156111bc5780820151818401526020810190506111a1565b50505050905090810190601f1680156111e95780820380516001836020036101000a031916815260200191505b509250505060405180910390f35b6111ff613b37565b6040518082815260200191505060405180910390f35b6112416004803603602081101561122b57600080fd5b8101908080359060200190929190505050613b3d565b6040518082815260200191505060405180910390f35b61125f613b55565b005b611269614356565b005b6112ad6004803603602081101561128157600080fd5b81019080803573ffffffffffffffffffffffffffffffffffffffff16906020019092919050505061488d565b604051808215151515815260200191505060405180910390f35b6112fd600480360360408110156112dd57600080fd5b8101908080359060200190929190803590602001909291905050506148ad565b005b61132b6004803603602081101561131557600080fd5b81019080803590602001909291905050506149d4565b6040518080602001828103825283818151815260200191508051906020019080838360005b8381101561136b578082015181840152602081019050611350565b50505050905090810190601f1680156113985780820380516001836020036101000a031916815260200191505b509250505060405180910390f35b816005600082815260200190815260200160002060009054906101000a900473ffffffffffffffffffffffffffffffffffffffff1673ffffffffffffffffffffffffffffffffffffffff163373ffffffffffffffffffffffffffffffffffffffff161461145e576040517f08c379a00000000000000000000000000000000000000000000000000000000081526004018080602001828103825260288152602001806157e46028913960400191505060405180910390fd5b6005600082815260200190815260200160002060006101000a81549073ffffffffffffffffffffffffffffffffffffffff0219169055807f7cc135e0cebb02c3480ae5d74d377283180a2601f8f644edf7987b009316c63a60405160405180910390a26060826040516020018082815260200191505060405160208183030381529060405290506060600a67ffffffffffffffff811180156114ff57600080fd5b506040519080825280601f01601f1916602001820160405280156115325781602001600182028036833780820191505090505b50905060008090505b600a8110156115a35782818151811061155057fe5b602001015160f81c60f81b82828151811061156757fe5b60200101907effffffffffffffffffffffffffffffffffffffffffffffffffffffffffffff1916908160001a905350808060010191505061153b565b5080600990805190602001906115ba92919061550f565b505050505050565b601060205281600052604060002081600f81106115db57fe5b01600091509150505481565b816005600082815260200190815260200160002060009054906101000a900473ffffffffffffffffffffffffffffffffffffffff1673ffffffffffffffffffffffffffffffffffffffff163373ffffffffffffffffffffffffffffffffffffffff161461169f576040517f08c379a00000000000000000000000000000000000000000000000000000000081526004018080602001828103825260288152602001806157e46028913960400191505060405180910390fd5b6005600082815260200190815260200160002060006101000a81549073ffffffffffffffffffffffffffffffffffffffff0219169055807f7cc135e0cebb02c3480ae5d74d377283180a2601f8f644edf7987b009316c63a60405160405180910390a26060826040516020018082815260200191505060405160208183030381529060405290506060600a67ffffffffffffffff8111801561174057600080fd5b506040519080825280601f01601f1916602001820160405280156117735781602001600182028036833780820191505090505b50905060008090505b600a8110156117e45782818151811061179157fe5b602001015160f81c60f81b8282815181106117a857fe5b60200101907effffffffffffffffffffffffffffffffffffffffffffffffffffffffffffff1916908160001a905350808060010191505061177c565b5080602890805190602001906117fb92919061550f565b505050505050565b816005600082815260200190815260200160002060009054906101000a900473ffffffffffffffffffffffffffffffffffffffff1673ffffffffffffffffffffffffffffffffffffffff163373ffffffffffffffffffffffffffffffffffffffff16146118bb576040517f08c379a00000000000000000000000000000000000000000000000000000000081526004018080602001828103825260288152602001806157e46028913960400191505060405180910390fd5b6005600082815260200190815260200160002060006101000a81549073ffffffffffffffffffffffffffffffffffffffff0219169055807f7cc135e0cebb02c3480ae5d74d377283180a2601f8f644edf7987b009316c63a60405160405180910390a26020600083815260200190815260200160002060009054906101000a900460ff1661194b57816025819055505b60016020600084815260200190815260200160002060006101000a81548160ff021916908315150217905550505050565b6060602160008381526020019081526020016000208054600181600116156101000203166002900480601f016020809104026020016040519081016040528092919081815260200182805460018160011615610100020316600290048015611a255780601f106119fa57610100808354040283529160200191611a25565b820191906000526020600020905b815481529060010190602001808311611a0857829003601f168201915b50505050509050919050565b816005600082815260200190815260200160002060009054906101000a900473ffffffffffffffffffffffffffffffffffffffff1673ffffffffffffffffffffffffffffffffffffffff163373ffffffffffffffffffffffffffffffffffffffff1614611ae9576040517f08c379a00000000000000000000000000000000000000000000000000000000081526004018080602001828103825260288152602001806157e46028913960400191505060405180910390fd5b6005600082815260200190815260200160002060006101000a81549073ffffffffffffffffffffffffffffffffffffffff0219169055807f7cc135e0cebb02c3480ae5d74d377283180a2601f8f644edf7987b009316c63a60405160405180910390a26060826040516020018082815260200191505060405160208183030381529060405290508060269080519060200190611b8692919061550f565b5050505050565b60098054600181600116156101000203166002900480601f016020809104026020016040519081016040528092919081815260200182805460018160011615610100020316600290048015611c235780601f10611bf857610100808354040283529160200191611c23565b820191906000526020600020905b815481529060010190602001808311611c0657829003601f168201915b505050505081565b602b5481565b816005600082815260200190815260200160002060009054906101000a900473ffffffffffffffffffffffffffffffffffffffff1673ffffffffffffffffffffffffffffffffffffffff163373ffffffffffffffffffffffffffffffffffffffff1614611ce9576040517f08c379a00000000000000000000000000000000000000000000000000000000081526004018080602001828103825260288152602001806157e46028913960400191505060405180910390fd5b6005600082815260200190815260200160002060006101000a81549073ffffffffffffffffffffffffffffffffffffffff0219169055807f7cc135e0cebb02c3480ae5d74d377283180a2601f8f644edf7987b009316c63a60405160405180910390a26060826040516020018082815260200191505060405160208183030381529060405290508060279080519060200190611d8692919061550f565b5050505050565b60008360ff1610158015611da75750600f60ff168360ff16105b611e19576040517f08c379a00000000000000000000000000000000000000000000000000000000081526004018080602001828103825260138152602001807f43686f6f736520612076616c69642067616d650000000000000000000000000081525060200191505060405180910390fd5b600160ff168260ff161480611e345750600260ff168260ff16145b611ea6576040517f08c379a00000000000000000000000000000000000000000000000000000000081526004018080602001828103825260138152602001807f43686f6f736520612076616c6964207465616d0000000000000000000000000081525060200191505060405180910390fd5b60008111611eff576040517f08c379a00000000000000000000000000000000000000000000000000000000081526004018080602001828103825260218152602001806156f86021913960400191505060405180910390fd5b600c60003373ffffffffffffffffffffffffffffffffffffffff1673ffffffffffffffffffffffffffffffffffffffff16815260200190815260200160002054811115611f97576040517f08c379a00000000000000000000000000000000000000000000000000000000081526004018080602001828103825260248152602001806157646024913960400191505060405180910390fd5b80600c60003373ffffffffffffffffffffffffffffffffffffffff1673ffffffffffffffffffffffffffffffffffffffff1681526020019081526020016000205403600c60003373ffffffffffffffffffffffffffffffffffffffff1673ffffffffffffffffffffffffffffffffffffffff168152602001908152602001600020819055506001600e60003373ffffffffffffffffffffffffffffffffffffffff1673ffffffffffffffffffffffffffffffffffffffff1681526020019081526020016000208460ff16600f811061206b57fe5b602091828204019190066101000a81548160ff021916908360ff16021790555081600f60003373ffffffffffffffffffffffffffffffffffffffff1673ffffffffffffffffffffffffffffffffffffffff1681526020019081526020016000208460ff16600f81106120d957fe5b602091828204019190066101000a81548160ff021916908360ff16021790555080601060003373ffffffffffffffffffffffffffffffffffffffff1673ffffffffffffffffffffffffffffffffffffffff1681526020019081526020016000208460ff16600f811061214757fe5b0181905550600d60003373ffffffffffffffffffffffffffffffffffffffff1673ffffffffffffffffffffffffffffffffffffffff16815260200190815260200160002060009054906101000a900460ff1661220157600b339080600181540180825580915050600190039060005260206000200160009091909190916101000a81548173ffffffffffffffffffffffffffffffffffffffff021916908373ffffffffffffffffffffffffffffffffffffffff1602179055505b6001600d60003373ffffffffffffffffffffffffffffffffffffffff1673ffffffffffffffffffffffffffffffffffffffff16815260200190815260200160002060006101000a81548160ff021916908315150217905550505050565b60268054600181600116156101000203166002900480601f0160208091040260200160405190810160405280929190818152602001828054600181600116156101000203166002900480156122f45780601f106122c9576101008083540402835291602001916122f4565b820191906000526020600020905b8154815290600101906020018083116122d757829003601f168201915b505050505081565b600f60205281600052604060002081600f811061231557fe5b60209182820401919006915091509054906101000a900460ff1681565b816005600082815260200190815260200160002060009054906101000a900473ffffffffffffffffffffffffffffffffffffffff1673ffffffffffffffffffffffffffffffffffffffff163373ffffffffffffffffffffffffffffffffffffffff16146123ea576040517f08c379a00000000000000000000000000000000000000000000000000000000081526004018080602001828103825260288152602001806157e46028913960400191505060405180910390fd5b6005600082815260200190815260200160002060006101000a81549073ffffffffffffffffffffffffffffffffffffffff0219169055807f7cc135e0cebb02c3480ae5d74d377283180a2601f8f644edf7987b009316c63a60405160405180910390a260608260405160200180828152602001915050604051602081830303815290604052905080602a908051906020019061248792919061550f565b5050505050565b816005600082815260200190815260200160002060009054906101000a900473ffffffffffffffffffffffffffffffffffffffff1673ffffffffffffffffffffffffffffffffffffffff163373ffffffffffffffffffffffffffffffffffffffff1614612546576040517f08c379a00000000000000000000000000000000000000000000000000000000081526004018080602001828103825260288152602001806157e46028913960400191505060405180910390fd5b6005600082815260200190815260200160002060006101000a81549073ffffffffffffffffffffffffffffffffffffffff0219169055807f7cc135e0cebb02c3480ae5d74d377283180a2601f8f644edf7987b009316c63a60405160405180910390a2600f60ff168211156125c557600f60ff16600a819055506125cd565b81600a819055505b505050565b60288054600181600116156101000203166002900480601f0160208091040260200160405190810160405280929190818152602001828054600181600116156101000203166002900480156126685780601f1061263d57610100808354040283529160200191612668565b820191906000526020600020905b81548152906001019060200180831161264b57829003601f168201915b505050505081565b816005600082815260200190815260200160002060009054906101000a900473ffffffffffffffffffffffffffffffffffffffff1673ffffffffffffffffffffffffffffffffffffffff163373ffffffffffffffffffffffffffffffffffffffff1614612728576040517f08c379a00000000000000000000000000000000000000000000000000000000081526004018080602001828103825260288152602001806157e46028913960400191505060405180910390fd5b6005600082815260200190815260200160002060006101000a81549073ffffffffffffffffffffffffffffffffffffffff0219169055807f7cc135e0cebb02c3480ae5d74d377283180a2601f8f644edf7987b009316c63a60405160405180910390a260608260405160200180828152602001915050604051602081830303815290604052905080602990805190602001906127c592919061550f565b5050505050565b60255481565b600760009054906101000a900473ffffffffffffffffffffffffffffffffffffffff1673ffffffffffffffffffffffffffffffffffffffff163373ffffffffffffffffffffffffffffffffffffffff161461282c57600080fd5b61283461558f565b61283f853086614bad565b905061288b6040518060400160405280600381526020017f67657400000000000000000000000000000000000000000000000000000000008152508483614bde9092919063ffffffff16565b6128d56040518060400160405280600481526020017f70617468000000000000000000000000000000000000000000000000000000008152508383614bde9092919063ffffffff16565b61290a600660009054906101000a900473ffffffffffffffffffffffffffffffffffffffff168267016345785d8a0000614c11565b505050505050565b600c6020528060005260406000206000915090505481565b60278054600181600116156101000203166002900480601f0160208091040260200160405190810160405280929190818152602001828054600181600116156101000203166002900480156129c05780601f10612995576101008083540402835291602001916129c0565b820191906000526020600020905b8154815290600101906020018083116129a357829003601f168201915b505050505081565b60216020528060005260406000206000915090508054600181600116156101000203166002900480601f016020809104026020016040519081016040528092919081815260200182805460018160011615610100020316600290048015612a705780601f10612a4557610100808354040283529160200191612a70565b820191906000526020600020905b815481529060010190602001808311612a5357829003601f168201915b505050505081565b60226020528060005260406000206000915090508054600181600116156101000203166002900480601f016020809104026020016040519081016040528092919081815260200182805460018160011615610100020316600290048015612b205780601f10612af557610100808354040283529160200191612b20565b820191906000526020600020905b815481529060010190602001808311612b0357829003601f168201915b505050505081565b602080528060005260406000206000915054906101000a900460ff1681565b600760009054906101000a900473ffffffffffffffffffffffffffffffffffffffff1681565b600860009054906101000a900473ffffffffffffffffffffffffffffffffffffffff1681565b602a8054600181600116156101000203166002900480601f016020809104026020016040519081016040528092919081815260200182805460018160011615610100020316600290048015612c295780601f10612bfe57610100808354040283529160200191612c29565b820191906000526020600020905b815481529060010190602001808311612c0c57829003601f168201915b505050505081565b600760009054906101000a900473ffffffffffffffffffffffffffffffffffffffff1673ffffffffffffffffffffffffffffffffffffffff163373ffffffffffffffffffffffffffffffffffffffff1614612c8b57600080fd5b612d0b7f62373238356434383539646134623238396337383631646239373162616630616311ed5d6b60e01b6040518060600160405280603581526020016156c3603591396040518060400160405280600881526020017f6461746574696d650000000000000000000000000000000000000000000000008152506127d2565b612e747f6337646437326361313462343466306339623663666364346237656330613263635367929060e01b60098060405160200180806157b16033913960330183805460018160011615610100020316600290048015612da35780601f10612d81576101008083540402835291820191612da3565b820191906000526020600020905b815481529060010190602001808311612d8f575b5050807f26656e645f646174653d00000000000000000000000000000000000000000000815250600a0182805460018160011615610100020316600290048015612e245780601f10612e02576101008083540402835291820191612e24565b820191906000526020600020905b815481529060010190602001808311612e10575b5050925050506040516020818303038152906040526040518060400160405280601081526020017f6d6574612e746f74616c5f636f756e74000000000000000000000000000000008152506127d2565b60008090505b600a548160ff161015613134576060600167ffffffffffffffff81118015612ea157600080fd5b506040519080825280601f01601f191660200182016040528015612ed45781602001600182028036833780820191505090505b5090508160300160f81b81600081518110612eeb57fe5b60200101907effffffffffffffffffffffffffffffffffffffffffffffffffffffffffffff1916908160001a905350606081905061310d7f6337646437326361313462343466306339623663666364346237656330613263632b408dac60e01b60098060405160200180806157b16033913960330183805460018160011615610100020316600290048015612fb75780601f10612f95576101008083540402835291820191612fb7565b820191906000526020600020905b815481529060010190602001808311612fa3575b5050807f26656e645f646174653d00000000000000000000000000000000000000000000815250600a01828054600181600116156101000203166002900480156130385780601f10613016576101008083540402835291820191613038565b820191906000526020600020905b815481529060010190602001808311613024575b5050925050506040516020818303038152906040528460405160200180807f646174612e00000000000000000000000000000000000000000000000000000081525060050182805190602001908083835b602083106130ac5780518252602082019150602081019050602083039250613089565b6001836020036101000a038019825116818451168082178552505050505050905001807f2e696400000000000000000000000000000000000000000000000000000000008152506003019150506040516020818303038152906040526127d2565b60255460118460ff16600f811061312057fe5b018190555050508080600101915050612e7a565b50565b600b818154811061314457fe5b906000526020600020016000915054906101000a900473ffffffffffffffffffffffffffffffffffffffff1681565b60236020528060005260406000206000915090508054600181600116156101000203166002900480601f01602080910402602001604051908101604052809291908181526020018280546001816001161561010002031660029004801561321b5780601f106131f05761010080835404028352916020019161321b565b820191906000526020600020905b8154815290600101906020018083116131fe57829003601f168201915b505050505081565b6060602260008381526020019081526020016000208054600181600116156101000203166002900480601f0160208091040260200160405190810160405280929190818152602001828054600181600116156101000203166002900480156132cc5780601f106132a1576101008083540402835291602001916132cc565b820191906000526020600020905b8154815290600101906020018083116132af57829003601f168201915b50505050509050919050565b6060602460008381526020019081526020016000208054600181600116156101000203166002900480601f0160208091040260200160405190810160405280929190818152602001828054600181600116156101000203166002900480156133815780601f1061335657610100808354040283529160200191613381565b820191906000526020600020905b81548152906001019060200180831161336457829003601f168201915b50505050509050919050565b816005600082815260200190815260200160002060009054906101000a900473ffffffffffffffffffffffffffffffffffffffff1673ffffffffffffffffffffffffffffffffffffffff163373ffffffffffffffffffffffffffffffffffffffff1614613445576040517f08c379a00000000000000000000000000000000000000000000000000000000081526004018080602001828103825260288152602001806157e46028913960400191505060405180910390fd5b6005600082815260200190815260200160002060006101000a81549073ffffffffffffffffffffffffffffffffffffffff0219169055807f7cc135e0cebb02c3480ae5d74d377283180a2601f8f644edf7987b009316c63a60405160405180910390a281602c81905550505050565b600a5481565b600e60205281600052604060002081600f81106134d357fe5b60209182820401919006915091509054906101000a900460ff1681565b60298054600181600116156101000203166002900480601f0160208091040260200160405190810160405280929190818152602001828054600181600116156101000203166002900480156135865780601f1061355b57610100808354040283529160200191613586565b820191906000526020600020905b81548152906001019060200180831161356957829003601f168201915b505050505081565b600c60003373ffffffffffffffffffffffffffffffffffffffff1673ffffffffffffffffffffffffffffffffffffffff168152602001908152602001600020547fffffffffffffffffffffffffffffffffffffffffffffffffffffffffffffffff02811015613648576040517f08c379a00000000000000000000000000000000000000000000000000000000081526004018080602001828103825260298152602001806157886029913960400191505060405180910390fd5b620f423f8111156136c1576040517f08c379a000000000000000000000000000000000000000000000000000000000815260040180806020018281038252601f8152602001807f43616e6e6f74206465706f736974206d6f7265207468616e203939393939390081525060200191505060405180910390fd5b6000811415613738576040517f08c379a000000000000000000000000000000000000000000000000000000000815260040180806020018281038252601c8152602001807f43616e6e6f74207769746864726177206f72206465706f73697420300000000081525060200191505060405180910390fd5b600081111561385b57600860009054906101000a900473ffffffffffffffffffffffffffffffffffffffff1673ffffffffffffffffffffffffffffffffffffffff166323b872dd3330846040518463ffffffff1660e01b8152600401808473ffffffffffffffffffffffffffffffffffffffff1673ffffffffffffffffffffffffffffffffffffffff1681526020018373ffffffffffffffffffffffffffffffffffffffff1673ffffffffffffffffffffffffffffffffffffffff1681526020018281526020019350505050602060405180830381600087803b15801561381e57600080fd5b505af1158015613832573d6000803e3d6000fd5b505050506040513d602081101561384857600080fd5b8101908080519060200190929190505050505b600081101561394a57600860009054906101000a900473ffffffffffffffffffffffffffffffffffffffff1673ffffffffffffffffffffffffffffffffffffffff1663a9059cbb33836040518363ffffffff1660e01b8152600401808373ffffffffffffffffffffffffffffffffffffffff1673ffffffffffffffffffffffffffffffffffffffff16815260200182815260200192505050602060405180830381600087803b15801561390d57600080fd5b505af1158015613921573d6000803e3d6000fd5b505050506040513d602081101561393757600080fd5b8101908080519060200190929190505050505b80600c60003373ffffffffffffffffffffffffffffffffffffffff1673ffffffffffffffffffffffffffffffffffffffff1681526020019081526020016000205401600c60003373ffffffffffffffffffffffffffffffffffffffff1673ffffffffffffffffffffffffffffffffffffffff1681526020019081526020016000208190555050565b6060602360008381526020019081526020016000208054600181600116156101000203166002900480601f016020809104026020016040519081016040528092919081815260200182805460018160011615610100020316600290048015613a7b5780601f10613a5057610100808354040283529160200191613a7b565b820191906000526020600020905b815481529060010190602001808311613a5e57829003601f168201915b50505050509050919050565b60246020528060005260406000206000915090508054600181600116156101000203166002900480601f016020809104026020016040519081016040528092919081815260200182805460018160011615610100020316600290048015613b2f5780601f10613b0457610100808354040283529160200191613b2f565b820191906000526020600020905b815481529060010190602001808311613b1257829003601f168201915b505050505081565b602c5481565b601181600f8110613b4a57fe5b016000915090505481565b600760009054906101000a900473ffffffffffffffffffffffffffffffffffffffff1673ffffffffffffffffffffffffffffffffffffffff163373ffffffffffffffffffffffffffffffffffffffff1614613baf57600080fd5b60008090505b600a5481101561435357613c5f7f6237323835643438353964613462323839633738363164623937316261663061634f28395060e01b601184600f8110613bf857fe5b0154604051602001808061573c602891396028018281526020019150506040516020818303038152906040526040518060400160405280600681526020017f73746174757300000000000000000000000000000000000000000000000000008152506127d2565b60405160200180807f46696e616c000000000000000000000000000000000000000000000000000000815250600501905060405160208183030381529060405280519060200120602a6040516020018082805460018160011615610100020316600290048015613d065780601f10613ce4576101008083540402835291820191613d06565b820191906000526020600020905b815481529060010190602001808311613cf2575b50509150506040516020818303038152906040528051906020012014613d2b57614346565b613dcb7f633764643732636131346234346630633962366366636434623765633061326363ee5b977b60e01b601184600f8110613d6457fe5b0154604051602001808061573c602891396028018281526020019150506040516020818303038152906040526040518060400160405280600f81526020017f686f6d655f7465616d5f73636f726500000000000000000000000000000000008152506127d2565b613e6b7f633764643732636131346234346630633962366366636434623765633061326363c100cdb660e01b601184600f8110613e0457fe5b0154604051602001808061573c602891396028018281526020019150506040516020818303038152906040526040518060400160405280601281526020017f76697369746f725f7465616d5f73636f726500000000000000000000000000008152506127d2565b6000809050602c54602b541115613e8857600160ff169050613e90565b600260ff1690505b60008090505b600b80549050811015614343576000600e6000600b8481548110613eb657fe5b9060005260206000200160009054906101000a900473ffffffffffffffffffffffffffffffffffffffff1673ffffffffffffffffffffffffffffffffffffffff1673ffffffffffffffffffffffffffffffffffffffff16815260200190815260200160002084600f8110613f2657fe5b602091828204019190069054906101000a900460ff1660ff161415613f4a57614336565b81600f6000600b8481548110613f5c57fe5b9060005260206000200160009054906101000a900473ffffffffffffffffffffffffffffffffffffffff1673ffffffffffffffffffffffffffffffffffffffff1673ffffffffffffffffffffffffffffffffffffffff16815260200190815260200160002084600f8110613fcc57fe5b602091828204019190069054906101000a900460ff1660ff1614156141675760106000600b8381548110613ffc57fe5b9060005260206000200160009054906101000a900473ffffffffffffffffffffffffffffffffffffffff1673ffffffffffffffffffffffffffffffffffffffff1673ffffffffffffffffffffffffffffffffffffffff16815260200190815260200160002083600f811061406c57fe5b0154600260ff1602600c6000600b848154811061408557fe5b9060005260206000200160009054906101000a900473ffffffffffffffffffffffffffffffffffffffff1673ffffffffffffffffffffffffffffffffffffffff1673ffffffffffffffffffffffffffffffffffffffff1681526020019081526020016000205401600c6000600b84815481106140fd57fe5b9060005260206000200160009054906101000a900473ffffffffffffffffffffffffffffffffffffffff1673ffffffffffffffffffffffffffffffffffffffff1673ffffffffffffffffffffffffffffffffffffffff168152602001908152602001600020819055505b6000600e6000600b848154811061417a57fe5b9060005260206000200160009054906101000a900473ffffffffffffffffffffffffffffffffffffffff1673ffffffffffffffffffffffffffffffffffffffff1673ffffffffffffffffffffffffffffffffffffffff16815260200190815260200160002084600f81106141ea57fe5b602091828204019190066101000a81548160ff021916908360ff1602179055506000600f6000600b848154811061421d57fe5b9060005260206000200160009054906101000a900473ffffffffffffffffffffffffffffffffffffffff1673ffffffffffffffffffffffffffffffffffffffff1673ffffffffffffffffffffffffffffffffffffffff16815260200190815260200160002084600f811061428d57fe5b602091828204019190066101000a81548160ff021916908360ff160217905550600060106000600b84815481106142c057fe5b9060005260206000200160009054906101000a900473ffffffffffffffffffffffffffffffffffffffff1673ffffffffffffffffffffffffffffffffffffffff1673ffffffffffffffffffffffffffffffffffffffff16815260200190815260200160002084600f811061433057fe5b01819055505b8080600101915050613e96565b50505b8080600101915050613bb5565b50565b600760009054906101000a900473ffffffffffffffffffffffffffffffffffffffff1673ffffffffffffffffffffffffffffffffffffffff163373ffffffffffffffffffffffffffffffffffffffff16146143b057600080fd5b60008090505b600f81101561488a576000601182600f81106143ce57fe5b015414156143db5761488a565b6000601182600f81106143ea57fe5b0154905060606143f9826149d4565b90506144d87f6237323835643438353964613462323839633738363164623937316261663061632f30cc4b60e01b83604051602001808061573c6028913960280182805190602001908083835b602083106144695780518252602082019150602081019050602083039250614446565b6001836020036101000a0380198251168184511680821785525050505050509050019150506040516020818303038152906040526040518060400160405280601381526020017f686f6d655f7465616d2e66756c6c5f6e616d65000000000000000000000000008152506127d2565b602660216000601186600f81106144eb57fe5b01548152602001908152602001600020908054600181600116156101000203166002900461451a9291906155fc565b506145f87f6237323835643438353964613462323839633738363164623937316261663061633871b59260e01b83604051602001808061573c6028913960280182805190602001908083835b602083106145895780518252602082019150602081019050602083039250614566565b6001836020036101000a0380198251168184511680821785525050505050509050019150506040516020818303038152906040526040518060400160405280601681526020017f76697369746f725f7465616d2e66756c6c5f6e616d65000000000000000000008152506127d2565b602760226000601186600f811061460b57fe5b01548152602001908152602001600020908054600181600116156101000203166002900461463a9291906155fc565b506147187f6237323835643438353964613462323839633738363164623937316261663061632785f57560e01b83604051602001808061573c6028913960280182805190602001908083835b602083106146a95780518252602082019150602081019050602083039250614686565b6001836020036101000a0380198251168184511680821785525050505050509050019150506040516020818303038152906040526040518060400160405280600481526020017f64617465000000000000000000000000000000000000000000000000000000008152506127d2565b602860236000601186600f811061472b57fe5b01548152602001908152602001600020908054600181600116156101000203166002900461475a9291906155fc565b506148387f623732383564343835396461346232383963373836316462393731626166306163645dfa2660e01b83604051602001808061573c6028913960280182805190602001908083835b602083106147c957805182526020820191506020810190506020830392506147a6565b6001836020036101000a0380198251168184511680821785525050505050509050019150506040516020818303038152906040526040518060400160405280600681526020017f73746174757300000000000000000000000000000000000000000000000000008152506127d2565b602960246000601186600f811061484b57fe5b01548152602001908152602001600020908054600181600116156101000203166002900461487a9291906155fc565b50505080806001019150506143b6565b50565b600d6020528060005260406000206000915054906101000a900460ff1681565b816005600082815260200190815260200160002060009054906101000a900473ffffffffffffffffffffffffffffffffffffffff1673ffffffffffffffffffffffffffffffffffffffff163373ffffffffffffffffffffffffffffffffffffffff1614614965576040517f08c379a00000000000000000000000000000000000000000000000000000000081526004018080602001828103825260288152602001806157e46028913960400191505060405180910390fd5b6005600082815260200190815260200160002060006101000a81549073ffffffffffffffffffffffffffffffffffffffff0219169055807f7cc135e0cebb02c3480ae5d74d377283180a2601f8f644edf7987b009316c63a60405160405180910390a281602b81905550505050565b606080604e60ff1667ffffffffffffffff811180156149f257600080fd5b506040519080825280601f01601f191660200182016040528015614a255781602001600182028036833780820191505090505b509050600080905060008090505b60008514614aad57600a60ff168581614a4857fe5b069150600a60ff168581614a5857fe5b0494508160300160f81b838260ff1681518110614a7157fe5b60200101907effffffffffffffffffffffffffffffffffffffffffffffffffffffffffffff1916908160001a9053508080600101915050614a33565b600080905060008090505b600260ff168360ff1681614ac857fe5b0460ff168160ff161015614ba057848160ff1681518110614ae557fe5b602001015160f81c60f81b91508460018285030360ff1681518110614b0657fe5b602001015160f81c60f81b858260ff1681518110614b2057fe5b60200101907effffffffffffffffffffffffffffffffffffffffffffffffffffffffffffff1916908160001a905350818560018386030360ff1681518110614b6457fe5b60200101907effffffffffffffffffffffffffffffffffffffffffffffffffffffffffffff1916908160001a9053508080600101915050614ab8565b5083945050505050919050565b614bb561558f565b614bbd61558f565b614bd485858584614ec9909392919063ffffffff16565b9150509392505050565b614bf5828460800151614f7990919063ffffffff16565b614c0c818460800151614f7990919063ffffffff16565b505050565b600030600454604051602001808373ffffffffffffffffffffffffffffffffffffffff1673ffffffffffffffffffffffffffffffffffffffff1660601b815260140182815260200192505050604051602081830303815290604052805190602001209050600454836060018181525050836005600083815260200190815260200160002060006101000a81548173ffffffffffffffffffffffffffffffffffffffff021916908373ffffffffffffffffffffffffffffffffffffffff160217905550807fb5e6e01e79f91267dc17b4e6314d5d4d03593d2ceee0fbb452b750bd70ea5af960405160405180910390a2600260009054906101000a900473ffffffffffffffffffffffffffffffffffffffff1673ffffffffffffffffffffffffffffffffffffffff16634000aea08584614d4987614f9e565b6040518463ffffffff1660e01b8152600401808473ffffffffffffffffffffffffffffffffffffffff1673ffffffffffffffffffffffffffffffffffffffff16815260200183815260200180602001828103825283818151815260200191508051906020019080838360005b83811015614dd0578082015181840152602081019050614db5565b50505050905090810190601f168015614dfd5780820380516001836020036101000a031916815260200191505b50945050505050602060405180830381600087803b158015614e1e57600080fd5b505af1158015614e32573d6000803e3d6000fd5b505050506040513d6020811015614e4857600080fd5b8101908080519060200190929190505050614eae576040517f08c379a00000000000000000000000000000000000000000000000000000000081526004018080602001828103825260238152602001806157196023913960400191505060405180910390fd5b60016004600082825401925050819055508090509392505050565b614ed161558f565b614ee1856080015161010061516a565b508385600001818152505082856020019073ffffffffffffffffffffffffffffffffffffffff16908173ffffffffffffffffffffffffffffffffffffffff16815250508185604001907bffffffffffffffffffffffffffffffffffffffffffffffffffffffff191690817bffffffffffffffffffffffffffffffffffffffffffffffffffffffff191681525050849050949350505050565b614f8682600383516151be565b614f99818361530390919063ffffffff16565b505050565b6060634042994660e01b60008084600001518560200151866040015187606001516001896080015160000151604051602401808973ffffffffffffffffffffffffffffffffffffffff1673ffffffffffffffffffffffffffffffffffffffff1681526020018881526020018781526020018673ffffffffffffffffffffffffffffffffffffffff1673ffffffffffffffffffffffffffffffffffffffff168152602001857bffffffffffffffffffffffffffffffffffffffffffffffffffffffff19167bffffffffffffffffffffffffffffffffffffffffffffffffffffffff1916815260200184815260200183815260200180602001828103825283818151815260200191508051906020019080838360005b838110156150cd5780820151818401526020810190506150b2565b50505050905090810190601f1680156150fa5780820380516001836020036101000a031916815260200191505b509950505050505050505050604051602081830303815290604052907bffffffffffffffffffffffffffffffffffffffffffffffffffffffff19166020820180517bffffffffffffffffffffffffffffffffffffffffffffffffffffffff83818316178352505050509050919050565b615172615683565b60006020838161517e57fe5b0614615197576020828161518e57fe5b06602003820191505b81836020018181525050604051808452600081528281016020016040525082905092915050565b601781116151eb576151e58160058460ff16901b60ff16178461532590919063ffffffff16565b506152fe565b60ff811161522d57615210601860058460ff16901b178461532590919063ffffffff16565b50615227816001856153459092919063ffffffff16565b506152fd565b61ffff811161527057615253601960058460ff16901b178461532590919063ffffffff16565b5061526a816002856153459092919063ffffffff16565b506152fc565b63ffffffff81116152b557615298601a60058460ff16901b178461532590919063ffffffff16565b506152af816004856153459092919063ffffffff16565b506152fb565b67ffffffffffffffff81116152fa576152e1601b60058460ff16901b178461532590919063ffffffff16565b506152f8816008856153459092919063ffffffff16565b505b5b5b5b5b505050565b61530b615683565b61531d83846000015151848551615367565b905092915050565b61532d615683565b61533d8384600001515184615420565b905092915050565b61534d615683565b61535e84856000015151858561546e565b90509392505050565b61536f615683565b825182111561537d57600080fd5b846020015182850111156153a8576153a78560026153a188602001518887016154cf565b026154eb565b5b6000808651805187602083010193508088870111156153c75787860182525b60208701925050505b602084106153f357805182526020820191506020810190506020840393506153d0565b60006001856020036101000a03905080198251168184511681811785525050879350505050949350505050565b615428615683565b83602001518310615445576154448460028660200151026154eb565b5b8351805160208583010184815381861415615461576001820183525b5050508390509392505050565b615476615683565b8460200151848301111561549457615493856002868501026154eb565b5b60006001836101000a03905085518386820101858319825116178152815185880111156154c15784870182525b505085915050949350505050565b6000818311156154e1578290506154e5565b8190505b92915050565b6060826000015190506154fe838361516a565b506155098382615303565b50505050565b828054600181600116156101000203166002900490600052602060002090601f016020900481019282601f1061555057805160ff191683800117855561557e565b8280016001018555821561557e579182015b8281111561557d578251825591602001919060010190615562565b5b50905061558b919061569d565b5090565b6040518060a0016040528060008019168152602001600073ffffffffffffffffffffffffffffffffffffffff16815260200160007bffffffffffffffffffffffffffffffffffffffffffffffffffffffff19168152602001600081526020016155f6615683565b81525090565b828054600181600116156101000203166002900490600052602060002090601f016020900481019282601f106156355780548555615672565b8280016001018555821561567257600052602060002091601f016020900482015b82811115615671578254825591600101919060010190615656565b5b50905061567f919061569d565b5090565b604051806040016040528060608152602001600081525090565b6156bf91905b808211156156bb5760008160009055506001016156a3565b5090565b9056fe687474703a2f2f776f726c6474696d656170692e6f72672f6170692f74696d657a6f6e652f416d65726963612f4e65775f596f726b4d7573742062657420616e20616d6f756e742067726561746572207468616e2030756e61626c6520746f207472616e73666572416e6443616c6c20746f206f7261636c6568747470733a2f2f7777772e62616c6c646f6e746c69652e696f2f6170692f76312f67616d65732f43616e6e6f74206265206d6f7265207468616e204e6261546f6b656e2062616c616e636543616e6e6f74207769746864726177206d6f7265207468616e206163636f756e742062616c616e636568747470733a2f2f7777772e62616c6c646f6e746c69652e696f2f6170692f76312f67616d65733f73746172745f646174653d536f75726365206d75737420626520746865206f7261636c65206f66207468652072657175657374a2646970667358221220e36e3f06175da5cfa0d78ffe24e9e3973539c4bff1371dc7b0a1ff6cf5b57c9164736f6c63430006060033",
  "immutableReferences": {},
  "source": "pragma solidity ^0.6.0;\r\n\r\nimport \"@openzeppelin/contracts/token/ERC20/IERC20.sol\";\r\nimport \"@chainlink/contracts/src/v0.6/ChainlinkClient.sol\";\r\n\r\ncontract NbaBetting is ChainlinkClient {\r\n    uint8 constant private MAX_GAMES = 15;\r\n    uint constant private DATE_FROM_API = 10;\r\n    uint8 constant private INT_ASCII_OFFSET = 48;\r\n    uint8 constant private MAX_DIGITS = 78;\r\n    uint8 constant private DECIMAL_BASE = 10;\r\n    uint8 constant private HALF = 2;\r\n    uint8 constant private HOME_TEAM = 1;\r\n    uint8 constant private VISITOR_TEAM = 2;\r\n    uint8 constant private DOUBLE = 2;\r\n    uint constant private MAX_DEPOSIT = 999999;\r\n\r\n    //Address of Kovan network oracle which contains Get > bytes32 job\r\n    //Alpha Chain - Kovan oracle found on market.link\r\n    address private ORACLE_ADDRESS = 0xAA1DC356dc4B18f30C347798FD5379F3D77ABC5b;\r\n    //Job ID of Get > bytes32 job\r\n    //Found on market.link\r\n    bytes32 constant private BYTES_JOB = \"b7285d4859da4b289c7861db971baf0a\";\r\n    //Job ID of Get > uint256 job\r\n    //Found on market.link\r\n    bytes32 constant private UINT_JOB = \"c7dd72ca14b44f0c9b6cfcd4b7ec0a2c\";\r\n    //LINK payment for Get > bytes32 and Get > uint256 jobs (0.1 LINK)\r\n    //1 LINK  = 1 * (10^18)\r\n    uint constant private LINK_PAYMENT = 100000000000000000;\r\n\r\n    address public owner;\r\n    IERC20 public nbaToken;\r\n    string public date;\r\n    uint public numGames;\r\n\r\n    //Array that contains betters and their attributes\r\n    address[] public betters;\r\n    mapping(address => uint) public nbaTokenBalance;\r\n    mapping(address => bool) public hasBetted;\r\n    mapping(address => uint8[MAX_GAMES]) public gamesBetted;\r\n    mapping(address => uint8[MAX_GAMES]) public teamsBetted;\r\n    mapping(address => uint[MAX_GAMES]) public betAmounts;\r\n\r\n    //Array that contains upcoming games and their attributes\r\n    uint[MAX_GAMES] public gameIds;\r\n    mapping(uint => bool) public isStored;\r\n    mapping(uint => string) public homeTeam;\r\n    mapping(uint => string) public visitorTeam;\r\n    mapping(uint => string) public gameDate;\r\n    mapping(uint => string) public gameTime;\r\n    uint public tempGameId;\r\n    string public tempHomeTeam;\r\n    string public tempVisitorTeam;\r\n    string public tempGameDate;\r\n    string public tempGameTime;\r\n    string public tempStatus;\r\n    uint public tempHomeScore;\r\n    uint public tempVisitorScore;\r\n\r\n    constructor(address _nbaTokenAddress) public {\r\n        nbaToken = IERC20(_nbaTokenAddress);\r\n        owner = msg.sender;\r\n    }\r\n\r\n    /* \r\n     * Allow owner to get future games\r\n     * NBA API instructions: https://www.balldontlie.io/#get-all-games\r\n     * World Clock API: http://worldtimeapi.org/ \r\n     */\r\n    function getGameIds() public onlyOwner {\r\n        //Get time data in EDT\r\n        makeApiCall(BYTES_JOB, this.processTimeData.selector, \r\n                    \"http://worldtimeapi.org/api/timezone/America/New_York\", \r\n                    \"datetime\");\r\n\r\n        //Get next 15 games if possible\r\n        makeApiCall(UINT_JOB, this.gamesToGet.selector, \r\n                    string(abi.encodePacked(\r\n                    \"https://www.balldontlie.io/api/v1/games?start_date=\", \r\n                    date, \"&end_date=\", date)), \"meta.total_count\");\r\n\r\n        //Get game IDs for all games on a given date\r\n        for(uint8 i = 0; i < numGames; i++){\r\n            //Convert i to a string to use in API call\r\n            bytes memory _gameNum = new bytes(1);\r\n            _gameNum[0] = byte(INT_ASCII_OFFSET + i);\r\n            string memory gameNum = string(_gameNum);\r\n            \r\n            makeApiCall(UINT_JOB, this.storeGameId.selector, \r\n                        string(abi.encodePacked(\r\n                        \"https://www.balldontlie.io/api/v1/games?start_date=\", \r\n                        date, \"&end_date=\", date)), string(abi.encodePacked(\r\n                        \"data.\", gameNum, \".id\")));\r\n            gameIds[i] = tempGameId;\r\n        }\r\n    }\r\n\r\n    /* For getGameIds() and getFutureGamesData functions only */\r\n    function processTimeData(bytes32 _requestId, bytes32 _datetime) public \r\n             recordChainlinkFulfillment(_requestId) {\r\n        //Create arrays to parse date from _datetime\r\n        bytes memory datetime = abi.encodePacked(_datetime);\r\n        bytes memory _date = new bytes(DATE_FROM_API);\r\n\r\n        //Extract date from datetime\r\n        for(uint i = 0; i < DATE_FROM_API; i++){\r\n            _date[i] = datetime[i];\r\n        }\r\n\r\n        //Save date\r\n        date = string(_date);\r\n    }\r\n\r\n    /* For getGameIds() function only */\r\n    function gamesToGet(bytes32 _requestId, uint _totalCount) public \r\n             recordChainlinkFulfillment(_requestId) {\r\n        if(_totalCount > MAX_GAMES){\r\n            numGames = MAX_GAMES;\r\n        }else{\r\n            numGames = _totalCount;\r\n        }\r\n    }\r\n\r\n    /* For getGameIds() function only */\r\n    function storeGameId(bytes32 _requestId, uint _id) public \r\n             recordChainlinkFulfillment(_requestId) {\r\n        if(!isStored[_id]){\r\n            tempGameId = _id;\r\n        }\r\n        isStored[_id] = true;\r\n    }\r\n\r\n    /* Get game data from game IDs stored in gameIds array */\r\n    function getFutureGamesData() public onlyOwner {\r\n        for(uint i = 0; i < gameIds.length; i++){\r\n            //Check for invalid game ID\r\n            if(gameIds[i] == 0){\r\n                break;\r\n            }\r\n\r\n            //Convert game ID to string\r\n            uint _gameId = gameIds[i];\r\n            string memory id = convertUintToString(_gameId);\r\n\r\n            //Get home team\r\n            makeApiCall(BYTES_JOB, this.storeHomeData.selector, \r\n                        string(abi.encodePacked(\r\n                        \"https://www.balldontlie.io/api/v1/games/\", id)), \r\n                        \"home_team.full_name\");\r\n            homeTeam[gameIds[i]] = tempHomeTeam;\r\n\r\n            //Get visitor team\r\n            makeApiCall(BYTES_JOB, this.storeVisitorData.selector, \r\n                        string(abi.encodePacked(\r\n                        \"https://www.balldontlie.io/api/v1/games/\", id)), \r\n                        \"visitor_team.full_name\");\r\n            visitorTeam[gameIds[i]] = tempVisitorTeam;\r\n\r\n            //Get game date\r\n            makeApiCall(BYTES_JOB, this.storeDateData.selector, \r\n                        string(abi.encodePacked(\r\n                        \"https://www.balldontlie.io/api/v1/games/\", id)), \r\n                        \"date\");\r\n            gameDate[gameIds[i]] = tempGameDate;\r\n\r\n            //Get game time\r\n            makeApiCall(BYTES_JOB, this.storeTimeData.selector, \r\n                        string(abi.encodePacked(\r\n                        \"https://www.balldontlie.io/api/v1/games/\", id)), \r\n                        \"status\");\r\n            gameTime[gameIds[i]] = tempGameTime;\r\n        }\r\n    }\r\n\r\n    /* For getFutureGamesData() function only */\r\n    function storeHomeData(bytes32 _requestId, bytes32 _homeTeam) public \r\n             recordChainlinkFulfillment(_requestId) {\r\n        bytes memory _tempHomeTeam = abi.encodePacked(_homeTeam);\r\n        tempHomeTeam = string(_tempHomeTeam);\r\n    }\r\n\r\n    /* For getFutureGamesData() function only */\r\n    function storeVisitorData(bytes32 _requestId, bytes32 _visitorTeam) public \r\n             recordChainlinkFulfillment(_requestId) {\r\n        bytes memory _tempVisitorTeam = abi.encodePacked(_visitorTeam);\r\n        tempVisitorTeam = string(_tempVisitorTeam);\r\n    }\r\n\r\n    /* For getFutureGamesData() function only */\r\n    function storeDateData(bytes32 _requestId, bytes32 _date) public \r\n             recordChainlinkFulfillment(_requestId) {\r\n        //Create arrays to parse date from _date\r\n        bytes memory tempDate = abi.encodePacked(_date);\r\n        bytes memory transfer = new bytes(DATE_FROM_API);\r\n\r\n        //Extract date\r\n        for(uint i = 0; i < DATE_FROM_API; i++){\r\n            transfer[i] = tempDate[i];\r\n        }\r\n\r\n        //Save date\r\n        tempGameDate = string(transfer);\r\n    }\r\n\r\n    /* For getFutureGamesData() function only */\r\n    function storeTimeData(bytes32 _requestId, bytes32 _time) public \r\n             recordChainlinkFulfillment(_requestId) {\r\n        bytes memory _tempGameTime = abi.encodePacked(_time);\r\n        tempGameTime = string(_tempGameTime);\r\n    }\r\n\r\n    /* Allow users to deposit or withdraw NbaTokens */\r\n    function depositOrWithdraw(uint _amount) public {\r\n        require(_amount >= (uint(-1) * nbaTokenBalance[msg.sender]), \r\n                \"Cannot withdraw more than account balance\");\r\n        require(_amount <= MAX_DEPOSIT, \"Cannot deposit more than 999999\");\r\n        require(_amount != 0, \"Cannot withdraw or deposit 0\");\r\n\r\n        //Deposit\r\n        if(_amount > 0){\r\n            nbaToken.transferFrom(msg.sender, address(this), _amount);\r\n        }\r\n\r\n        //Withdraw\r\n        if(_amount < 0){\r\n            nbaToken.transfer(msg.sender, _amount);\r\n        }\r\n\r\n        nbaTokenBalance[msg.sender] = nbaTokenBalance[msg.sender] + _amount;\r\n    }\r\n\r\n    /* Allow users to place bets */\r\n    function placeBet(uint8 _game, uint8 _team, uint _amount) public {\r\n        require(_game >= 0 && _game < MAX_GAMES, \"Choose a valid game\");\r\n        require(_team == HOME_TEAM || _team == VISITOR_TEAM, \r\n                \"Choose a valid team\");\r\n        require(_amount > 0, \"Must bet an amount greater than 0\");\r\n        require(_amount <= nbaTokenBalance[msg.sender], \r\n                \"Cannot be more than NbaToken balance\");\r\n\r\n        //Transfer tokens from user\r\n        nbaTokenBalance[msg.sender] = nbaTokenBalance[msg.sender] - _amount;\r\n\r\n        //Update relevant attributes of user\r\n        (gamesBetted[msg.sender])[_game] = 1;\r\n        (teamsBetted[msg.sender])[_game] = _team;\r\n        (betAmounts[msg.sender])[_game] = _amount;\r\n\r\n        //Add user to betters array\r\n        if(!hasBetted[msg.sender]){\r\n            betters.push(msg.sender);\r\n        }\r\n        hasBetted[msg.sender] = true;\r\n    }\r\n\r\n    /* Allow owner to reward betters if they won */\r\n    function rewardBets() public onlyOwner {\r\n        //Search through array of games to see which games are finished\r\n        for(uint i = 0; i < numGames; i++){\r\n            //Get game status\r\n            makeApiCall(BYTES_JOB, this.checkGameStatus.selector, \r\n                        string(abi.encodePacked(\r\n                        \"https://www.balldontlie.io/api/v1/games/\", \r\n                        gameIds[i])), \"status\");\r\n            \r\n            //Check if game is not finished\r\n            if(keccak256(abi.encodePacked(tempStatus)) \r\n               != keccak256(abi.encodePacked(\"Final\"))){\r\n                continue;\r\n            }\r\n\r\n            //Get home team score\r\n            makeApiCall(UINT_JOB, this.homeScore.selector, \r\n                        string(abi.encodePacked(\r\n                        \"https://www.balldontlie.io/api/v1/games/\", \r\n                        gameIds[i])), \"home_team_score\");\r\n\r\n            //Get visitor team score\r\n            makeApiCall(UINT_JOB, this.visitorScore.selector, \r\n                        string(abi.encodePacked(\r\n                        \"https://www.balldontlie.io/api/v1/games/\", \r\n                        gameIds[i])), \"visitor_team_score\");\r\n\r\n            //Determine winning team\r\n            uint winningTeam = 0;\r\n            if(tempHomeScore > tempVisitorScore){\r\n                winningTeam = HOME_TEAM;\r\n            }else{\r\n                winningTeam = VISITOR_TEAM;\r\n            }\r\n\r\n            //Check who betted on this game\r\n            for(uint j = 0; j < betters.length; j++){\r\n                if((gamesBetted[betters[j]])[i] == 0){\r\n                    continue;\r\n                }\r\n\r\n                //Reward winning betters\r\n                if((teamsBetted[betters[j]])[i] == winningTeam){\r\n                    nbaTokenBalance[betters[j]] = nbaTokenBalance[betters[j]] \r\n                                                  + (DOUBLE * \r\n                                                  (betAmounts[betters[j]])[i]);\r\n                }\r\n\r\n                //Remove relevant bet data\r\n                (gamesBetted[betters[j]])[i] = 0;\r\n                (teamsBetted[betters[j]])[i] = 0;\r\n                (betAmounts[betters[j]])[i] = 0;\r\n            }\r\n        }\r\n    }\r\n\r\n    /* For rewardBets() function only */\r\n    function checkGameStatus(bytes32 _requestId, bytes32 _status) public \r\n             recordChainlinkFulfillment(_requestId) {\r\n        bytes memory status = abi.encodePacked(_status);\r\n        tempStatus = string(status);\r\n    }\r\n\r\n    /* For rewardBets() function only */\r\n    function homeScore(bytes32 _requestId, uint _homeScore) public \r\n             recordChainlinkFulfillment(_requestId) {\r\n        tempHomeScore = _homeScore;\r\n    }\r\n\r\n    /* For rewardBets() function only */\r\n    function visitorScore(bytes32 _requestId, uint _visitorScore) public \r\n             recordChainlinkFulfillment(_requestId) {\r\n        tempVisitorScore = _visitorScore;\r\n    }\r\n\r\n    /* Converts a uint to a string */\r\n    function convertUintToString(uint _convert) public pure \r\n        returns (string memory){\r\n        bytes memory convert = new bytes(MAX_DIGITS);\r\n        uint8 leastSignificantDigit = 0;\r\n        uint8 index = 0;\r\n\r\n        //Store digits in reverse\r\n        while(_convert != 0){\r\n            leastSignificantDigit = uint8(_convert % DECIMAL_BASE);\r\n            _convert = _convert / DECIMAL_BASE;\r\n            convert[index] = byte(INT_ASCII_OFFSET + leastSignificantDigit);\r\n            index++;\r\n        }\r\n\r\n        //Reverse digits again to obtain correct string\r\n        byte temp = \"\";\r\n        for(uint8 j = 0; j < index / HALF; j++){\r\n            temp = convert[j];\r\n            convert[j] = convert[index - j - 1];\r\n            convert[index - j - 1] = temp;\r\n        }\r\n\r\n        return string(convert);\r\n    }\r\n\r\n    /* Makes a Chainlink API request */\r\n    function makeApiCall(bytes32 _job, bytes4 _selector, string memory _api, \r\n        string memory _path) public onlyOwner {\r\n        Chainlink.Request memory req = \r\n            buildChainlinkRequest(_job, address(this), _selector);\r\n        req.add(\"get\", _api);\r\n        req.add(\"path\", _path);\r\n        sendChainlinkRequestTo(ORACLE_ADDRESS, req, LINK_PAYMENT);\r\n    }\r\n    \r\n    /* Get home team by game ID */\r\n    function getGameHome(uint _gameId) public view returns (string memory) {\r\n        return homeTeam[_gameId];\r\n    }\r\n\r\n    /* Get visitor team by game ID */\r\n    function getGameVisitor(uint _gameId) public view returns (string memory) {\r\n        return visitorTeam[_gameId];\r\n    }\r\n\r\n    /* Get date by game ID */\r\n    function getGameDate(uint _gameId) public view returns (string memory) {\r\n        return gameDate[_gameId];\r\n    }\r\n\r\n    /* Get time by game ID */\r\n    function getGameTime(uint _gameId) public view returns (string memory) {\r\n        return gameTime[_gameId];\r\n    }\r\n\r\n    /* Restrict access to owner of contract */\r\n    modifier onlyOwner() {\r\n        require(msg.sender == owner);\r\n        _;\r\n    }\r\n}",
  "sourcePath": "C:/Users/Minh Dinh/Desktop/Projects/chainlink-hackathon-project/src/contracts/NbaBetting.sol",
  "compiler": {
    "name": "solc",
    "version": "0.6.6+commit.6c089d02.Emscripten.clang"
  },
  "schemaVersion": "3.2.5",
  "updatedAt": "2020-09-24T05:00:38.988Z",
  "devdoc": {
    "methods": {}
  },
  "userdoc": {
    "methods": {}
  }
}