{
  "contractName": "NbaBetting",
  "abi": [
    {
      "inputs": [
        {
          "internalType": "contract IERC20",
          "name": "_nbaTokenAddress",
          "type": "address"
        }
      ],
      "stateMutability": "nonpayable",
      "type": "constructor"
    },
    {
      "anonymous": false,
      "inputs": [
        {
          "indexed": true,
          "internalType": "bytes32",
          "name": "id",
          "type": "bytes32"
        }
      ],
      "name": "ChainlinkCancelled",
      "type": "event"
    },
    {
      "anonymous": false,
      "inputs": [
        {
          "indexed": true,
          "internalType": "bytes32",
          "name": "id",
          "type": "bytes32"
        }
      ],
      "name": "ChainlinkFulfilled",
      "type": "event"
    },
    {
      "anonymous": false,
      "inputs": [
        {
          "indexed": true,
          "internalType": "bytes32",
          "name": "id",
          "type": "bytes32"
        }
      ],
      "name": "ChainlinkRequested",
      "type": "event"
    },
    {
      "inputs": [
        {
          "internalType": "address",
          "name": "",
          "type": "address"
        }
      ],
      "name": "betAmount1",
      "outputs": [
        {
          "internalType": "uint256",
          "name": "",
          "type": "uint256"
        }
      ],
      "stateMutability": "view",
      "type": "function"
    },
    {
      "inputs": [
        {
          "internalType": "address",
          "name": "",
          "type": "address"
        }
      ],
      "name": "betAmount2",
      "outputs": [
        {
          "internalType": "uint256",
          "name": "",
          "type": "uint256"
        }
      ],
      "stateMutability": "view",
      "type": "function"
    },
    {
      "inputs": [
        {
          "internalType": "address",
          "name": "",
          "type": "address"
        }
      ],
      "name": "betAmount3",
      "outputs": [
        {
          "internalType": "uint256",
          "name": "",
          "type": "uint256"
        }
      ],
      "stateMutability": "view",
      "type": "function"
    },
    {
      "inputs": [
        {
          "internalType": "uint256",
          "name": "",
          "type": "uint256"
        }
      ],
      "name": "betters",
      "outputs": [
        {
          "internalType": "address",
          "name": "",
          "type": "address"
        }
      ],
      "stateMutability": "view",
      "type": "function"
    },
    {
      "inputs": [],
      "name": "date",
      "outputs": [
        {
          "internalType": "string",
          "name": "",
          "type": "string"
        }
      ],
      "stateMutability": "view",
      "type": "function"
    },
    {
      "inputs": [
        {
          "internalType": "uint256",
          "name": "",
          "type": "uint256"
        }
      ],
      "name": "gameDate",
      "outputs": [
        {
          "internalType": "string",
          "name": "",
          "type": "string"
        }
      ],
      "stateMutability": "view",
      "type": "function"
    },
    {
      "inputs": [
        {
          "internalType": "uint256",
          "name": "",
          "type": "uint256"
        }
      ],
      "name": "gameIds",
      "outputs": [
        {
          "internalType": "uint256",
          "name": "",
          "type": "uint256"
        }
      ],
      "stateMutability": "view",
      "type": "function"
    },
    {
      "inputs": [
        {
          "internalType": "uint256",
          "name": "",
          "type": "uint256"
        }
      ],
      "name": "gameTime",
      "outputs": [
        {
          "internalType": "string",
          "name": "",
          "type": "string"
        }
      ],
      "stateMutability": "view",
      "type": "function"
    },
    {
      "inputs": [
        {
          "internalType": "address",
          "name": "",
          "type": "address"
        }
      ],
      "name": "gamesBetted",
      "outputs": [
        {
          "internalType": "uint8",
          "name": "",
          "type": "uint8"
        }
      ],
      "stateMutability": "view",
      "type": "function"
    },
    {
      "inputs": [
        {
          "internalType": "address",
          "name": "",
          "type": "address"
        }
      ],
      "name": "hasBetted",
      "outputs": [
        {
          "internalType": "bool",
          "name": "",
          "type": "bool"
        }
      ],
      "stateMutability": "view",
      "type": "function"
    },
    {
      "inputs": [
        {
          "internalType": "uint256",
          "name": "",
          "type": "uint256"
        }
      ],
      "name": "homeTeam",
      "outputs": [
        {
          "internalType": "string",
          "name": "",
          "type": "string"
        }
      ],
      "stateMutability": "view",
      "type": "function"
    },
    {
      "inputs": [
        {
          "internalType": "uint256",
          "name": "",
          "type": "uint256"
        }
      ],
      "name": "isStored",
      "outputs": [
        {
          "internalType": "bool",
          "name": "",
          "type": "bool"
        }
      ],
      "stateMutability": "view",
      "type": "function"
    },
    {
      "inputs": [],
      "name": "nbaToken",
      "outputs": [
        {
          "internalType": "contract IERC20",
          "name": "",
          "type": "address"
        }
      ],
      "stateMutability": "view",
      "type": "function"
    },
    {
      "inputs": [
        {
          "internalType": "address",
          "name": "",
          "type": "address"
        }
      ],
      "name": "nbaTokenBalance",
      "outputs": [
        {
          "internalType": "uint256",
          "name": "",
          "type": "uint256"
        }
      ],
      "stateMutability": "view",
      "type": "function"
    },
    {
      "inputs": [],
      "name": "numGames",
      "outputs": [
        {
          "internalType": "uint256",
          "name": "",
          "type": "uint256"
        }
      ],
      "stateMutability": "view",
      "type": "function"
    },
    {
      "inputs": [],
      "name": "owner",
      "outputs": [
        {
          "internalType": "address",
          "name": "",
          "type": "address"
        }
      ],
      "stateMutability": "view",
      "type": "function"
    },
    {
      "inputs": [
        {
          "internalType": "address",
          "name": "",
          "type": "address"
        }
      ],
      "name": "teamsBetted",
      "outputs": [
        {
          "internalType": "uint8",
          "name": "",
          "type": "uint8"
        }
      ],
      "stateMutability": "view",
      "type": "function"
    },
    {
      "inputs": [],
      "name": "tempGameDate",
      "outputs": [
        {
          "internalType": "string",
          "name": "",
          "type": "string"
        }
      ],
      "stateMutability": "view",
      "type": "function"
    },
    {
      "inputs": [],
      "name": "tempGameTime",
      "outputs": [
        {
          "internalType": "string",
          "name": "",
          "type": "string"
        }
      ],
      "stateMutability": "view",
      "type": "function"
    },
    {
      "inputs": [],
      "name": "tempHomeTeam",
      "outputs": [
        {
          "internalType": "string",
          "name": "",
          "type": "string"
        }
      ],
      "stateMutability": "view",
      "type": "function"
    },
    {
      "inputs": [],
      "name": "tempVisitorTeam",
      "outputs": [
        {
          "internalType": "string",
          "name": "",
          "type": "string"
        }
      ],
      "stateMutability": "view",
      "type": "function"
    },
    {
      "inputs": [
        {
          "internalType": "uint256",
          "name": "",
          "type": "uint256"
        }
      ],
      "name": "visitorTeam",
      "outputs": [
        {
          "internalType": "string",
          "name": "",
          "type": "string"
        }
      ],
      "stateMutability": "view",
      "type": "function"
    },
    {
      "inputs": [],
      "name": "getGameIds",
      "outputs": [],
      "stateMutability": "nonpayable",
      "type": "function"
    },
    {
      "inputs": [
        {
          "internalType": "bytes32",
          "name": "_requestId",
          "type": "bytes32"
        },
        {
          "internalType": "bytes32",
          "name": "_datetime",
          "type": "bytes32"
        }
      ],
      "name": "processTimeData",
      "outputs": [],
      "stateMutability": "nonpayable",
      "type": "function"
    },
    {
      "inputs": [
        {
          "internalType": "bytes32",
          "name": "_requestId",
          "type": "bytes32"
        },
        {
          "internalType": "uint256",
          "name": "_totalCount",
          "type": "uint256"
        }
      ],
      "name": "gamesToGet",
      "outputs": [],
      "stateMutability": "nonpayable",
      "type": "function"
    },
    {
      "inputs": [
        {
          "internalType": "bytes32",
          "name": "_requestId",
          "type": "bytes32"
        },
        {
          "internalType": "uint256",
          "name": "_id",
          "type": "uint256"
        }
      ],
      "name": "storeGameId",
      "outputs": [],
      "stateMutability": "nonpayable",
      "type": "function"
    },
    {
      "inputs": [],
      "name": "getFutureGamesData",
      "outputs": [],
      "stateMutability": "nonpayable",
      "type": "function"
    },
    {
      "inputs": [
        {
          "internalType": "bytes32",
          "name": "_requestId",
          "type": "bytes32"
        },
        {
          "internalType": "bytes32",
          "name": "_homeTeam",
          "type": "bytes32"
        }
      ],
      "name": "storeHomeData",
      "outputs": [],
      "stateMutability": "nonpayable",
      "type": "function"
    },
    {
      "inputs": [
        {
          "internalType": "bytes32",
          "name": "_requestId",
          "type": "bytes32"
        },
        {
          "internalType": "bytes32",
          "name": "_visitorTeam",
          "type": "bytes32"
        }
      ],
      "name": "storeVisitorData",
      "outputs": [],
      "stateMutability": "nonpayable",
      "type": "function"
    },
    {
      "inputs": [
        {
          "internalType": "bytes32",
          "name": "_requestId",
          "type": "bytes32"
        },
        {
          "internalType": "bytes32",
          "name": "_date",
          "type": "bytes32"
        }
      ],
      "name": "storeDateData",
      "outputs": [],
      "stateMutability": "nonpayable",
      "type": "function"
    },
    {
      "inputs": [
        {
          "internalType": "bytes32",
          "name": "_requestId",
          "type": "bytes32"
        },
        {
          "internalType": "bytes32",
          "name": "_time",
          "type": "bytes32"
        }
      ],
      "name": "storeTimeData",
      "outputs": [],
      "stateMutability": "nonpayable",
      "type": "function"
    },
    {
      "inputs": [
        {
          "internalType": "uint256",
          "name": "_amount",
          "type": "uint256"
        }
      ],
      "name": "depositOrWithdraw",
      "outputs": [],
      "stateMutability": "nonpayable",
      "type": "function"
    },
    {
      "inputs": [
        {
          "internalType": "uint8",
          "name": "_game",
          "type": "uint8"
        },
        {
          "internalType": "uint8",
          "name": "_team",
          "type": "uint8"
        },
        {
          "internalType": "uint256",
          "name": "_amount",
          "type": "uint256"
        }
      ],
      "name": "placeBet",
      "outputs": [],
      "stateMutability": "nonpayable",
      "type": "function"
    },
    {
      "inputs": [
        {
          "internalType": "uint256",
          "name": "_gameId",
          "type": "uint256"
        }
      ],
      "name": "getGameHome",
      "outputs": [
        {
          "internalType": "string",
          "name": "",
          "type": "string"
        }
      ],
      "stateMutability": "view",
      "type": "function"
    },
    {
      "inputs": [
        {
          "internalType": "uint256",
          "name": "_gameId",
          "type": "uint256"
        }
      ],
      "name": "getGameVisitor",
      "outputs": [
        {
          "internalType": "string",
          "name": "",
          "type": "string"
        }
      ],
      "stateMutability": "view",
      "type": "function"
    },
    {
      "inputs": [
        {
          "internalType": "uint256",
          "name": "_gameId",
          "type": "uint256"
        }
      ],
      "name": "getGameDate",
      "outputs": [
        {
          "internalType": "string",
          "name": "",
          "type": "string"
        }
      ],
      "stateMutability": "view",
      "type": "function"
    },
    {
      "inputs": [
        {
          "internalType": "uint256",
          "name": "_gameId",
          "type": "uint256"
        }
      ],
      "name": "getGameTime",
      "outputs": [
        {
          "internalType": "string",
          "name": "",
          "type": "string"
        }
      ],
      "stateMutability": "view",
      "type": "function"
    }
  ],
  "bytecode": "0x6080604052600160045573aa1dc356dc4b18f30c347798fd5379f3d77abc5b600660006101000a81548173ffffffffffffffffffffffffffffffffffffffff021916908373ffffffffffffffffffffffffffffffffffffffff1602179055503480156200006b57600080fd5b5060405162004eab38038062004eab833981810160405260208110156200009157600080fd5b8101908080519060200190929190505050620000b26200013b60201b60201c565b80600860006101000a81548173ffffffffffffffffffffffffffffffffffffffff021916908373ffffffffffffffffffffffffffffffffffffffff16021790555033600760006101000a81548173ffffffffffffffffffffffffffffffffffffffff021916908373ffffffffffffffffffffffffffffffffffffffff1602179055505062000229565b620001e373c89bd4e1632d3a43cb03aaad5262cbe4038bc57173ffffffffffffffffffffffffffffffffffffffff166338cc48316040518163ffffffff1660e01b815260040160206040518083038186803b1580156200019a57600080fd5b505afa158015620001af573d6000803e3d6000fd5b505050506040513d6020811015620001c657600080fd5b8101908080519060200190929190505050620001e560201b60201c565b565b80600260006101000a81548173ffffffffffffffffffffffffffffffffffffffff021916908373ffffffffffffffffffffffffffffffffffffffff16021790555050565b614c7280620002396000396000f3fe608060405234801561001057600080fd5b50600436106102275760003560e01c8063850c70e811610130578063bfbbdd78116100b8578063cfae61d31161007c578063cfae61d314610e78578063d82c13f014610f1f578063e84b193314610f61578063ec5afd7414610f6b578063fcd98a4914610fc757610227565b8063bfbbdd7814610c5b578063c3f010f714610d02578063c806bd5914610d20578063cd32a2b614610da3578063cf4da95f14610dd157610227565b80639f668bba116100ff5780639f668bba14610a375780639fda5d6214610a41578063a69f7a6d14610aaf578063ac22ab0c14610b56578063ace9c3ae14610bfd57610227565b8063850c70e8146108b65780638d5603131461095d5780638da5cb5b146109a357806392b070a6146109ed57610227565b8063399b5c46116101b3578063645dfa2611610182578063645dfa26146106a45780636b747b21146106dc5780636deeebc4146107345780636ea18a0b1461078c5780636f6f28951461080f57610227565b8063399b5c461461051e5780633ef5e8a21461056657806353679290146105e957806357add5161461062157610227565b80632bca776a116101fa5780632bca776a1461032c5780632e458abf146103d35780632f30cc4b1461042b578063323046b1146104635780633871b592146104e657610227565b80630a77e7971461022c57806311ed5d6b146102845780632785f575146102bc5780632b408dac146102f4575b600080fd5b61026e6004803603602081101561024257600080fd5b81019080803573ffffffffffffffffffffffffffffffffffffffff169060200190929190505050611025565b6040518082815260200191505060405180910390f35b6102ba6004803603604081101561029a57600080fd5b81019080803590602001909291908035906020019092919050505061103d565b005b6102f2600480360360408110156102d257600080fd5b810190808035906020019092919080359060200190929190505050611259565b005b61032a6004803603604081101561030a57600080fd5b810190808035906020019092919080359060200190929190505050611475565b005b6103586004803603602081101561034257600080fd5b8101908080359060200190929190505050611610565b6040518080602001828103825283818151815260200191508051906020019080838360005b8381101561039857808201518184015260208101905061037d565b50505050905090810190601f1680156103c55780820380516001836020036101000a031916815260200191505b509250505060405180910390f35b610415600480360360208110156103e957600080fd5b81019080803573ffffffffffffffffffffffffffffffffffffffff1690602001909291905050506116c5565b6040518082815260200191505060405180910390f35b6104616004803603604081101561044157600080fd5b8101908080359060200190929190803590602001909291905050506116dd565b005b61046b611839565b6040518080602001828103825283818151815260200191508051906020019080838360005b838110156104ab578082015181840152602081019050610490565b50505050905090810190601f1680156104d85780820380516001836020036101000a031916815260200191505b509250505060405180910390f35b61051c600480360360408110156104fc57600080fd5b8101908080359060200190929190803590602001909291905050506118d7565b005b6105646004803603606081101561053457600080fd5b81019080803560ff169060200190929190803560ff16906020019092919080359060200190929190505050611a33565b005b61056e611f7a565b6040518080602001828103825283818151815260200191508051906020019080838360005b838110156105ae578082015181840152602081019050610593565b50505050905090810190601f1680156105db5780820380516001836020036101000a031916815260200191505b509250505060405180910390f35b61061f600480360360408110156105ff57600080fd5b810190808035906020019092919080359060200190929190505050612018565b005b610629612156565b6040518080602001828103825283818151815260200191508051906020019080838360005b8381101561066957808201518184015260208101905061064e565b50505050905090810190601f1680156106965780820380516001836020036101000a031916815260200191505b509250505060405180910390f35b6106da600480360360408110156106ba57600080fd5b8101908080359060200190929190803590602001909291905050506121f4565b005b61071e600480360360208110156106f257600080fd5b81019080803573ffffffffffffffffffffffffffffffffffffffff169060200190929190505050612350565b6040518082815260200191505060405180910390f35b6107766004803603602081101561074a57600080fd5b81019080803573ffffffffffffffffffffffffffffffffffffffff169060200190929190505050612368565b6040518082815260200191505060405180910390f35b610794612380565b6040518080602001828103825283818151815260200191508051906020019080838360005b838110156107d45780820151818401526020810190506107b9565b50505050905090810190601f1680156108015780820380516001836020036101000a031916815260200191505b509250505060405180910390f35b61083b6004803603602081101561082557600080fd5b810190808035906020019092919050505061241e565b6040518080602001828103825283818151815260200191508051906020019080838360005b8381101561087b578082015181840152602081019050610860565b50505050905090810190601f1680156108a85780820380516001836020036101000a031916815260200191505b509250505060405180910390f35b6108e2600480360360208110156108cc57600080fd5b81019080803590602001909291905050506124ce565b6040518080602001828103825283818151815260200191508051906020019080838360005b83811015610922578082015181840152602081019050610907565b50505050905090810190601f16801561094f5780820380516001836020036101000a031916815260200191505b509250505060405180910390f35b6109896004803603602081101561097357600080fd5b810190808035906020019092919050505061257e565b604051808215151515815260200191505060405180910390f35b6109ab61259e565b604051808273ffffffffffffffffffffffffffffffffffffffff1673ffffffffffffffffffffffffffffffffffffffff16815260200191505060405180910390f35b6109f56125c4565b604051808273ffffffffffffffffffffffffffffffffffffffff1673ffffffffffffffffffffffffffffffffffffffff16815260200191505060405180910390f35b610a3f6125ea565b005b610a6d60048036036020811015610a5757600080fd5b8101908080359060200190929190505050612c4e565b604051808273ffffffffffffffffffffffffffffffffffffffff1673ffffffffffffffffffffffffffffffffffffffff16815260200191505060405180910390f35b610adb60048036036020811015610ac557600080fd5b8101908080359060200190929190505050612c8a565b6040518080602001828103825283818151815260200191508051906020019080838360005b83811015610b1b578082015181840152602081019050610b00565b50505050905090810190601f168015610b485780820380516001836020036101000a031916815260200191505b509250505060405180910390f35b610b8260048036036020811015610b6c57600080fd5b8101908080359060200190929190505050612d3a565b6040518080602001828103825283818151815260200191508051906020019080838360005b83811015610bc2578082015181840152602081019050610ba7565b50505050905090810190601f168015610bef5780820380516001836020036101000a031916815260200191505b509250505060405180910390f35b610c3f60048036036020811015610c1357600080fd5b81019080803573ffffffffffffffffffffffffffffffffffffffff169060200190929190505050612def565b604051808260ff1660ff16815260200191505060405180910390f35b610c8760048036036020811015610c7157600080fd5b8101908080359060200190929190505050612e0f565b6040518080602001828103825283818151815260200191508051906020019080838360005b83811015610cc7578082015181840152602081019050610cac565b50505050905090810190601f168015610cf45780820380516001836020036101000a031916815260200191505b509250505060405180910390f35b610d0a612ec4565b6040518082815260200191505060405180910390f35b610d28612eca565b6040518080602001828103825283818151815260200191508051906020019080838360005b83811015610d68578082015181840152602081019050610d4d565b50505050905090810190601f168015610d955780820380516001836020036101000a031916815260200191505b509250505060405180910390f35b610dcf60048036036020811015610db957600080fd5b8101908080359060200190929190505050612f68565b005b610dfd60048036036020811015610de757600080fd5b81019080803590602001909291905050506133b3565b6040518080602001828103825283818151815260200191508051906020019080838360005b83811015610e3d578082015181840152602081019050610e22565b50505050905090810190601f168015610e6a5780820380516001836020036101000a031916815260200191505b509250505060405180910390f35b610ea460048036036020811015610e8e57600080fd5b8101908080359060200190929190505050613468565b6040518080602001828103825283818151815260200191508051906020019080838360005b83811015610ee4578082015181840152602081019050610ec9565b50505050905090810190601f168015610f115780820380516001836020036101000a031916815260200191505b509250505060405180910390f35b610f4b60048036036020811015610f3557600080fd5b8101908080359060200190929190505050613518565b6040518082815260200191505060405180910390f35b610f69613539565b005b610fad60048036036020811015610f8157600080fd5b81019080803573ffffffffffffffffffffffffffffffffffffffff169060200190929190505050613fc2565b604051808215151515815260200191505060405180910390f35b61100960048036036020811015610fdd57600080fd5b81019080803573ffffffffffffffffffffffffffffffffffffffff169060200190929190505050613fe2565b604051808260ff1660ff16815260200191505060405180910390f35b60126020528060005260406000206000915090505481565b816005600082815260200190815260200160002060009054906101000a900473ffffffffffffffffffffffffffffffffffffffff1673ffffffffffffffffffffffffffffffffffffffff163373ffffffffffffffffffffffffffffffffffffffff16146110f5576040517f08c379a0000000000000000000000000000000000000000000000000000000008152600401808060200182810382526028815260200180614c156028913960400191505060405180910390fd5b6005600082815260200190815260200160002060006101000a81549073ffffffffffffffffffffffffffffffffffffffff0219169055807f7cc135e0cebb02c3480ae5d74d377283180a2601f8f644edf7987b009316c63a60405160405180910390a26060826040516020018082815260200191505060405160208183030381529060405290506060600a67ffffffffffffffff8111801561119657600080fd5b506040519080825280601f01601f1916602001820160405280156111c95781602001600182028036833780820191505090505b50905060008090505b600a81101561123a578281815181106111e757fe5b602001015160f81c60f81b8282815181106111fe57fe5b60200101907effffffffffffffffffffffffffffffffffffffffffffffffffffffffffffff1916908160001a90535080806001019150506111d2565b508060099080519060200190611251929190614964565b505050505050565b816005600082815260200190815260200160002060009054906101000a900473ffffffffffffffffffffffffffffffffffffffff1673ffffffffffffffffffffffffffffffffffffffff163373ffffffffffffffffffffffffffffffffffffffff1614611311576040517f08c379a0000000000000000000000000000000000000000000000000000000008152600401808060200182810382526028815260200180614c156028913960400191505060405180910390fd5b6005600082815260200190815260200160002060006101000a81549073ffffffffffffffffffffffffffffffffffffffff0219169055807f7cc135e0cebb02c3480ae5d74d377283180a2601f8f644edf7987b009316c63a60405160405180910390a26060826040516020018082815260200191505060405160208183030381529060405290506060600a67ffffffffffffffff811180156113b257600080fd5b506040519080825280601f01601f1916602001820160405280156113e55781602001600182028036833780820191505090505b50905060008090505b600a8110156114565782818151811061140357fe5b602001015160f81c60f81b82828151811061141a57fe5b60200101907effffffffffffffffffffffffffffffffffffffffffffffffffffffffffffff1916908160001a90535080806001019150506113ee565b50806019908051906020019061146d929190614964565b505050505050565b816005600082815260200190815260200160002060009054906101000a900473ffffffffffffffffffffffffffffffffffffffff1673ffffffffffffffffffffffffffffffffffffffff163373ffffffffffffffffffffffffffffffffffffffff161461152d576040517f08c379a0000000000000000000000000000000000000000000000000000000008152600401808060200182810382526028815260200180614c156028913960400191505060405180910390fd5b6005600082815260200190815260200160002060006101000a81549073ffffffffffffffffffffffffffffffffffffffff0219169055807f7cc135e0cebb02c3480ae5d74d377283180a2601f8f644edf7987b009316c63a60405160405180910390a26014600083815260200190815260200160002060009054906101000a900460ff166115df5760138290806001815401808255809150506001900390600052602060002001600090919091909150555b60016014600084815260200190815260200160002060006101000a81548160ff021916908315150217905550505050565b6060601660008381526020019081526020016000208054600181600116156101000203166002900480601f0160208091040260200160405190810160405280929190818152602001828054600181600116156101000203166002900480156116b95780601f1061168e576101008083540402835291602001916116b9565b820191906000526020600020905b81548152906001019060200180831161169c57829003601f168201915b50505050509050919050565b60106020528060005260406000206000915090505481565b816005600082815260200190815260200160002060009054906101000a900473ffffffffffffffffffffffffffffffffffffffff1673ffffffffffffffffffffffffffffffffffffffff163373ffffffffffffffffffffffffffffffffffffffff1614611795576040517f08c379a0000000000000000000000000000000000000000000000000000000008152600401808060200182810382526028815260200180614c156028913960400191505060405180910390fd5b6005600082815260200190815260200160002060006101000a81549073ffffffffffffffffffffffffffffffffffffffff0219169055807f7cc135e0cebb02c3480ae5d74d377283180a2601f8f644edf7987b009316c63a60405160405180910390a26060826040516020018082815260200191505060405160208183030381529060405290508060159080519060200190611832929190614964565b5050505050565b60098054600181600116156101000203166002900480601f0160208091040260200160405190810160405280929190818152602001828054600181600116156101000203166002900480156118cf5780601f106118a4576101008083540402835291602001916118cf565b820191906000526020600020905b8154815290600101906020018083116118b257829003601f168201915b505050505081565b816005600082815260200190815260200160002060009054906101000a900473ffffffffffffffffffffffffffffffffffffffff1673ffffffffffffffffffffffffffffffffffffffff163373ffffffffffffffffffffffffffffffffffffffff161461198f576040517f08c379a0000000000000000000000000000000000000000000000000000000008152600401808060200182810382526028815260200180614c156028913960400191505060405180910390fd5b6005600082815260200190815260200160002060006101000a81549073ffffffffffffffffffffffffffffffffffffffff0219169055807f7cc135e0cebb02c3480ae5d74d377283180a2601f8f644edf7987b009316c63a60405160405180910390a26060826040516020018082815260200191505060405160208183030381529060405290508060179080519060200190611a2c929190614964565b5050505050565b60008360ff1610158015611a4d5750600360ff168360ff16105b611abf576040517f08c379a00000000000000000000000000000000000000000000000000000000081526004018080602001828103825260138152602001807f43686f6f736520612076616c69642067616d650000000000000000000000000081525060200191505060405180910390fd5b60008260ff161480611ad4575060018260ff16145b611b46576040517f08c379a00000000000000000000000000000000000000000000000000000000081526004018080602001828103825260138152602001807f43686f6f736520612076616c6964207465616d0000000000000000000000000081525060200191505060405180910390fd5b60008111611b9f576040517f08c379a0000000000000000000000000000000000000000000000000000000008152600401808060200182810382526021815260200180614b4d6021913960400191505060405180910390fd5b80600c60003373ffffffffffffffffffffffffffffffffffffffff1673ffffffffffffffffffffffffffffffffffffffff1681526020019081526020016000205403600c60003373ffffffffffffffffffffffffffffffffffffffff1673ffffffffffffffffffffffffffffffffffffffff1681526020019081526020016000208190555082600a02600e60003373ffffffffffffffffffffffffffffffffffffffff1673ffffffffffffffffffffffffffffffffffffffff16815260200190815260200160002060009054906101000a900460ff1601600e60003373ffffffffffffffffffffffffffffffffffffffff1673ffffffffffffffffffffffffffffffffffffffff16815260200190815260200160002060006101000a81548160ff021916908360ff16021790555082600a830202600f60003373ffffffffffffffffffffffffffffffffffffffff1673ffffffffffffffffffffffffffffffffffffffff16815260200190815260200160002060009054906101000a900460ff1601600f60003373ffffffffffffffffffffffffffffffffffffffff1673ffffffffffffffffffffffffffffffffffffffff16815260200190815260200160002060006101000a81548160ff021916908360ff16021790555060008360ff161415611dcd5780601060003373ffffffffffffffffffffffffffffffffffffffff1673ffffffffffffffffffffffffffffffffffffffff16815260200190815260200160002081905550611e68565b60018360ff161415611e225780601160003373ffffffffffffffffffffffffffffffffffffffff1673ffffffffffffffffffffffffffffffffffffffff16815260200190815260200160002081905550611e67565b80601260003373ffffffffffffffffffffffffffffffffffffffff1673ffffffffffffffffffffffffffffffffffffffff168152602001908152602001600020819055505b5b600d60003373ffffffffffffffffffffffffffffffffffffffff1673ffffffffffffffffffffffffffffffffffffffff16815260200190815260200160002060009054906101000a900460ff16611f1d57600b339080600181540180825580915050600190039060005260206000200160009091909190916101000a81548173ffffffffffffffffffffffffffffffffffffffff021916908373ffffffffffffffffffffffffffffffffffffffff1602179055505b6001600d60003373ffffffffffffffffffffffffffffffffffffffff1673ffffffffffffffffffffffffffffffffffffffff16815260200190815260200160002060006101000a81548160ff021916908315150217905550505050565b60158054600181600116156101000203166002900480601f0160208091040260200160405190810160405280929190818152602001828054600181600116156101000203166002900480156120105780601f10611fe557610100808354040283529160200191612010565b820191906000526020600020905b815481529060010190602001808311611ff357829003601f168201915b505050505081565b816005600082815260200190815260200160002060009054906101000a900473ffffffffffffffffffffffffffffffffffffffff1673ffffffffffffffffffffffffffffffffffffffff163373ffffffffffffffffffffffffffffffffffffffff16146120d0576040517f08c379a0000000000000000000000000000000000000000000000000000000008152600401808060200182810382526028815260200180614c156028913960400191505060405180910390fd5b6005600082815260200190815260200160002060006101000a81549073ffffffffffffffffffffffffffffffffffffffff0219169055807f7cc135e0cebb02c3480ae5d74d377283180a2601f8f644edf7987b009316c63a60405160405180910390a2600f82111561214957600f600a81905550612151565b81600a819055505b505050565b60198054600181600116156101000203166002900480601f0160208091040260200160405190810160405280929190818152602001828054600181600116156101000203166002900480156121ec5780601f106121c1576101008083540402835291602001916121ec565b820191906000526020600020905b8154815290600101906020018083116121cf57829003601f168201915b505050505081565b816005600082815260200190815260200160002060009054906101000a900473ffffffffffffffffffffffffffffffffffffffff1673ffffffffffffffffffffffffffffffffffffffff163373ffffffffffffffffffffffffffffffffffffffff16146122ac576040517f08c379a0000000000000000000000000000000000000000000000000000000008152600401808060200182810382526028815260200180614c156028913960400191505060405180910390fd5b6005600082815260200190815260200160002060006101000a81549073ffffffffffffffffffffffffffffffffffffffff0219169055807f7cc135e0cebb02c3480ae5d74d377283180a2601f8f644edf7987b009316c63a60405160405180910390a260608260405160200180828152602001915050604051602081830303815290604052905080601b9080519060200190612349929190614964565b5050505050565b60116020528060005260406000206000915090505481565b600c6020528060005260406000206000915090505481565b60178054600181600116156101000203166002900480601f0160208091040260200160405190810160405280929190818152602001828054600181600116156101000203166002900480156124165780601f106123eb57610100808354040283529160200191612416565b820191906000526020600020905b8154815290600101906020018083116123f957829003601f168201915b505050505081565b60166020528060005260406000206000915090508054600181600116156101000203166002900480601f0160208091040260200160405190810160405280929190818152602001828054600181600116156101000203166002900480156124c65780601f1061249b576101008083540402835291602001916124c6565b820191906000526020600020905b8154815290600101906020018083116124a957829003601f168201915b505050505081565b60186020528060005260406000206000915090508054600181600116156101000203166002900480601f0160208091040260200160405190810160405280929190818152602001828054600181600116156101000203166002900480156125765780601f1061254b57610100808354040283529160200191612576565b820191906000526020600020905b81548152906001019060200180831161255957829003601f168201915b505050505081565b60146020528060005260406000206000915054906101000a900460ff1681565b600760009054906101000a900473ffffffffffffffffffffffffffffffffffffffff1681565b600860009054906101000a900473ffffffffffffffffffffffffffffffffffffffff1681565b600760009054906101000a900473ffffffffffffffffffffffffffffffffffffffff1673ffffffffffffffffffffffffffffffffffffffff163373ffffffffffffffffffffffffffffffffffffffff161461264457600080fd5b61264c6149e4565b61267e7f6237323835643438353964613462323839633738363164623937316261663061306311ed5d6b60e01b614002565b90506126e26040518060400160405280600381526020017f6765740000000000000000000000000000000000000000000000000000000000815250604051806060016040528060358152602001614b1860359139836140339092919063ffffffff16565b6127616040518060400160405280600481526020017f70617468000000000000000000000000000000000000000000000000000000008152506040518060400160405280600881526020017f6461746574696d65000000000000000000000000000000000000000000000000815250836140339092919063ffffffff16565b612796600660009054906101000a900473ffffffffffffffffffffffffffffffffffffffff168267016345785d8a0000614066565b5061279f6149e4565b6127d17f633764643732636131346234346630633962366366636434623765633061326330635367929060e01b614002565b905061289b6040518060400160405280600381526020017f676574000000000000000000000000000000000000000000000000000000000081525060096040516020018080614be260339139603301828054600181600116156101000203166002900480156128775780601f10612855576101008083540402835291820191612877565b820191906000526020600020905b815481529060010190602001808311612863575b5050915050604051602081830303815290604052836140339092919063ffffffff16565b61291a6040518060400160405280600481526020017f70617468000000000000000000000000000000000000000000000000000000008152506040518060400160405280601081526020017f6d6574612e746f74616c5f636f756e7400000000000000000000000000000000815250836140339092919063ffffffff16565b61294f600660009054906101000a900473ffffffffffffffffffffffffffffffffffffffff168267016345785d8a0000614066565b5060008090505b600a548160ff161015612c49576060600167ffffffffffffffff8111801561297d57600080fd5b506040519080825280601f01601f1916602001820160405280156129b05781602001600182028036833780820191505090505b5090508160300160f81b816000815181106129c757fe5b60200101907effffffffffffffffffffffffffffffffffffffffffffffffffffffffffffff1916908160001a9053506060819050612a036149e4565b612a357f633764643732636131346234346630633962366366636434623765633061326330632b408dac60e01b614002565b9050612aff6040518060400160405280600381526020017f676574000000000000000000000000000000000000000000000000000000000081525060096040516020018080614be26033913960330182805460018160011615610100020316600290048015612adb5780601f10612ab9576101008083540402835291820191612adb565b820191906000526020600020905b815481529060010190602001808311612ac7575b5050915050604051602081830303815290604052836140339092919063ffffffff16565b612c036040518060400160405280600481526020017f70617468000000000000000000000000000000000000000000000000000000008152508360405160200180807f646174612e00000000000000000000000000000000000000000000000000000081525060050182805190602001908083835b60208310612b975780518252602082019150602081019050602083039250612b74565b6001836020036101000a038019825116818451168082178552505050505050905001807f2e69640000000000000000000000000000000000000000000000000000000000815250600301915050604051602081830303815290604052836140339092919063ffffffff16565b612c38600660009054906101000a900473ffffffffffffffffffffffffffffffffffffffff168267016345785d8a0000614066565b505050508080600101915050612956565b505050565b600b8181548110612c5b57fe5b906000526020600020016000915054906101000a900473ffffffffffffffffffffffffffffffffffffffff1681565b601a6020528060005260406000206000915090508054600181600116156101000203166002900480601f016020809104026020016040519081016040528092919081815260200182805460018160011615610100020316600290048015612d325780601f10612d0757610100808354040283529160200191612d32565b820191906000526020600020905b815481529060010190602001808311612d1557829003601f168201915b505050505081565b6060601860008381526020019081526020016000208054600181600116156101000203166002900480601f016020809104026020016040519081016040528092919081815260200182805460018160011615610100020316600290048015612de35780601f10612db857610100808354040283529160200191612de3565b820191906000526020600020905b815481529060010190602001808311612dc657829003601f168201915b50505050509050919050565b600f6020528060005260406000206000915054906101000a900460ff1681565b6060601c60008381526020019081526020016000208054600181600116156101000203166002900480601f016020809104026020016040519081016040528092919081815260200182805460018160011615610100020316600290048015612eb85780601f10612e8d57610100808354040283529160200191612eb8565b820191906000526020600020905b815481529060010190602001808311612e9b57829003601f168201915b50505050509050919050565b600a5481565b601b8054600181600116156101000203166002900480601f016020809104026020016040519081016040528092919081815260200182805460018160011615610100020316600290048015612f605780601f10612f3557610100808354040283529160200191612f60565b820191906000526020600020905b815481529060010190602001808311612f4357829003601f168201915b505050505081565b600c60003373ffffffffffffffffffffffffffffffffffffffff1673ffffffffffffffffffffffffffffffffffffffff168152602001908152602001600020547fffffffffffffffffffffffffffffffffffffffffffffffffffffffffffffffff02811015613022576040517f08c379a0000000000000000000000000000000000000000000000000000000008152600401808060200182810382526029815260200180614bb96029913960400191505060405180910390fd5b69d3c20dee1639f99c00008111156130a2576040517f08c379a000000000000000000000000000000000000000000000000000000000815260040180806020018281038252601f8152602001807f43616e6e6f74206465706f736974206d6f7265207468616e203939393939390081525060200191505060405180910390fd5b6000811415613119576040517f08c379a000000000000000000000000000000000000000000000000000000000815260040180806020018281038252601c8152602001807f43616e6e6f74207769746864726177206f72206465706f73697420300000000081525060200191505060405180910390fd5b600081111561323c57600860009054906101000a900473ffffffffffffffffffffffffffffffffffffffff1673ffffffffffffffffffffffffffffffffffffffff166323b872dd3330846040518463ffffffff1660e01b8152600401808473ffffffffffffffffffffffffffffffffffffffff1673ffffffffffffffffffffffffffffffffffffffff1681526020018373ffffffffffffffffffffffffffffffffffffffff1673ffffffffffffffffffffffffffffffffffffffff1681526020018281526020019350505050602060405180830381600087803b1580156131ff57600080fd5b505af1158015613213573d6000803e3d6000fd5b505050506040513d602081101561322957600080fd5b8101908080519060200190929190505050505b600081101561332b57600860009054906101000a900473ffffffffffffffffffffffffffffffffffffffff1673ffffffffffffffffffffffffffffffffffffffff1663a9059cbb33836040518363ffffffff1660e01b8152600401808373ffffffffffffffffffffffffffffffffffffffff1673ffffffffffffffffffffffffffffffffffffffff16815260200182815260200192505050602060405180830381600087803b1580156132ee57600080fd5b505af1158015613302573d6000803e3d6000fd5b505050506040513d602081101561331857600080fd5b8101908080519060200190929190505050505b80600c60003373ffffffffffffffffffffffffffffffffffffffff1673ffffffffffffffffffffffffffffffffffffffff1681526020019081526020016000205401600c60003373ffffffffffffffffffffffffffffffffffffffff1673ffffffffffffffffffffffffffffffffffffffff1681526020019081526020016000208190555050565b6060601a60008381526020019081526020016000208054600181600116156101000203166002900480601f01602080910402602001604051908101604052809291908181526020018280546001816001161561010002031660029004801561345c5780601f106134315761010080835404028352916020019161345c565b820191906000526020600020905b81548152906001019060200180831161343f57829003601f168201915b50505050509050919050565b601c6020528060005260406000206000915090508054600181600116156101000203166002900480601f0160208091040260200160405190810160405280929190818152602001828054600181600116156101000203166002900480156135105780601f106134e557610100808354040283529160200191613510565b820191906000526020600020905b8154815290600101906020018083116134f357829003601f168201915b505050505081565b6013818154811061352557fe5b906000526020600020016000915090505481565b600760009054906101000a900473ffffffffffffffffffffffffffffffffffffffff1673ffffffffffffffffffffffffffffffffffffffff163373ffffffffffffffffffffffffffffffffffffffff161461359357600080fd5b60008090505b601380549050811015613fbf576000601382815481106135b557fe5b906000526020600020015414156135cb57613fbf565b6000601382815481106135da57fe5b906000526020600020015490506060604e60ff1667ffffffffffffffff8111801561360457600080fd5b506040519080825280601f01601f1916602001820160405280156136375781602001600182028036833780820191505090505b509050600080905060008090505b600084146136bf57600a60ff16848161365a57fe5b069150600a60ff16848161366a57fe5b0493508160300160f81b838260ff168151811061368357fe5b60200101907effffffffffffffffffffffffffffffffffffffffffffffffffffffffffffff1916908160001a9053508080600101915050613645565b600080905060008090505b600260ff168360ff16816136da57fe5b0460ff168160ff1610156137b257848160ff16815181106136f757fe5b602001015160f81c60f81b91508460018285030360ff168151811061371857fe5b602001015160f81c60f81b858260ff168151811061373257fe5b60200101907effffffffffffffffffffffffffffffffffffffffffffffffffffffffffffff1916908160001a905350818560018386030360ff168151811061377657fe5b60200101907effffffffffffffffffffffffffffffffffffffffffffffffffffffffffffff1916908160001a90535080806001019150506136ca565b5060608490506137c06149e4565b6137f27f623732383564343835396461346232383963373836316462393731626166306130632f30cc4b60e01b614002565b90506138b36040518060400160405280600381526020017f6765740000000000000000000000000000000000000000000000000000000000815250836040516020018080614b916028913960280182805190602001908083835b6020831061386f578051825260208201915060208101905060208303925061384c565b6001836020036101000a038019825116818451168082178552505050505050905001915050604051602081830303815290604052836140339092919063ffffffff16565b6139326040518060400160405280600481526020017f70617468000000000000000000000000000000000000000000000000000000008152506040518060400160405280601381526020017f686f6d655f7465616d2e66756c6c5f6e616d6500000000000000000000000000815250836140339092919063ffffffff16565b613967600660009054906101000a900473ffffffffffffffffffffffffffffffffffffffff168267016345785d8a0000614066565b5060156016600060138b8154811061397b57fe5b9060005260206000200154815260200190815260200160002090805460018160011615610100020316600290046139b3929190614a51565b506139bc6149e4565b6139ee7f623732383564343835396461346232383963373836316462393731626166306130633871b59260e01b614002565b9050613aaf6040518060400160405280600381526020017f6765740000000000000000000000000000000000000000000000000000000000815250846040516020018080614b916028913960280182805190602001908083835b60208310613a6b5780518252602082019150602081019050602083039250613a48565b6001836020036101000a038019825116818451168082178552505050505050905001915050604051602081830303815290604052836140339092919063ffffffff16565b613b2e6040518060400160405280600481526020017f70617468000000000000000000000000000000000000000000000000000000008152506040518060400160405280601681526020017f76697369746f725f7465616d2e66756c6c5f6e616d6500000000000000000000815250836140339092919063ffffffff16565b613b63600660009054906101000a900473ffffffffffffffffffffffffffffffffffffffff168267016345785d8a0000614066565b5060176018600060138c81548110613b7757fe5b906000526020600020015481526020019081526020016000209080546001816001161561010002031660029004613baf929190614a51565b50613bb86149e4565b613bea7f623732383564343835396461346232383963373836316462393731626166306130632785f57560e01b614002565b9050613cab6040518060400160405280600381526020017f6765740000000000000000000000000000000000000000000000000000000000815250856040516020018080614b916028913960280182805190602001908083835b60208310613c675780518252602082019150602081019050602083039250613c44565b6001836020036101000a038019825116818451168082178552505050505050905001915050604051602081830303815290604052836140339092919063ffffffff16565b613d2a6040518060400160405280600481526020017f70617468000000000000000000000000000000000000000000000000000000008152506040518060400160405280600481526020017f6461746500000000000000000000000000000000000000000000000000000000815250836140339092919063ffffffff16565b613d5f600660009054906101000a900473ffffffffffffffffffffffffffffffffffffffff168267016345785d8a0000614066565b506019601a600060138d81548110613d7357fe5b906000526020600020015481526020019081526020016000209080546001816001161561010002031660029004613dab929190614a51565b50613db46149e4565b613de67f62373238356434383539646134623238396337383631646239373162616630613063645dfa2660e01b614002565b9050613ea76040518060400160405280600381526020017f6765740000000000000000000000000000000000000000000000000000000000815250866040516020018080614b916028913960280182805190602001908083835b60208310613e635780518252602082019150602081019050602083039250613e40565b6001836020036101000a038019825116818451168082178552505050505050905001915050604051602081830303815290604052836140339092919063ffffffff16565b613f266040518060400160405280600481526020017f70617468000000000000000000000000000000000000000000000000000000008152506040518060400160405280600681526020017f7374617475730000000000000000000000000000000000000000000000000000815250836140339092919063ffffffff16565b613f5b600660009054906101000a900473ffffffffffffffffffffffffffffffffffffffff168267016345785d8a0000614066565b50601b601c600060138e81548110613f6f57fe5b906000526020600020015481526020019081526020016000209080546001816001161561010002031660029004613fa7929190614a51565b50505050505050505050508080600101915050613599565b50565b600d6020528060005260406000206000915054906101000a900460ff1681565b600e6020528060005260406000206000915054906101000a900460ff1681565b61400a6149e4565b6140126149e4565b6140298585858461431e909392919063ffffffff16565b9150509392505050565b61404a8284608001516143ce90919063ffffffff16565b6140618184608001516143ce90919063ffffffff16565b505050565b600030600454604051602001808373ffffffffffffffffffffffffffffffffffffffff1673ffffffffffffffffffffffffffffffffffffffff1660601b815260140182815260200192505050604051602081830303815290604052805190602001209050600454836060018181525050836005600083815260200190815260200160002060006101000a81548173ffffffffffffffffffffffffffffffffffffffff021916908373ffffffffffffffffffffffffffffffffffffffff160217905550807fb5e6e01e79f91267dc17b4e6314d5d4d03593d2ceee0fbb452b750bd70ea5af960405160405180910390a2600260009054906101000a900473ffffffffffffffffffffffffffffffffffffffff1673ffffffffffffffffffffffffffffffffffffffff16634000aea0858461419e876143f3565b6040518463ffffffff1660e01b8152600401808473ffffffffffffffffffffffffffffffffffffffff1673ffffffffffffffffffffffffffffffffffffffff16815260200183815260200180602001828103825283818151815260200191508051906020019080838360005b8381101561422557808201518184015260208101905061420a565b50505050905090810190601f1680156142525780820380516001836020036101000a031916815260200191505b50945050505050602060405180830381600087803b15801561427357600080fd5b505af1158015614287573d6000803e3d6000fd5b505050506040513d602081101561429d57600080fd5b8101908080519060200190929190505050614303576040517f08c379a0000000000000000000000000000000000000000000000000000000008152600401808060200182810382526023815260200180614b6e6023913960400191505060405180910390fd5b60016004600082825401925050819055508090509392505050565b6143266149e4565b61433685608001516101006145bf565b508385600001818152505082856020019073ffffffffffffffffffffffffffffffffffffffff16908173ffffffffffffffffffffffffffffffffffffffff16815250508185604001907bffffffffffffffffffffffffffffffffffffffffffffffffffffffff191690817bffffffffffffffffffffffffffffffffffffffffffffffffffffffff191681525050849050949350505050565b6143db8260038351614613565b6143ee818361475890919063ffffffff16565b505050565b6060634042994660e01b60008084600001518560200151866040015187606001516001896080015160000151604051602401808973ffffffffffffffffffffffffffffffffffffffff1673ffffffffffffffffffffffffffffffffffffffff1681526020018881526020018781526020018673ffffffffffffffffffffffffffffffffffffffff1673ffffffffffffffffffffffffffffffffffffffff168152602001857bffffffffffffffffffffffffffffffffffffffffffffffffffffffff19167bffffffffffffffffffffffffffffffffffffffffffffffffffffffff1916815260200184815260200183815260200180602001828103825283818151815260200191508051906020019080838360005b83811015614522578082015181840152602081019050614507565b50505050905090810190601f16801561454f5780820380516001836020036101000a031916815260200191505b509950505050505050505050604051602081830303815290604052907bffffffffffffffffffffffffffffffffffffffffffffffffffffffff19166020820180517bffffffffffffffffffffffffffffffffffffffffffffffffffffffff83818316178352505050509050919050565b6145c7614ad8565b6000602083816145d357fe5b06146145ec57602082816145e357fe5b06602003820191505b81836020018181525050604051808452600081528281016020016040525082905092915050565b601781116146405761463a8160058460ff16901b60ff16178461477a90919063ffffffff16565b50614753565b60ff811161468257614665601860058460ff16901b178461477a90919063ffffffff16565b5061467c8160018561479a9092919063ffffffff16565b50614752565b61ffff81116146c5576146a8601960058460ff16901b178461477a90919063ffffffff16565b506146bf8160028561479a9092919063ffffffff16565b50614751565b63ffffffff811161470a576146ed601a60058460ff16901b178461477a90919063ffffffff16565b506147048160048561479a9092919063ffffffff16565b50614750565b67ffffffffffffffff811161474f57614736601b60058460ff16901b178461477a90919063ffffffff16565b5061474d8160088561479a9092919063ffffffff16565b505b5b5b5b5b505050565b614760614ad8565b614772838460000151518485516147bc565b905092915050565b614782614ad8565b6147928384600001515184614875565b905092915050565b6147a2614ad8565b6147b38485600001515185856148c3565b90509392505050565b6147c4614ad8565b82518211156147d257600080fd5b846020015182850111156147fd576147fc8560026147f68860200151888701614924565b02614940565b5b60008086518051876020830101935080888701111561481c5787860182525b60208701925050505b602084106148485780518252602082019150602081019050602084039350614825565b60006001856020036101000a03905080198251168184511681811785525050879350505050949350505050565b61487d614ad8565b8360200151831061489a57614899846002866020015102614940565b5b83518051602085830101848153818614156148b6576001820183525b5050508390509392505050565b6148cb614ad8565b846020015184830111156148e9576148e885600286850102614940565b5b60006001836101000a03905085518386820101858319825116178152815185880111156149165784870182525b505085915050949350505050565b6000818311156149365782905061493a565b8190505b92915050565b60608260000151905061495383836145bf565b5061495e8382614758565b50505050565b828054600181600116156101000203166002900490600052602060002090601f016020900481019282601f106149a557805160ff19168380011785556149d3565b828001600101855582156149d3579182015b828111156149d25782518255916020019190600101906149b7565b5b5090506149e09190614af2565b5090565b6040518060a0016040528060008019168152602001600073ffffffffffffffffffffffffffffffffffffffff16815260200160007bffffffffffffffffffffffffffffffffffffffffffffffffffffffff1916815260200160008152602001614a4b614ad8565b81525090565b828054600181600116156101000203166002900490600052602060002090601f016020900481019282601f10614a8a5780548555614ac7565b82800160010185558215614ac757600052602060002091601f016020900482015b82811115614ac6578254825591600101919060010190614aab565b5b509050614ad49190614af2565b5090565b604051806040016040528060608152602001600081525090565b614b1491905b80821115614b10576000816000905550600101614af8565b5090565b9056fe687474703a2f2f776f726c6474696d656170692e6f72672f6170692f74696d657a6f6e652f416d65726963612f4e65775f596f726b4d7573742062657420616e20616d6f756e742067726561746572207468616e2030756e61626c6520746f207472616e73666572416e6443616c6c20746f206f7261636c6568747470733a2f2f7777772e62616c6c646f6e746c69652e696f2f6170692f76312f67616d65732f43616e6e6f74207769746864726177206d6f7265207468616e206163636f756e742062616c616e636568747470733a2f2f7777772e62616c6c646f6e746c69652e696f2f6170692f76312f67616d65733f73746172745f646174653d536f75726365206d75737420626520746865206f7261636c65206f66207468652072657175657374a26469706673582212202318efcdd13e8a298f65e583b9437af6f4ec8b8f30d04f2b6d258e71ab351e2564736f6c63430006060033",
  "immutableReferences": {},
  "source": "pragma solidity ^0.6.0;\r\n\r\nimport \"@openzeppelin/contracts/token/ERC20/IERC20.sol\";\r\nimport \"@chainlink/contracts/src/v0.6/ChainlinkClient.sol\";\r\n\r\ncontract NbaBetting is ChainlinkClient {\r\n    uint8 constant private MAX_GAMES = 3; //Only 3 future games to bet on\r\n    uint8 constant private GAME_OFFSET = 10;\r\n    uint constant private DATE_FROM_API = 10;\r\n    uint constant private FUTURE_GAMES = 15;\r\n    uint8 constant private INT_ASCII_OFFSET = 48;\r\n    uint8 constant private MAX_DIGITS = 78;\r\n    uint8 constant private DECIMAL_BASE = 10;\r\n    uint8 constant private HALF = 2;\r\n    uint constant private MAX_DEPOSIT = 999999000000000000000000;\r\n\r\n    //Address of Kovan network oracle which contains Get > bytes32 job\r\n    //Alpha Chain - Kovan oracle found on market.link\r\n    address private ORACLE_ADDRESS = 0xAA1DC356dc4B18f30C347798FD5379F3D77ABC5b;\r\n    //Job ID of Get > bytes32 job\r\n    //Found on market.link\r\n    bytes32 constant private BYTES_JOB = \"b7285d4859da4b289c7861db971baf0a\";\r\n    //Job ID of Get > uint256 job\r\n    //Found on market.link\r\n    bytes32 constant private UINT_JOB = \"c7dd72ca14b44f0c9b6cfcd4b7ec0a2c\";\r\n    //LINK payment for Get > bytes32 and Get > uint256 jobs (0.1 LINK)\r\n    //1 LINK  = 1 * (10^18)\r\n    uint constant private LINK_PAYMENT = 100000000000000000;\r\n\r\n    address public owner;\r\n    IERC20 public nbaToken;\r\n    string public date;\r\n    uint public numGames;\r\n\r\n    //Array that contains betters and their attributes\r\n    address[] public betters;\r\n    mapping(address => uint) public nbaTokenBalance;\r\n    mapping(address => bool) public hasBetted;\r\n    mapping(address => uint8) public gamesBetted;\r\n    mapping(address => uint8) public teamsBetted;\r\n    mapping(address => uint) public betAmount1;\r\n    mapping(address => uint) public betAmount2;\r\n    mapping(address => uint) public betAmount3;\r\n\r\n    //Array that contains upcoming games and their attributes\r\n    uint[] public gameIds;\r\n    mapping(uint => bool) public isStored;\r\n    string public tempHomeTeam;\r\n    mapping(uint => string) public homeTeam;\r\n    string public tempVisitorTeam;\r\n    mapping(uint => string) public visitorTeam;\r\n    string public tempGameDate;\r\n    mapping(uint => string) public gameDate;\r\n    string public tempGameTime;\r\n    mapping(uint => string) public gameTime;\r\n\r\n    constructor(IERC20 _nbaTokenAddress) public {\r\n        setPublicChainlinkToken(); //Set the address for the LINK token\r\n        nbaToken = IERC20(_nbaTokenAddress);\r\n        owner = msg.sender;\r\n    }\r\n\r\n    /* \r\n     * Allow owner to get future games\r\n     * NBA API instructions: https://www.balldontlie.io/#get-all-games\r\n     * World Clock API: http://worldtimeapi.org/ \r\n     */\r\n    function getGameIds() public onlyOwner {\r\n        //Get time data in EDT\r\n        Chainlink.Request memory reqDate = \r\n            buildChainlinkRequest(BYTES_JOB, address(this), \r\n                                  this.processTimeData.selector);\r\n        reqDate.add(\"get\", \r\n                 \"http://worldtimeapi.org/api/timezone/America/New_York\");\r\n        reqDate.add(\"path\", \"datetime\");\r\n        sendChainlinkRequestTo(ORACLE_ADDRESS, reqDate, LINK_PAYMENT);\r\n\r\n        //Get next 15 games if possible\r\n        Chainlink.Request memory reqGames = \r\n            buildChainlinkRequest(UINT_JOB, address(this), \r\n                                  this.gamesToGet.selector);\r\n        reqGames.add(\"get\", \r\n                 string(abi.encodePacked(\r\n                 \"https://www.balldontlie.io/api/v1/games?start_date=\", \r\n                 date)));\r\n        reqGames.add(\"path\", \"meta.total_count\");\r\n        sendChainlinkRequestTo(ORACLE_ADDRESS, reqGames, LINK_PAYMENT);\r\n\r\n        //Get game IDs for all upcoming games\r\n        for(uint8 i = 0; i < numGames; i++){\r\n            //Convert i to a string to use in API call\r\n            bytes memory _gameNum = new bytes(1);\r\n            _gameNum[0] = byte(INT_ASCII_OFFSET + i);\r\n            string memory gameNum = string(_gameNum);\r\n            \r\n            Chainlink.Request memory reqId = \r\n                buildChainlinkRequest(UINT_JOB, address(this), \r\n                                      this.storeGameId.selector);\r\n            reqId.add(\"get\", \r\n                      string(abi.encodePacked(\r\n                      \"https://www.balldontlie.io/api/v1/games?start_date=\", \r\n                      date)));\r\n            reqId.add(\"path\", string(abi.encodePacked(\"data.\", gameNum, \r\n                      \".id\")));\r\n            sendChainlinkRequestTo(ORACLE_ADDRESS, reqId, LINK_PAYMENT);\r\n        }\r\n    }\r\n\r\n    /* For getGameIds() function only */\r\n    function processTimeData(bytes32 _requestId, bytes32 _datetime) public \r\n             recordChainlinkFulfillment(_requestId) {\r\n        //Create arrays to parse date from _datetime\r\n        bytes memory datetime = abi.encodePacked(_datetime);\r\n        bytes memory _date = new bytes(DATE_FROM_API);\r\n\r\n        //Extract date from datetime\r\n        for(uint i = 0; i < DATE_FROM_API; i++){\r\n            _date[i] = datetime[i];\r\n        }\r\n\r\n        //Save date\r\n        date = string(_date);\r\n    }\r\n\r\n    /* For getGameIds() function only */\r\n    function gamesToGet(bytes32 _requestId, uint _totalCount) public \r\n             recordChainlinkFulfillment(_requestId) {\r\n        if(_totalCount > FUTURE_GAMES){\r\n            numGames = FUTURE_GAMES;\r\n        }else{\r\n            numGames = _totalCount;\r\n        }\r\n    }\r\n\r\n    /* For getGameIds() function only */\r\n    function storeGameId(bytes32 _requestId, uint _id) public \r\n             recordChainlinkFulfillment(_requestId) {\r\n        if(!isStored[_id]){\r\n            gameIds.push(_id);\r\n        }\r\n        isStored[_id] = true;\r\n    }\r\n\r\n    /* Get game data from game IDs stored in gameIds array */\r\n    function getFutureGamesData() public onlyOwner {\r\n        for(uint i = 0; i < gameIds.length; i++){\r\n            //Check for invalid game ID\r\n            if(gameIds[i] == 0){\r\n                break;\r\n            }\r\n\r\n            //Convert game ID to string\r\n            uint _gameId = gameIds[i];\r\n            bytes memory gameId = new bytes(MAX_DIGITS);\r\n            uint8 leastSignificantDigit = 0;\r\n            uint8 index = 0;\r\n            //Store digits in reverse\r\n            while(_gameId != 0){\r\n                leastSignificantDigit = uint8(_gameId % DECIMAL_BASE);\r\n                _gameId = _gameId / DECIMAL_BASE;\r\n                gameId[index] = byte(INT_ASCII_OFFSET + leastSignificantDigit);\r\n                index++;\r\n            }\r\n            //Reverse digits again to obtain correct string\r\n            byte temp = \"\";\r\n            for(uint8 j = 0; j < index / HALF; j++){\r\n                temp = gameId[j];\r\n                gameId[j] = gameId[index - j - 1];\r\n                gameId[index - j - 1] = temp;\r\n            }\r\n            string memory id = string(gameId);\r\n\r\n            //Get home team\r\n            Chainlink.Request memory reqHome = \r\n            buildChainlinkRequest(BYTES_JOB, address(this), \r\n                                  this.storeHomeData.selector);\r\n            reqHome.add(\"get\", string(abi.encodePacked(\r\n                        \"https://www.balldontlie.io/api/v1/games/\", id)));\r\n            reqHome.add(\"path\", \"home_team.full_name\");\r\n            sendChainlinkRequestTo(ORACLE_ADDRESS, reqHome, LINK_PAYMENT);\r\n            homeTeam[gameIds[i]] = tempHomeTeam;\r\n\r\n            //Get visitor team\r\n            Chainlink.Request memory reqVisitor = \r\n            buildChainlinkRequest(BYTES_JOB, address(this), \r\n                                  this.storeVisitorData.selector);\r\n            reqVisitor.add(\"get\", string(abi.encodePacked(\r\n                           \"https://www.balldontlie.io/api/v1/games/\", id)));\r\n            reqVisitor.add(\"path\", \"visitor_team.full_name\");\r\n            sendChainlinkRequestTo(ORACLE_ADDRESS, reqVisitor, LINK_PAYMENT);\r\n            visitorTeam[gameIds[i]] = tempVisitorTeam;\r\n\r\n            //Get game date\r\n            Chainlink.Request memory reqDate = \r\n            buildChainlinkRequest(BYTES_JOB, address(this), \r\n                                  this.storeDateData.selector);\r\n            reqDate.add(\"get\", string(abi.encodePacked(\r\n                           \"https://www.balldontlie.io/api/v1/games/\", id)));\r\n            reqDate.add(\"path\", \"date\");\r\n            sendChainlinkRequestTo(ORACLE_ADDRESS, reqDate, LINK_PAYMENT);\r\n            gameDate[gameIds[i]] = tempGameDate;\r\n\r\n            //Get game time\r\n            Chainlink.Request memory reqTime = \r\n            buildChainlinkRequest(BYTES_JOB, address(this), \r\n                                  this.storeTimeData.selector);\r\n            reqTime.add(\"get\", string(abi.encodePacked(\r\n                           \"https://www.balldontlie.io/api/v1/games/\", id)));\r\n            reqTime.add(\"path\", \"status\");\r\n            sendChainlinkRequestTo(ORACLE_ADDRESS, reqTime, LINK_PAYMENT);\r\n            gameTime[gameIds[i]] = tempGameTime;\r\n        }\r\n    }\r\n\r\n    /* For getFutureGamesData() function only */\r\n    function storeHomeData(bytes32 _requestId, bytes32 _homeTeam) public \r\n             recordChainlinkFulfillment(_requestId) {\r\n        bytes memory _tempHomeTeam = abi.encodePacked(_homeTeam);\r\n        tempHomeTeam = string(_tempHomeTeam);\r\n    }\r\n\r\n    /* For getFutureGamesData() function only */\r\n    function storeVisitorData(bytes32 _requestId, bytes32 _visitorTeam) public \r\n             recordChainlinkFulfillment(_requestId) {\r\n        bytes memory _tempVisitorTeam = abi.encodePacked(_visitorTeam);\r\n        tempVisitorTeam = string(_tempVisitorTeam);\r\n    }\r\n\r\n    /* For getFutureGamesData() function only */\r\n    function storeDateData(bytes32 _requestId, bytes32 _date) public \r\n             recordChainlinkFulfillment(_requestId) {\r\n        //Create arrays to parse date from _date\r\n        bytes memory tempDate = abi.encodePacked(_date);\r\n        bytes memory transfer = new bytes(DATE_FROM_API);\r\n\r\n        //Extract date\r\n        for(uint i = 0; i < DATE_FROM_API; i++){\r\n            transfer[i] = tempDate[i];\r\n        }\r\n\r\n        //Save date\r\n        tempGameDate = string(transfer);\r\n    }\r\n\r\n    /* For getFutureGamesData() function only */\r\n    function storeTimeData(bytes32 _requestId, bytes32 _time) public \r\n             recordChainlinkFulfillment(_requestId) {\r\n        bytes memory _tempGameTime = abi.encodePacked(_time);\r\n        tempGameTime = string(_tempGameTime);\r\n    }\r\n\r\n    /*TODO: function rewardBets() public onlyOwner {\r\n\r\n    }*/\r\n\r\n    /* Allow users to deposit or withdraw NbaTokens */\r\n    function depositOrWithdraw(uint _amount) public {\r\n        require(_amount >= (uint(-1) * nbaTokenBalance[msg.sender]), \r\n                \"Cannot withdraw more than account balance\");\r\n        require(_amount <= MAX_DEPOSIT, \"Cannot deposit more than 999999\");\r\n        require(_amount != 0, \"Cannot withdraw or deposit 0\");\r\n\r\n        //Deposit\r\n        if(_amount > 0){\r\n            nbaToken.transferFrom(msg.sender, address(this), _amount);\r\n        }\r\n\r\n        //Withdraw\r\n        if(_amount < 0){\r\n            nbaToken.transfer(msg.sender, _amount);\r\n        }\r\n\r\n        nbaTokenBalance[msg.sender] = nbaTokenBalance[msg.sender] + _amount;\r\n    }\r\n\r\n    /* Allow users to place bets */\r\n    function placeBet(uint8 _game, uint8 _team, uint _amount) public {\r\n        require(_game >= 0 && _game < MAX_GAMES, \"Choose a valid game\");\r\n        require(_team == 0 || _team == 1, \"Choose a valid team\");\r\n        require(_amount > 0, \"Must bet an amount greater than 0\");\r\n\r\n        //Transfer tokens from user\r\n        nbaTokenBalance[msg.sender] = nbaTokenBalance[msg.sender] - _amount;\r\n\r\n        //Update relevant attributes of user\r\n        gamesBetted[msg.sender] = gamesBetted[msg.sender] \r\n                                  + (GAME_OFFSET * _game);\r\n        teamsBetted[msg.sender] = teamsBetted[msg.sender] \r\n                                  + (_team * GAME_OFFSET * _game);\r\n        if(_game == 0){\r\n            betAmount1[msg.sender] = _amount;\r\n        }else if(_game == 1){\r\n            betAmount2[msg.sender] = _amount;\r\n        }else{\r\n            betAmount3[msg.sender] = _amount;\r\n        }\r\n\r\n        //Add user to betters array\r\n        if(!hasBetted[msg.sender]){\r\n            betters.push(msg.sender);\r\n        }\r\n        hasBetted[msg.sender] = true;\r\n    }\r\n    \r\n    /* Get home team by game ID */\r\n    function getGameHome(uint _gameId) public view returns (string memory) {\r\n        return homeTeam[_gameId];\r\n    }\r\n\r\n    /* Get visitor team by game ID */\r\n    function getGameVisitor(uint _gameId) public view returns (string memory) {\r\n        return visitorTeam[_gameId];\r\n    }\r\n\r\n    /* Get date by game ID */\r\n    function getGameDate(uint _gameId) public view returns (string memory) {\r\n        return gameDate[_gameId];\r\n    }\r\n\r\n    /* Get time by game ID */\r\n    function getGameTime(uint _gameId) public view returns (string memory) {\r\n        return gameTime[_gameId];\r\n    }\r\n\r\n    /* Restrict access to owner of contract */\r\n    modifier onlyOwner() {\r\n        require(msg.sender == owner);\r\n        _;\r\n    }\r\n}",
  "sourcePath": "C:/Users/Minh Dinh/Desktop/Projects/chainlink-hackathon-project/src/contracts/NbaBetting.sol",
  "compiler": {
    "name": "solc",
    "version": "0.6.6+commit.6c089d02.Emscripten.clang"
  },
  "schemaVersion": "3.2.5",
  "updatedAt": "2020-09-23T08:59:59.609Z",
  "devdoc": {
    "methods": {}
  },
  "userdoc": {
    "methods": {}
  }
}