{
  "contractName": "NbaBetting",
  "abi": [
    {
      "inputs": [
        {
          "internalType": "contract IERC20",
          "name": "_nbaTokenAddress",
          "type": "address"
        }
      ],
      "stateMutability": "nonpayable",
      "type": "constructor"
    },
    {
      "anonymous": false,
      "inputs": [
        {
          "indexed": true,
          "internalType": "bytes32",
          "name": "id",
          "type": "bytes32"
        }
      ],
      "name": "ChainlinkCancelled",
      "type": "event"
    },
    {
      "anonymous": false,
      "inputs": [
        {
          "indexed": true,
          "internalType": "bytes32",
          "name": "id",
          "type": "bytes32"
        }
      ],
      "name": "ChainlinkFulfilled",
      "type": "event"
    },
    {
      "anonymous": false,
      "inputs": [
        {
          "indexed": true,
          "internalType": "bytes32",
          "name": "id",
          "type": "bytes32"
        }
      ],
      "name": "ChainlinkRequested",
      "type": "event"
    },
    {
      "inputs": [
        {
          "internalType": "address",
          "name": "",
          "type": "address"
        }
      ],
      "name": "betAmount1",
      "outputs": [
        {
          "internalType": "uint256",
          "name": "",
          "type": "uint256"
        }
      ],
      "stateMutability": "view",
      "type": "function"
    },
    {
      "inputs": [
        {
          "internalType": "address",
          "name": "",
          "type": "address"
        }
      ],
      "name": "betAmount2",
      "outputs": [
        {
          "internalType": "uint256",
          "name": "",
          "type": "uint256"
        }
      ],
      "stateMutability": "view",
      "type": "function"
    },
    {
      "inputs": [
        {
          "internalType": "address",
          "name": "",
          "type": "address"
        }
      ],
      "name": "betAmount3",
      "outputs": [
        {
          "internalType": "uint256",
          "name": "",
          "type": "uint256"
        }
      ],
      "stateMutability": "view",
      "type": "function"
    },
    {
      "inputs": [
        {
          "internalType": "uint256",
          "name": "",
          "type": "uint256"
        }
      ],
      "name": "betters",
      "outputs": [
        {
          "internalType": "address",
          "name": "",
          "type": "address"
        }
      ],
      "stateMutability": "view",
      "type": "function"
    },
    {
      "inputs": [],
      "name": "datetime",
      "outputs": [
        {
          "internalType": "bytes32",
          "name": "",
          "type": "bytes32"
        }
      ],
      "stateMutability": "view",
      "type": "function"
    },
    {
      "inputs": [
        {
          "internalType": "address",
          "name": "",
          "type": "address"
        }
      ],
      "name": "gamesBetted",
      "outputs": [
        {
          "internalType": "uint8",
          "name": "",
          "type": "uint8"
        }
      ],
      "stateMutability": "view",
      "type": "function"
    },
    {
      "inputs": [
        {
          "internalType": "address",
          "name": "",
          "type": "address"
        }
      ],
      "name": "hasBetted",
      "outputs": [
        {
          "internalType": "bool",
          "name": "",
          "type": "bool"
        }
      ],
      "stateMutability": "view",
      "type": "function"
    },
    {
      "inputs": [],
      "name": "nbaToken",
      "outputs": [
        {
          "internalType": "contract IERC20",
          "name": "",
          "type": "address"
        }
      ],
      "stateMutability": "view",
      "type": "function"
    },
    {
      "inputs": [
        {
          "internalType": "address",
          "name": "",
          "type": "address"
        }
      ],
      "name": "nbaTokenBalance",
      "outputs": [
        {
          "internalType": "uint256",
          "name": "",
          "type": "uint256"
        }
      ],
      "stateMutability": "view",
      "type": "function"
    },
    {
      "inputs": [],
      "name": "owner",
      "outputs": [
        {
          "internalType": "address",
          "name": "",
          "type": "address"
        }
      ],
      "stateMutability": "view",
      "type": "function"
    },
    {
      "inputs": [
        {
          "internalType": "address",
          "name": "",
          "type": "address"
        }
      ],
      "name": "teamsBetted",
      "outputs": [
        {
          "internalType": "uint8",
          "name": "",
          "type": "uint8"
        }
      ],
      "stateMutability": "view",
      "type": "function"
    },
    {
      "inputs": [],
      "name": "getGameData",
      "outputs": [],
      "stateMutability": "nonpayable",
      "type": "function"
    },
    {
      "inputs": [
        {
          "internalType": "bytes32",
          "name": "_requestId",
          "type": "bytes32"
        },
        {
          "internalType": "bytes32",
          "name": "_datetime",
          "type": "bytes32"
        }
      ],
      "name": "processTimeData",
      "outputs": [],
      "stateMutability": "nonpayable",
      "type": "function"
    },
    {
      "inputs": [
        {
          "internalType": "uint256",
          "name": "_amount",
          "type": "uint256"
        }
      ],
      "name": "depositOrWithdraw",
      "outputs": [],
      "stateMutability": "nonpayable",
      "type": "function"
    },
    {
      "inputs": [
        {
          "internalType": "uint8",
          "name": "_game",
          "type": "uint8"
        },
        {
          "internalType": "uint8",
          "name": "_team",
          "type": "uint8"
        },
        {
          "internalType": "uint256",
          "name": "_amount",
          "type": "uint256"
        }
      ],
      "name": "placeBet",
      "outputs": [],
      "stateMutability": "nonpayable",
      "type": "function"
    }
  ],
  "bytecode": "0x6080604052600160045573aa1dc356dc4b18f30c347798fd5379f3d77abc5b600660006101000a81548173ffffffffffffffffffffffffffffffffffffffff021916908373ffffffffffffffffffffffffffffffffffffffff16021790555034801561006a57600080fd5b50604051611ebc380380611ebc8339818101604052602081101561008d57600080fd5b810190808051906020019092919050505080600860006101000a81548173ffffffffffffffffffffffffffffffffffffffff021916908373ffffffffffffffffffffffffffffffffffffffff16021790555033600760006101000a81548173ffffffffffffffffffffffffffffffffffffffff021916908373ffffffffffffffffffffffffffffffffffffffff16021790555050611d8c806101306000396000f3fe608060405234801561001057600080fd5b50600436106100f55760003560e01c80638da5cb5b11610097578063af4e99de11610066578063af4e99de14610458578063cd32a2b614610462578063ec5afd7414610490578063fcd98a49146104ec576100f5565b80638da5cb5b146102f857806392b070a6146103425780639fda5d621461038c578063ace9c3ae146103fa576100f5565b8063399b5c46116100d3578063399b5c46146101e257806340d5605a1461022a5780636b747b21146102485780636deeebc4146102a0576100f5565b80630a77e797146100fa57806311ed5d6b146101525780632e458abf1461018a575b600080fd5b61013c6004803603602081101561011057600080fd5b81019080803573ffffffffffffffffffffffffffffffffffffffff16906020019092919050505061054a565b6040518082815260200191505060405180910390f35b6101886004803603604081101561016857600080fd5b810190808035906020019092919080359060200190929190505050610562565b005b6101cc600480360360208110156101a057600080fd5b81019080803573ffffffffffffffffffffffffffffffffffffffff169060200190929190505050610689565b6040518082815260200191505060405180910390f35b610228600480360360608110156101f857600080fd5b81019080803560ff169060200190929190803560ff169060200190929190803590602001909291905050506106a1565b005b610232610be8565b6040518082815260200191505060405180910390f35b61028a6004803603602081101561025e57600080fd5b81019080803573ffffffffffffffffffffffffffffffffffffffff169060200190929190505050610bee565b6040518082815260200191505060405180910390f35b6102e2600480360360208110156102b657600080fd5b81019080803573ffffffffffffffffffffffffffffffffffffffff169060200190929190505050610c06565b6040518082815260200191505060405180910390f35b610300610c1e565b604051808273ffffffffffffffffffffffffffffffffffffffff1673ffffffffffffffffffffffffffffffffffffffff16815260200191505060405180910390f35b61034a610c44565b604051808273ffffffffffffffffffffffffffffffffffffffff1673ffffffffffffffffffffffffffffffffffffffff16815260200191505060405180910390f35b6103b8600480360360208110156103a257600080fd5b8101908080359060200190929190505050610c6a565b604051808273ffffffffffffffffffffffffffffffffffffffff1673ffffffffffffffffffffffffffffffffffffffff16815260200191505060405180910390f35b61043c6004803603602081101561041057600080fd5b81019080803573ffffffffffffffffffffffffffffffffffffffff169060200190929190505050610ca6565b604051808260ff1660ff16815260200191505060405180910390f35b610460610cc6565b005b61048e6004803603602081101561047857600080fd5b8101908080359060200190929190505050610e1c565b005b6104d2600480360360208110156104a657600080fd5b81019080803573ffffffffffffffffffffffffffffffffffffffff169060200190929190505050611260565b604051808215151515815260200191505060405180910390f35b61052e6004803603602081101561050257600080fd5b81019080803573ffffffffffffffffffffffffffffffffffffffff169060200190929190505050611280565b604051808260ff1660ff16815260200191505060405180910390f35b60116020528060005260406000206000915090505481565b816005600082815260200190815260200160002060009054906101000a900473ffffffffffffffffffffffffffffffffffffffff1673ffffffffffffffffffffffffffffffffffffffff163373ffffffffffffffffffffffffffffffffffffffff161461061a576040517f08c379a0000000000000000000000000000000000000000000000000000000008152600401808060200182810382526028815260200180611d2f6028913960400191505060405180910390fd5b6005600082815260200190815260200160002060006101000a81549073ffffffffffffffffffffffffffffffffffffffff0219169055807f7cc135e0cebb02c3480ae5d74d377283180a2601f8f644edf7987b009316c63a60405160405180910390a281600981905550505050565b600f6020528060005260406000206000915090505481565b60008360ff16101580156106bb5750600360ff168360ff16105b61072d576040517f08c379a00000000000000000000000000000000000000000000000000000000081526004018080602001828103825260138152602001807f43686f6f736520612076616c69642067616d650000000000000000000000000081525060200191505060405180910390fd5b60008260ff161480610742575060018260ff16145b6107b4576040517f08c379a00000000000000000000000000000000000000000000000000000000081526004018080602001828103825260138152602001807f43686f6f736520612076616c6964207465616d0000000000000000000000000081525060200191505060405180910390fd5b6000811161080d576040517f08c379a0000000000000000000000000000000000000000000000000000000008152600401808060200182810382526021815260200180611c8a6021913960400191505060405180910390fd5b80600b60003373ffffffffffffffffffffffffffffffffffffffff1673ffffffffffffffffffffffffffffffffffffffff1681526020019081526020016000205403600b60003373ffffffffffffffffffffffffffffffffffffffff1673ffffffffffffffffffffffffffffffffffffffff1681526020019081526020016000208190555082600a02600d60003373ffffffffffffffffffffffffffffffffffffffff1673ffffffffffffffffffffffffffffffffffffffff16815260200190815260200160002060009054906101000a900460ff1601600d60003373ffffffffffffffffffffffffffffffffffffffff1673ffffffffffffffffffffffffffffffffffffffff16815260200190815260200160002060006101000a81548160ff021916908360ff16021790555082600a830202600e60003373ffffffffffffffffffffffffffffffffffffffff1673ffffffffffffffffffffffffffffffffffffffff16815260200190815260200160002060009054906101000a900460ff1601600e60003373ffffffffffffffffffffffffffffffffffffffff1673ffffffffffffffffffffffffffffffffffffffff16815260200190815260200160002060006101000a81548160ff021916908360ff16021790555060008360ff161415610a3b5780600f60003373ffffffffffffffffffffffffffffffffffffffff1673ffffffffffffffffffffffffffffffffffffffff16815260200190815260200160002081905550610ad6565b60018360ff161415610a905780601060003373ffffffffffffffffffffffffffffffffffffffff1673ffffffffffffffffffffffffffffffffffffffff16815260200190815260200160002081905550610ad5565b80601160003373ffffffffffffffffffffffffffffffffffffffff1673ffffffffffffffffffffffffffffffffffffffff168152602001908152602001600020819055505b5b600c60003373ffffffffffffffffffffffffffffffffffffffff1673ffffffffffffffffffffffffffffffffffffffff16815260200190815260200160002060009054906101000a900460ff16610b8b57600a339080600181540180825580915050600190039060005260206000200160009091909190916101000a81548173ffffffffffffffffffffffffffffffffffffffff021916908373ffffffffffffffffffffffffffffffffffffffff1602179055505b6001600c60003373ffffffffffffffffffffffffffffffffffffffff1673ffffffffffffffffffffffffffffffffffffffff16815260200190815260200160002060006101000a81548160ff021916908315150217905550505050565b60095481565b60106020528060005260406000206000915090505481565b600b6020528060005260406000206000915090505481565b600760009054906101000a900473ffffffffffffffffffffffffffffffffffffffff1681565b600860009054906101000a900473ffffffffffffffffffffffffffffffffffffffff1681565b600a8181548110610c7757fe5b906000526020600020016000915054906101000a900473ffffffffffffffffffffffffffffffffffffffff1681565b600e6020528060005260406000206000915054906101000a900460ff1681565b610cce611c02565b610d007f6237323835643438353964613462323839633738363164623937316261663061306311ed5d6b60e01b6112a0565b9050610d646040518060400160405280600381526020017f6765740000000000000000000000000000000000000000000000000000000000815250604051806060016040528060388152602001611cf760389139836112d19092919063ffffffff16565b610de36040518060400160405280600481526020017f70617468000000000000000000000000000000000000000000000000000000008152506040518060400160405280600881526020017f6461746574696d65000000000000000000000000000000000000000000000000815250836112d19092919063ffffffff16565b610e18600660009054906101000a900473ffffffffffffffffffffffffffffffffffffffff168267016345785d8a0000611304565b5050565b600b60003373ffffffffffffffffffffffffffffffffffffffff1673ffffffffffffffffffffffffffffffffffffffff168152602001908152602001600020547fffffffffffffffffffffffffffffffffffffffffffffffffffffffffffffffff02811015610ed6576040517f08c379a0000000000000000000000000000000000000000000000000000000008152600401808060200182810382526029815260200180611cce6029913960400191505060405180910390fd5b620f423f811115610f4f576040517f08c379a000000000000000000000000000000000000000000000000000000000815260040180806020018281038252601f8152602001807f43616e6e6f74206465706f736974206d6f7265207468616e203939393939390081525060200191505060405180910390fd5b6000811415610fc6576040517f08c379a000000000000000000000000000000000000000000000000000000000815260040180806020018281038252601c8152602001807f43616e6e6f74207769746864726177206f72206465706f73697420300000000081525060200191505060405180910390fd5b60008111156110e957600860009054906101000a900473ffffffffffffffffffffffffffffffffffffffff1673ffffffffffffffffffffffffffffffffffffffff166323b872dd3330846040518463ffffffff1660e01b8152600401808473ffffffffffffffffffffffffffffffffffffffff1673ffffffffffffffffffffffffffffffffffffffff1681526020018373ffffffffffffffffffffffffffffffffffffffff1673ffffffffffffffffffffffffffffffffffffffff1681526020018281526020019350505050602060405180830381600087803b1580156110ac57600080fd5b505af11580156110c0573d6000803e3d6000fd5b505050506040513d60208110156110d657600080fd5b8101908080519060200190929190505050505b60008110156111d857600860009054906101000a900473ffffffffffffffffffffffffffffffffffffffff1673ffffffffffffffffffffffffffffffffffffffff1663a9059cbb33836040518363ffffffff1660e01b8152600401808373ffffffffffffffffffffffffffffffffffffffff1673ffffffffffffffffffffffffffffffffffffffff16815260200182815260200192505050602060405180830381600087803b15801561119b57600080fd5b505af11580156111af573d6000803e3d6000fd5b505050506040513d60208110156111c557600080fd5b8101908080519060200190929190505050505b80600b60003373ffffffffffffffffffffffffffffffffffffffff1673ffffffffffffffffffffffffffffffffffffffff1681526020019081526020016000205401600b60003373ffffffffffffffffffffffffffffffffffffffff1673ffffffffffffffffffffffffffffffffffffffff1681526020019081526020016000208190555050565b600c6020528060005260406000206000915054906101000a900460ff1681565b600d6020528060005260406000206000915054906101000a900460ff1681565b6112a8611c02565b6112b0611c02565b6112c7858585846115bc909392919063ffffffff16565b9150509392505050565b6112e882846080015161166c90919063ffffffff16565b6112ff81846080015161166c90919063ffffffff16565b505050565b600030600454604051602001808373ffffffffffffffffffffffffffffffffffffffff1673ffffffffffffffffffffffffffffffffffffffff1660601b815260140182815260200192505050604051602081830303815290604052805190602001209050600454836060018181525050836005600083815260200190815260200160002060006101000a81548173ffffffffffffffffffffffffffffffffffffffff021916908373ffffffffffffffffffffffffffffffffffffffff160217905550807fb5e6e01e79f91267dc17b4e6314d5d4d03593d2ceee0fbb452b750bd70ea5af960405160405180910390a2600260009054906101000a900473ffffffffffffffffffffffffffffffffffffffff1673ffffffffffffffffffffffffffffffffffffffff16634000aea0858461143c87611691565b6040518463ffffffff1660e01b8152600401808473ffffffffffffffffffffffffffffffffffffffff1673ffffffffffffffffffffffffffffffffffffffff16815260200183815260200180602001828103825283818151815260200191508051906020019080838360005b838110156114c35780820151818401526020810190506114a8565b50505050905090810190601f1680156114f05780820380516001836020036101000a031916815260200191505b50945050505050602060405180830381600087803b15801561151157600080fd5b505af1158015611525573d6000803e3d6000fd5b505050506040513d602081101561153b57600080fd5b81019080805190602001909291905050506115a1576040517f08c379a0000000000000000000000000000000000000000000000000000000008152600401808060200182810382526023815260200180611cab6023913960400191505060405180910390fd5b60016004600082825401925050819055508090509392505050565b6115c4611c02565b6115d4856080015161010061185d565b508385600001818152505082856020019073ffffffffffffffffffffffffffffffffffffffff16908173ffffffffffffffffffffffffffffffffffffffff16815250508185604001907bffffffffffffffffffffffffffffffffffffffffffffffffffffffff191690817bffffffffffffffffffffffffffffffffffffffffffffffffffffffff191681525050849050949350505050565b61167982600383516118b1565b61168c81836119f690919063ffffffff16565b505050565b6060634042994660e01b60008084600001518560200151866040015187606001516001896080015160000151604051602401808973ffffffffffffffffffffffffffffffffffffffff1673ffffffffffffffffffffffffffffffffffffffff1681526020018881526020018781526020018673ffffffffffffffffffffffffffffffffffffffff1673ffffffffffffffffffffffffffffffffffffffff168152602001857bffffffffffffffffffffffffffffffffffffffffffffffffffffffff19167bffffffffffffffffffffffffffffffffffffffffffffffffffffffff1916815260200184815260200183815260200180602001828103825283818151815260200191508051906020019080838360005b838110156117c05780820151818401526020810190506117a5565b50505050905090810190601f1680156117ed5780820380516001836020036101000a031916815260200191505b509950505050505050505050604051602081830303815290604052907bffffffffffffffffffffffffffffffffffffffffffffffffffffffff19166020820180517bffffffffffffffffffffffffffffffffffffffffffffffffffffffff83818316178352505050509050919050565b611865611c6f565b60006020838161187157fe5b061461188a576020828161188157fe5b06602003820191505b81836020018181525050604051808452600081528281016020016040525082905092915050565b601781116118de576118d88160058460ff16901b60ff161784611a1890919063ffffffff16565b506119f1565b60ff811161192057611903601860058460ff16901b1784611a1890919063ffffffff16565b5061191a81600185611a389092919063ffffffff16565b506119f0565b61ffff811161196357611946601960058460ff16901b1784611a1890919063ffffffff16565b5061195d81600285611a389092919063ffffffff16565b506119ef565b63ffffffff81116119a85761198b601a60058460ff16901b1784611a1890919063ffffffff16565b506119a281600485611a389092919063ffffffff16565b506119ee565b67ffffffffffffffff81116119ed576119d4601b60058460ff16901b1784611a1890919063ffffffff16565b506119eb81600885611a389092919063ffffffff16565b505b5b5b5b5b505050565b6119fe611c6f565b611a1083846000015151848551611a5a565b905092915050565b611a20611c6f565b611a308384600001515184611b13565b905092915050565b611a40611c6f565b611a51848560000151518585611b61565b90509392505050565b611a62611c6f565b8251821115611a7057600080fd5b84602001518285011115611a9b57611a9a856002611a948860200151888701611bc2565b02611bde565b5b600080865180518760208301019350808887011115611aba5787860182525b60208701925050505b60208410611ae65780518252602082019150602081019050602084039350611ac3565b60006001856020036101000a03905080198251168184511681811785525050879350505050949350505050565b611b1b611c6f565b83602001518310611b3857611b37846002866020015102611bde565b5b8351805160208583010184815381861415611b54576001820183525b5050508390509392505050565b611b69611c6f565b84602001518483011115611b8757611b8685600286850102611bde565b5b60006001836101000a0390508551838682010185831982511617815281518588011115611bb45784870182525b505085915050949350505050565b600081831115611bd457829050611bd8565b8190505b92915050565b606082600001519050611bf1838361185d565b50611bfc83826119f6565b50505050565b6040518060a0016040528060008019168152602001600073ffffffffffffffffffffffffffffffffffffffff16815260200160007bffffffffffffffffffffffffffffffffffffffffffffffffffffffff1916815260200160008152602001611c69611c6f565b81525090565b60405180604001604052806060815260200160008152509056fe4d7573742062657420616e20616d6f756e742067726561746572207468616e2030756e61626c6520746f207472616e73666572416e6443616c6c20746f206f7261636c6543616e6e6f74207769746864726177206d6f7265207468616e206163636f756e742062616c616e6365687474703a2f2f776f726c6474696d656170692e6f72672f6170692f74696d657a6f6e652f416d65726963612f4c6f735f416e67656c6573536f75726365206d75737420626520746865206f7261636c65206f66207468652072657175657374a2646970667358221220e9c333a4165c74841e3fd645ae424389bddb73d541a7b258b37f62e7a8c3eb4f64736f6c63430006060033",
  "immutableReferences": {},
  "source": "pragma solidity ^0.6.0;\r\n\r\nimport \"@openzeppelin/contracts/token/ERC20/IERC20.sol\";\r\nimport \"@chainlink/contracts/src/v0.6/ChainlinkClient.sol\";\r\n\r\ncontract NbaBetting is ChainlinkClient {\r\n    uint8 constant private MAX_GAMES = 3; //Only 3 future games to bet on\r\n    uint8 constant private GAME_OFFSET = 10;\r\n    uint constant private MAX_DEPOSIT = 999999;\r\n\r\n    //Address of Kovan network oracle which contains Get > bytes32 job\r\n    //Found on market.link\r\n    address private ORACLE_ADDRESS = 0xAA1DC356dc4B18f30C347798FD5379F3D77ABC5b;\r\n    //Job ID of Get > bytes32 job\r\n    //Found on market.link\r\n    string constant private JOB_ID = \"b7285d4859da4b289c7861db971baf0a\";\r\n    //LINK payment for Get > bytes32 job (0.1 LINK)\r\n    //1 LINK  = 1 * (10^18)\r\n    uint constant private LINK_PAYMENT = 100000000000000000;\r\n\r\n    address public owner;\r\n    IERC20 public nbaToken;\r\n    bytes32 public datetime;\r\n\r\n    address[] public betters;\r\n    mapping(address => uint) public nbaTokenBalance;\r\n    mapping(address => bool) public hasBetted;\r\n    mapping(address => uint8) public gamesBetted;\r\n    mapping(address => uint8) public teamsBetted;\r\n    mapping(address => uint) public betAmount1;\r\n    mapping(address => uint) public betAmount2;\r\n    mapping(address => uint) public betAmount3;\r\n\r\n    constructor(IERC20 _nbaTokenAddress) public {\r\n        nbaToken = IERC20(_nbaTokenAddress);\r\n        owner = msg.sender;\r\n    }\r\n\r\n    /* \r\n     * Allow server owner to get future game data \r\n     * NBA API instructions: https://www.balldontlie.io/#get-all-games\r\n     * World Clock API: http://worldtimeapi.org/ \r\n     */\r\n    function getGameData() public /*onlyOwner*/ {\r\n        //Get time data\r\n        Chainlink.Request memory req1 = \r\n        buildChainlinkRequest(\"b7285d4859da4b289c7861db971baf0a\", address(this), \r\n                              this.processTimeData.selector);\r\n        //Get date in PDT\r\n        req1.add(\"get\", \"http://worldtimeapi.org/api/timezone/America/Los_Angeles\");\r\n        //Path to date and time\r\n        req1.add(\"path\", \"datetime\");\r\n        //Send request to oracle with payment\r\n        sendChainlinkRequestTo(ORACLE_ADDRESS, req1, LINK_PAYMENT);\r\n    }\r\n\r\n    function processTimeData(bytes32 _requestId, bytes32 _datetime) public \r\n             recordChainlinkFulfillment(_requestId) {\r\n        datetime = _datetime; //TODO: PARSE DATETIME INTO DATE AND TIME\r\n    }\r\n\r\n    /* Allow users to deposit or withdraw NbaTokens */\r\n    function depositOrWithdraw(uint _amount) public {\r\n        require(_amount >= (uint(-1) * nbaTokenBalance[msg.sender]), \r\n                \"Cannot withdraw more than account balance\");\r\n        require(_amount <= MAX_DEPOSIT, \"Cannot deposit more than 999999\");\r\n        require(_amount != 0, \"Cannot withdraw or deposit 0\");\r\n\r\n        //Deposit\r\n        if(_amount > 0){\r\n            nbaToken.transferFrom(msg.sender, address(this), _amount);\r\n        }\r\n\r\n        //Withdraw\r\n        if(_amount < 0){\r\n            nbaToken.transfer(msg.sender, _amount);\r\n        }\r\n\r\n        nbaTokenBalance[msg.sender] = nbaTokenBalance[msg.sender] + _amount;\r\n    }\r\n\r\n    /* Allow users to place bets */\r\n    function placeBet(uint8 _game, uint8 _team, uint _amount) public {\r\n        require(_game >= 0 && _game < MAX_GAMES, \"Choose a valid game\");\r\n        require(_team == 0 || _team == 1, \"Choose a valid team\");\r\n        require(_amount > 0, \"Must bet an amount greater than 0\");\r\n\r\n        //Transfer tokens from user\r\n        nbaTokenBalance[msg.sender] = nbaTokenBalance[msg.sender] - _amount;\r\n\r\n        //Update relevant attributes of user\r\n        gamesBetted[msg.sender] = gamesBetted[msg.sender] \r\n                                  + (GAME_OFFSET * _game);\r\n        teamsBetted[msg.sender] = teamsBetted[msg.sender] \r\n                                  + (_team * GAME_OFFSET * _game);\r\n        if(_game == 0){\r\n            betAmount1[msg.sender] = _amount;\r\n        }else if(_game == 1){\r\n            betAmount2[msg.sender] = _amount;\r\n        }else{\r\n            betAmount3[msg.sender] = _amount;\r\n        }\r\n\r\n        //Add user to betters array\r\n        if(!hasBetted[msg.sender]){\r\n            betters.push(msg.sender);\r\n        }\r\n        hasBetted[msg.sender] = true;\r\n    }\r\n\r\n    /*function rewardBets() public onlyOwner {\r\n\r\n    }\r\n    \r\n    function getBetInfo() public {\r\n        \r\n    }*/\r\n}",
  "sourcePath": "C:/Users/Minh Dinh/Desktop/Projects/chainlink-hackathon-project/src/contracts/NbaBetting.sol",
  "compiler": {
    "name": "solc",
    "version": "0.6.6+commit.6c089d02.Emscripten.clang"
  },
  "schemaVersion": "3.2.5",
  "updatedAt": "2020-09-22T18:10:19.340Z",
  "devdoc": {
    "methods": {}
  },
  "userdoc": {
    "methods": {}
  }
}