{
  "contractName": "NbaBetting",
  "abi": [
    {
      "inputs": [
        {
          "internalType": "contract IERC20",
          "name": "_nbaTokenAddress",
          "type": "address"
        }
      ],
      "stateMutability": "nonpayable",
      "type": "constructor"
    },
    {
      "anonymous": false,
      "inputs": [
        {
          "indexed": true,
          "internalType": "bytes32",
          "name": "id",
          "type": "bytes32"
        }
      ],
      "name": "ChainlinkCancelled",
      "type": "event"
    },
    {
      "anonymous": false,
      "inputs": [
        {
          "indexed": true,
          "internalType": "bytes32",
          "name": "id",
          "type": "bytes32"
        }
      ],
      "name": "ChainlinkFulfilled",
      "type": "event"
    },
    {
      "anonymous": false,
      "inputs": [
        {
          "indexed": true,
          "internalType": "bytes32",
          "name": "id",
          "type": "bytes32"
        }
      ],
      "name": "ChainlinkRequested",
      "type": "event"
    },
    {
      "inputs": [
        {
          "internalType": "address",
          "name": "",
          "type": "address"
        }
      ],
      "name": "betAmount1",
      "outputs": [
        {
          "internalType": "uint256",
          "name": "",
          "type": "uint256"
        }
      ],
      "stateMutability": "view",
      "type": "function"
    },
    {
      "inputs": [
        {
          "internalType": "address",
          "name": "",
          "type": "address"
        }
      ],
      "name": "betAmount2",
      "outputs": [
        {
          "internalType": "uint256",
          "name": "",
          "type": "uint256"
        }
      ],
      "stateMutability": "view",
      "type": "function"
    },
    {
      "inputs": [
        {
          "internalType": "address",
          "name": "",
          "type": "address"
        }
      ],
      "name": "betAmount3",
      "outputs": [
        {
          "internalType": "uint256",
          "name": "",
          "type": "uint256"
        }
      ],
      "stateMutability": "view",
      "type": "function"
    },
    {
      "inputs": [
        {
          "internalType": "uint256",
          "name": "",
          "type": "uint256"
        }
      ],
      "name": "betters",
      "outputs": [
        {
          "internalType": "address",
          "name": "",
          "type": "address"
        }
      ],
      "stateMutability": "view",
      "type": "function"
    },
    {
      "inputs": [],
      "name": "date",
      "outputs": [
        {
          "internalType": "string",
          "name": "",
          "type": "string"
        }
      ],
      "stateMutability": "view",
      "type": "function"
    },
    {
      "inputs": [
        {
          "internalType": "uint256",
          "name": "",
          "type": "uint256"
        }
      ],
      "name": "gameDate",
      "outputs": [
        {
          "internalType": "string",
          "name": "",
          "type": "string"
        }
      ],
      "stateMutability": "view",
      "type": "function"
    },
    {
      "inputs": [
        {
          "internalType": "uint256",
          "name": "",
          "type": "uint256"
        }
      ],
      "name": "gameIds",
      "outputs": [
        {
          "internalType": "uint256",
          "name": "",
          "type": "uint256"
        }
      ],
      "stateMutability": "view",
      "type": "function"
    },
    {
      "inputs": [
        {
          "internalType": "uint256",
          "name": "",
          "type": "uint256"
        }
      ],
      "name": "gameTime",
      "outputs": [
        {
          "internalType": "string",
          "name": "",
          "type": "string"
        }
      ],
      "stateMutability": "view",
      "type": "function"
    },
    {
      "inputs": [
        {
          "internalType": "address",
          "name": "",
          "type": "address"
        }
      ],
      "name": "gamesBetted",
      "outputs": [
        {
          "internalType": "uint8",
          "name": "",
          "type": "uint8"
        }
      ],
      "stateMutability": "view",
      "type": "function"
    },
    {
      "inputs": [
        {
          "internalType": "address",
          "name": "",
          "type": "address"
        }
      ],
      "name": "hasBetted",
      "outputs": [
        {
          "internalType": "bool",
          "name": "",
          "type": "bool"
        }
      ],
      "stateMutability": "view",
      "type": "function"
    },
    {
      "inputs": [
        {
          "internalType": "uint256",
          "name": "",
          "type": "uint256"
        }
      ],
      "name": "homeTeam",
      "outputs": [
        {
          "internalType": "string",
          "name": "",
          "type": "string"
        }
      ],
      "stateMutability": "view",
      "type": "function"
    },
    {
      "inputs": [
        {
          "internalType": "uint256",
          "name": "",
          "type": "uint256"
        }
      ],
      "name": "isStored",
      "outputs": [
        {
          "internalType": "bool",
          "name": "",
          "type": "bool"
        }
      ],
      "stateMutability": "view",
      "type": "function"
    },
    {
      "inputs": [],
      "name": "nbaToken",
      "outputs": [
        {
          "internalType": "contract IERC20",
          "name": "",
          "type": "address"
        }
      ],
      "stateMutability": "view",
      "type": "function"
    },
    {
      "inputs": [
        {
          "internalType": "address",
          "name": "",
          "type": "address"
        }
      ],
      "name": "nbaTokenBalance",
      "outputs": [
        {
          "internalType": "uint256",
          "name": "",
          "type": "uint256"
        }
      ],
      "stateMutability": "view",
      "type": "function"
    },
    {
      "inputs": [],
      "name": "numGames",
      "outputs": [
        {
          "internalType": "uint256",
          "name": "",
          "type": "uint256"
        }
      ],
      "stateMutability": "view",
      "type": "function"
    },
    {
      "inputs": [],
      "name": "owner",
      "outputs": [
        {
          "internalType": "address",
          "name": "",
          "type": "address"
        }
      ],
      "stateMutability": "view",
      "type": "function"
    },
    {
      "inputs": [
        {
          "internalType": "address",
          "name": "",
          "type": "address"
        }
      ],
      "name": "teamsBetted",
      "outputs": [
        {
          "internalType": "uint8",
          "name": "",
          "type": "uint8"
        }
      ],
      "stateMutability": "view",
      "type": "function"
    },
    {
      "inputs": [
        {
          "internalType": "uint256",
          "name": "",
          "type": "uint256"
        }
      ],
      "name": "visitorTeam",
      "outputs": [
        {
          "internalType": "string",
          "name": "",
          "type": "string"
        }
      ],
      "stateMutability": "view",
      "type": "function"
    },
    {
      "inputs": [],
      "name": "getGameIds",
      "outputs": [],
      "stateMutability": "nonpayable",
      "type": "function"
    },
    {
      "inputs": [
        {
          "internalType": "bytes32",
          "name": "_requestId",
          "type": "bytes32"
        },
        {
          "internalType": "bytes32",
          "name": "_datetime",
          "type": "bytes32"
        }
      ],
      "name": "processTimeData",
      "outputs": [],
      "stateMutability": "nonpayable",
      "type": "function"
    },
    {
      "inputs": [
        {
          "internalType": "bytes32",
          "name": "_requestId",
          "type": "bytes32"
        },
        {
          "internalType": "uint256",
          "name": "_totalCount",
          "type": "uint256"
        }
      ],
      "name": "gamesToGet",
      "outputs": [],
      "stateMutability": "nonpayable",
      "type": "function"
    },
    {
      "inputs": [
        {
          "internalType": "bytes32",
          "name": "_requestId",
          "type": "bytes32"
        },
        {
          "internalType": "uint256",
          "name": "_id",
          "type": "uint256"
        }
      ],
      "name": "storeGameId",
      "outputs": [],
      "stateMutability": "nonpayable",
      "type": "function"
    },
    {
      "inputs": [
        {
          "internalType": "uint256",
          "name": "_amount",
          "type": "uint256"
        }
      ],
      "name": "depositOrWithdraw",
      "outputs": [],
      "stateMutability": "nonpayable",
      "type": "function"
    },
    {
      "inputs": [
        {
          "internalType": "uint8",
          "name": "_game",
          "type": "uint8"
        },
        {
          "internalType": "uint8",
          "name": "_team",
          "type": "uint8"
        },
        {
          "internalType": "uint256",
          "name": "_amount",
          "type": "uint256"
        }
      ],
      "name": "placeBet",
      "outputs": [],
      "stateMutability": "nonpayable",
      "type": "function"
    }
  ],
  "bytecode": "0x6080604052600160045573aa1dc356dc4b18f30c347798fd5379f3d77abc5b600660006101000a81548173ffffffffffffffffffffffffffffffffffffffff021916908373ffffffffffffffffffffffffffffffffffffffff1602179055503480156200006b57600080fd5b506040516200319638038062003196833981810160405260208110156200009157600080fd5b8101908080519060200190929190505050620000b26200013b60201b60201c565b80600860006101000a81548173ffffffffffffffffffffffffffffffffffffffff021916908373ffffffffffffffffffffffffffffffffffffffff16021790555033600760006101000a81548173ffffffffffffffffffffffffffffffffffffffff021916908373ffffffffffffffffffffffffffffffffffffffff1602179055505062000229565b620001e373c89bd4e1632d3a43cb03aaad5262cbe4038bc57173ffffffffffffffffffffffffffffffffffffffff166338cc48316040518163ffffffff1660e01b815260040160206040518083038186803b1580156200019a57600080fd5b505afa158015620001af573d6000803e3d6000fd5b505050506040513d6020811015620001c657600080fd5b8101908080519060200190929190505050620001e560201b60201c565b565b80600260006101000a81548173ffffffffffffffffffffffffffffffffffffffff021916908373ffffffffffffffffffffffffffffffffffffffff16021790555050565b612f5d80620002396000396000f3fe608060405234801561001057600080fd5b50600436106101585760003560e01c80638da5cb5b116100c3578063c3f010f71161007c578063c3f010f7146107d5578063cd32a2b6146107f3578063cfae61d314610821578063d82c13f0146108c8578063ec5afd741461090a578063fcd98a491461096657610158565b80638da5cb5b146105c457806392b070a61461060e5780639f668bba146106585780639fda5d6214610662578063a69f7a6d146106d0578063ace9c3ae1461077757610158565b8063536792901161011557806353679290146103485780636b747b21146103805780636deeebc4146103d85780636f6f289514610430578063850c70e8146104d75780638d5603131461057e57610158565b80630a77e7971461015d57806311ed5d6b146101b55780632b408dac146101ed5780632e458abf14610225578063323046b11461027d578063399b5c4614610300575b600080fd5b61019f6004803603602081101561017357600080fd5b81019080803573ffffffffffffffffffffffffffffffffffffffff1690602001909291905050506109c4565b6040518082815260200191505060405180910390f35b6101eb600480360360408110156101cb57600080fd5b8101908080359060200190929190803590602001909291905050506109dc565b005b6102236004803603604081101561020357600080fd5b810190808035906020019092919080359060200190929190505050610bf8565b005b6102676004803603602081101561023b57600080fd5b81019080803573ffffffffffffffffffffffffffffffffffffffff169060200190929190505050610d93565b6040518082815260200191505060405180910390f35b610285610dab565b6040518080602001828103825283818151815260200191508051906020019080838360005b838110156102c55780820151818401526020810190506102aa565b50505050905090810190601f1680156102f25780820380516001836020036101000a031916815260200191505b509250505060405180910390f35b6103466004803603606081101561031657600080fd5b81019080803560ff169060200190929190803560ff16906020019092919080359060200190929190505050610e49565b005b61037e6004803603604081101561035e57600080fd5b810190808035906020019092919080359060200190929190505050611390565b005b6103c26004803603602081101561039657600080fd5b81019080803573ffffffffffffffffffffffffffffffffffffffff1690602001909291905050506114ce565b6040518082815260200191505060405180910390f35b61041a600480360360208110156103ee57600080fd5b81019080803573ffffffffffffffffffffffffffffffffffffffff1690602001909291905050506114e6565b6040518082815260200191505060405180910390f35b61045c6004803603602081101561044657600080fd5b81019080803590602001909291905050506114fe565b6040518080602001828103825283818151815260200191508051906020019080838360005b8381101561049c578082015181840152602081019050610481565b50505050905090810190601f1680156104c95780820380516001836020036101000a031916815260200191505b509250505060405180910390f35b610503600480360360208110156104ed57600080fd5b81019080803590602001909291905050506115ae565b6040518080602001828103825283818151815260200191508051906020019080838360005b83811015610543578082015181840152602081019050610528565b50505050905090810190601f1680156105705780820380516001836020036101000a031916815260200191505b509250505060405180910390f35b6105aa6004803603602081101561059457600080fd5b810190808035906020019092919050505061165e565b604051808215151515815260200191505060405180910390f35b6105cc61167e565b604051808273ffffffffffffffffffffffffffffffffffffffff1673ffffffffffffffffffffffffffffffffffffffff16815260200191505060405180910390f35b6106166116a4565b604051808273ffffffffffffffffffffffffffffffffffffffff1673ffffffffffffffffffffffffffffffffffffffff16815260200191505060405180910390f35b6106606116ca565b005b61068e6004803603602081101561067857600080fd5b8101908080359060200190929190505050611d2e565b604051808273ffffffffffffffffffffffffffffffffffffffff1673ffffffffffffffffffffffffffffffffffffffff16815260200191505060405180910390f35b6106fc600480360360208110156106e657600080fd5b8101908080359060200190929190505050611d6a565b6040518080602001828103825283818151815260200191508051906020019080838360005b8381101561073c578082015181840152602081019050610721565b50505050905090810190601f1680156107695780820380516001836020036101000a031916815260200191505b509250505060405180910390f35b6107b96004803603602081101561078d57600080fd5b81019080803573ffffffffffffffffffffffffffffffffffffffff169060200190929190505050611e1a565b604051808260ff1660ff16815260200191505060405180910390f35b6107dd611e3a565b6040518082815260200191505060405180910390f35b61081f6004803603602081101561080957600080fd5b8101908080359060200190929190505050611e40565b005b61084d6004803603602081101561083757600080fd5b810190808035906020019092919050505061228b565b6040518080602001828103825283818151815260200191508051906020019080838360005b8381101561088d578082015181840152602081019050610872565b50505050905090810190601f1680156108ba5780820380516001836020036101000a031916815260200191505b509250505060405180910390f35b6108f4600480360360208110156108de57600080fd5b810190808035906020019092919050505061233b565b6040518082815260200191505060405180910390f35b61094c6004803603602081101561092057600080fd5b81019080803573ffffffffffffffffffffffffffffffffffffffff16906020019092919050505061235c565b604051808215151515815260200191505060405180910390f35b6109a86004803603602081101561097c57600080fd5b81019080803573ffffffffffffffffffffffffffffffffffffffff16906020019092919050505061237c565b604051808260ff1660ff16815260200191505060405180910390f35b60126020528060005260406000206000915090505481565b816005600082815260200190815260200160002060009054906101000a900473ffffffffffffffffffffffffffffffffffffffff1673ffffffffffffffffffffffffffffffffffffffff163373ffffffffffffffffffffffffffffffffffffffff1614610a94576040517f08c379a0000000000000000000000000000000000000000000000000000000008152600401808060200182810382526028815260200180612f006028913960400191505060405180910390fd5b6005600082815260200190815260200160002060006101000a81549073ffffffffffffffffffffffffffffffffffffffff0219169055807f7cc135e0cebb02c3480ae5d74d377283180a2601f8f644edf7987b009316c63a60405160405180910390a26060826040516020018082815260200191505060405160208183030381529060405290506060600a67ffffffffffffffff81118015610b3557600080fd5b506040519080825280601f01601f191660200182016040528015610b685781602001600182028036833780820191505090505b50905060008090505b600a811015610bd957828181518110610b8657fe5b602001015160f81c60f81b828281518110610b9d57fe5b60200101907effffffffffffffffffffffffffffffffffffffffffffffffffffffffffffff1916908160001a9053508080600101915050610b71565b508060099080519060200190610bf0929190612cfe565b505050505050565b816005600082815260200190815260200160002060009054906101000a900473ffffffffffffffffffffffffffffffffffffffff1673ffffffffffffffffffffffffffffffffffffffff163373ffffffffffffffffffffffffffffffffffffffff1614610cb0576040517f08c379a0000000000000000000000000000000000000000000000000000000008152600401808060200182810382526028815260200180612f006028913960400191505060405180910390fd5b6005600082815260200190815260200160002060006101000a81549073ffffffffffffffffffffffffffffffffffffffff0219169055807f7cc135e0cebb02c3480ae5d74d377283180a2601f8f644edf7987b009316c63a60405160405180910390a26014600083815260200190815260200160002060009054906101000a900460ff16610d625760138290806001815401808255809150506001900390600052602060002001600090919091909150555b60016014600084815260200190815260200160002060006101000a81548160ff021916908315150217905550505050565b60106020528060005260406000206000915090505481565b60098054600181600116156101000203166002900480601f016020809104026020016040519081016040528092919081815260200182805460018160011615610100020316600290048015610e415780601f10610e1657610100808354040283529160200191610e41565b820191906000526020600020905b815481529060010190602001808311610e2457829003601f168201915b505050505081565b60008360ff1610158015610e635750600360ff168360ff16105b610ed5576040517f08c379a00000000000000000000000000000000000000000000000000000000081526004018080602001828103825260138152602001807f43686f6f736520612076616c69642067616d650000000000000000000000000081525060200191505060405180910390fd5b60008260ff161480610eea575060018260ff16145b610f5c576040517f08c379a00000000000000000000000000000000000000000000000000000000081526004018080602001828103825260138152602001807f43686f6f736520612076616c6964207465616d0000000000000000000000000081525060200191505060405180910390fd5b60008111610fb5576040517f08c379a0000000000000000000000000000000000000000000000000000000008152600401808060200182810382526021815260200180612e606021913960400191505060405180910390fd5b80600c60003373ffffffffffffffffffffffffffffffffffffffff1673ffffffffffffffffffffffffffffffffffffffff1681526020019081526020016000205403600c60003373ffffffffffffffffffffffffffffffffffffffff1673ffffffffffffffffffffffffffffffffffffffff1681526020019081526020016000208190555082600a02600e60003373ffffffffffffffffffffffffffffffffffffffff1673ffffffffffffffffffffffffffffffffffffffff16815260200190815260200160002060009054906101000a900460ff1601600e60003373ffffffffffffffffffffffffffffffffffffffff1673ffffffffffffffffffffffffffffffffffffffff16815260200190815260200160002060006101000a81548160ff021916908360ff16021790555082600a830202600f60003373ffffffffffffffffffffffffffffffffffffffff1673ffffffffffffffffffffffffffffffffffffffff16815260200190815260200160002060009054906101000a900460ff1601600f60003373ffffffffffffffffffffffffffffffffffffffff1673ffffffffffffffffffffffffffffffffffffffff16815260200190815260200160002060006101000a81548160ff021916908360ff16021790555060008360ff1614156111e35780601060003373ffffffffffffffffffffffffffffffffffffffff1673ffffffffffffffffffffffffffffffffffffffff1681526020019081526020016000208190555061127e565b60018360ff1614156112385780601160003373ffffffffffffffffffffffffffffffffffffffff1673ffffffffffffffffffffffffffffffffffffffff1681526020019081526020016000208190555061127d565b80601260003373ffffffffffffffffffffffffffffffffffffffff1673ffffffffffffffffffffffffffffffffffffffff168152602001908152602001600020819055505b5b600d60003373ffffffffffffffffffffffffffffffffffffffff1673ffffffffffffffffffffffffffffffffffffffff16815260200190815260200160002060009054906101000a900460ff1661133357600b339080600181540180825580915050600190039060005260206000200160009091909190916101000a81548173ffffffffffffffffffffffffffffffffffffffff021916908373ffffffffffffffffffffffffffffffffffffffff1602179055505b6001600d60003373ffffffffffffffffffffffffffffffffffffffff1673ffffffffffffffffffffffffffffffffffffffff16815260200190815260200160002060006101000a81548160ff021916908315150217905550505050565b816005600082815260200190815260200160002060009054906101000a900473ffffffffffffffffffffffffffffffffffffffff1673ffffffffffffffffffffffffffffffffffffffff163373ffffffffffffffffffffffffffffffffffffffff1614611448576040517f08c379a0000000000000000000000000000000000000000000000000000000008152600401808060200182810382526028815260200180612f006028913960400191505060405180910390fd5b6005600082815260200190815260200160002060006101000a81549073ffffffffffffffffffffffffffffffffffffffff0219169055807f7cc135e0cebb02c3480ae5d74d377283180a2601f8f644edf7987b009316c63a60405160405180910390a2600f8211156114c157600f600a819055506114c9565b81600a819055505b505050565b60116020528060005260406000206000915090505481565b600c6020528060005260406000206000915090505481565b60156020528060005260406000206000915090508054600181600116156101000203166002900480601f0160208091040260200160405190810160405280929190818152602001828054600181600116156101000203166002900480156115a65780601f1061157b576101008083540402835291602001916115a6565b820191906000526020600020905b81548152906001019060200180831161158957829003601f168201915b505050505081565b60166020528060005260406000206000915090508054600181600116156101000203166002900480601f0160208091040260200160405190810160405280929190818152602001828054600181600116156101000203166002900480156116565780601f1061162b57610100808354040283529160200191611656565b820191906000526020600020905b81548152906001019060200180831161163957829003601f168201915b505050505081565b60146020528060005260406000206000915054906101000a900460ff1681565b600760009054906101000a900473ffffffffffffffffffffffffffffffffffffffff1681565b600860009054906101000a900473ffffffffffffffffffffffffffffffffffffffff1681565b600760009054906101000a900473ffffffffffffffffffffffffffffffffffffffff1673ffffffffffffffffffffffffffffffffffffffff163373ffffffffffffffffffffffffffffffffffffffff161461172457600080fd5b61172c612d7e565b61175e7f6237323835643438353964613462323839633738363164623937316261663061306311ed5d6b60e01b61239c565b90506117c26040518060400160405280600381526020017f6765740000000000000000000000000000000000000000000000000000000000815250604051806060016040528060358152602001612e2b60359139836123cd9092919063ffffffff16565b6118416040518060400160405280600481526020017f70617468000000000000000000000000000000000000000000000000000000008152506040518060400160405280600881526020017f6461746574696d65000000000000000000000000000000000000000000000000815250836123cd9092919063ffffffff16565b611876600660009054906101000a900473ffffffffffffffffffffffffffffffffffffffff168267016345785d8a0000612400565b5061187f612d7e565b6118b17f633764643732636131346234346630633962366366636434623765633061326330635367929060e01b61239c565b905061197b6040518060400160405280600381526020017f676574000000000000000000000000000000000000000000000000000000000081525060096040516020018080612ecd60339139603301828054600181600116156101000203166002900480156119575780601f10611935576101008083540402835291820191611957565b820191906000526020600020905b815481529060010190602001808311611943575b5050915050604051602081830303815290604052836123cd9092919063ffffffff16565b6119fa6040518060400160405280600481526020017f70617468000000000000000000000000000000000000000000000000000000008152506040518060400160405280601081526020017f6d6574612e746f74616c5f636f756e7400000000000000000000000000000000815250836123cd9092919063ffffffff16565b611a2f600660009054906101000a900473ffffffffffffffffffffffffffffffffffffffff168267016345785d8a0000612400565b5060008090505b600a548160ff161015611d29576060600167ffffffffffffffff81118015611a5d57600080fd5b506040519080825280601f01601f191660200182016040528015611a905781602001600182028036833780820191505090505b5090508160300160f81b81600081518110611aa757fe5b60200101907effffffffffffffffffffffffffffffffffffffffffffffffffffffffffffff1916908160001a9053506060819050611ae3612d7e565b611b157f633764643732636131346234346630633962366366636434623765633061326330632b408dac60e01b61239c565b9050611bdf6040518060400160405280600381526020017f676574000000000000000000000000000000000000000000000000000000000081525060096040516020018080612ecd6033913960330182805460018160011615610100020316600290048015611bbb5780601f10611b99576101008083540402835291820191611bbb565b820191906000526020600020905b815481529060010190602001808311611ba7575b5050915050604051602081830303815290604052836123cd9092919063ffffffff16565b611ce36040518060400160405280600481526020017f70617468000000000000000000000000000000000000000000000000000000008152508360405160200180807f646174612e00000000000000000000000000000000000000000000000000000081525060050182805190602001908083835b60208310611c775780518252602082019150602081019050602083039250611c54565b6001836020036101000a038019825116818451168082178552505050505050905001807f2e69640000000000000000000000000000000000000000000000000000000000815250600301915050604051602081830303815290604052836123cd9092919063ffffffff16565b611d18600660009054906101000a900473ffffffffffffffffffffffffffffffffffffffff168267016345785d8a0000612400565b505050508080600101915050611a36565b505050565b600b8181548110611d3b57fe5b906000526020600020016000915054906101000a900473ffffffffffffffffffffffffffffffffffffffff1681565b60176020528060005260406000206000915090508054600181600116156101000203166002900480601f016020809104026020016040519081016040528092919081815260200182805460018160011615610100020316600290048015611e125780601f10611de757610100808354040283529160200191611e12565b820191906000526020600020905b815481529060010190602001808311611df557829003601f168201915b505050505081565b600f6020528060005260406000206000915054906101000a900460ff1681565b600a5481565b600c60003373ffffffffffffffffffffffffffffffffffffffff1673ffffffffffffffffffffffffffffffffffffffff168152602001908152602001600020547fffffffffffffffffffffffffffffffffffffffffffffffffffffffffffffffff02811015611efa576040517f08c379a0000000000000000000000000000000000000000000000000000000008152600401808060200182810382526029815260200180612ea46029913960400191505060405180910390fd5b69d3c20dee1639f99c0000811115611f7a576040517f08c379a000000000000000000000000000000000000000000000000000000000815260040180806020018281038252601f8152602001807f43616e6e6f74206465706f736974206d6f7265207468616e203939393939390081525060200191505060405180910390fd5b6000811415611ff1576040517f08c379a000000000000000000000000000000000000000000000000000000000815260040180806020018281038252601c8152602001807f43616e6e6f74207769746864726177206f72206465706f73697420300000000081525060200191505060405180910390fd5b600081111561211457600860009054906101000a900473ffffffffffffffffffffffffffffffffffffffff1673ffffffffffffffffffffffffffffffffffffffff166323b872dd3330846040518463ffffffff1660e01b8152600401808473ffffffffffffffffffffffffffffffffffffffff1673ffffffffffffffffffffffffffffffffffffffff1681526020018373ffffffffffffffffffffffffffffffffffffffff1673ffffffffffffffffffffffffffffffffffffffff1681526020018281526020019350505050602060405180830381600087803b1580156120d757600080fd5b505af11580156120eb573d6000803e3d6000fd5b505050506040513d602081101561210157600080fd5b8101908080519060200190929190505050505b600081101561220357600860009054906101000a900473ffffffffffffffffffffffffffffffffffffffff1673ffffffffffffffffffffffffffffffffffffffff1663a9059cbb33836040518363ffffffff1660e01b8152600401808373ffffffffffffffffffffffffffffffffffffffff1673ffffffffffffffffffffffffffffffffffffffff16815260200182815260200192505050602060405180830381600087803b1580156121c657600080fd5b505af11580156121da573d6000803e3d6000fd5b505050506040513d60208110156121f057600080fd5b8101908080519060200190929190505050505b80600c60003373ffffffffffffffffffffffffffffffffffffffff1673ffffffffffffffffffffffffffffffffffffffff1681526020019081526020016000205401600c60003373ffffffffffffffffffffffffffffffffffffffff1673ffffffffffffffffffffffffffffffffffffffff1681526020019081526020016000208190555050565b60186020528060005260406000206000915090508054600181600116156101000203166002900480601f0160208091040260200160405190810160405280929190818152602001828054600181600116156101000203166002900480156123335780601f1061230857610100808354040283529160200191612333565b820191906000526020600020905b81548152906001019060200180831161231657829003601f168201915b505050505081565b6013818154811061234857fe5b906000526020600020016000915090505481565b600d6020528060005260406000206000915054906101000a900460ff1681565b600e6020528060005260406000206000915054906101000a900460ff1681565b6123a4612d7e565b6123ac612d7e565b6123c3858585846126b8909392919063ffffffff16565b9150509392505050565b6123e482846080015161276890919063ffffffff16565b6123fb81846080015161276890919063ffffffff16565b505050565b600030600454604051602001808373ffffffffffffffffffffffffffffffffffffffff1673ffffffffffffffffffffffffffffffffffffffff1660601b815260140182815260200192505050604051602081830303815290604052805190602001209050600454836060018181525050836005600083815260200190815260200160002060006101000a81548173ffffffffffffffffffffffffffffffffffffffff021916908373ffffffffffffffffffffffffffffffffffffffff160217905550807fb5e6e01e79f91267dc17b4e6314d5d4d03593d2ceee0fbb452b750bd70ea5af960405160405180910390a2600260009054906101000a900473ffffffffffffffffffffffffffffffffffffffff1673ffffffffffffffffffffffffffffffffffffffff16634000aea085846125388761278d565b6040518463ffffffff1660e01b8152600401808473ffffffffffffffffffffffffffffffffffffffff1673ffffffffffffffffffffffffffffffffffffffff16815260200183815260200180602001828103825283818151815260200191508051906020019080838360005b838110156125bf5780820151818401526020810190506125a4565b50505050905090810190601f1680156125ec5780820380516001836020036101000a031916815260200191505b50945050505050602060405180830381600087803b15801561260d57600080fd5b505af1158015612621573d6000803e3d6000fd5b505050506040513d602081101561263757600080fd5b810190808051906020019092919050505061269d576040517f08c379a0000000000000000000000000000000000000000000000000000000008152600401808060200182810382526023815260200180612e816023913960400191505060405180910390fd5b60016004600082825401925050819055508090509392505050565b6126c0612d7e565b6126d08560800151610100612959565b508385600001818152505082856020019073ffffffffffffffffffffffffffffffffffffffff16908173ffffffffffffffffffffffffffffffffffffffff16815250508185604001907bffffffffffffffffffffffffffffffffffffffffffffffffffffffff191690817bffffffffffffffffffffffffffffffffffffffffffffffffffffffff191681525050849050949350505050565b61277582600383516129ad565b6127888183612af290919063ffffffff16565b505050565b6060634042994660e01b60008084600001518560200151866040015187606001516001896080015160000151604051602401808973ffffffffffffffffffffffffffffffffffffffff1673ffffffffffffffffffffffffffffffffffffffff1681526020018881526020018781526020018673ffffffffffffffffffffffffffffffffffffffff1673ffffffffffffffffffffffffffffffffffffffff168152602001857bffffffffffffffffffffffffffffffffffffffffffffffffffffffff19167bffffffffffffffffffffffffffffffffffffffffffffffffffffffff1916815260200184815260200183815260200180602001828103825283818151815260200191508051906020019080838360005b838110156128bc5780820151818401526020810190506128a1565b50505050905090810190601f1680156128e95780820380516001836020036101000a031916815260200191505b509950505050505050505050604051602081830303815290604052907bffffffffffffffffffffffffffffffffffffffffffffffffffffffff19166020820180517bffffffffffffffffffffffffffffffffffffffffffffffffffffffff83818316178352505050509050919050565b612961612deb565b60006020838161296d57fe5b0614612986576020828161297d57fe5b06602003820191505b81836020018181525050604051808452600081528281016020016040525082905092915050565b601781116129da576129d48160058460ff16901b60ff161784612b1490919063ffffffff16565b50612aed565b60ff8111612a1c576129ff601860058460ff16901b1784612b1490919063ffffffff16565b50612a1681600185612b349092919063ffffffff16565b50612aec565b61ffff8111612a5f57612a42601960058460ff16901b1784612b1490919063ffffffff16565b50612a5981600285612b349092919063ffffffff16565b50612aeb565b63ffffffff8111612aa457612a87601a60058460ff16901b1784612b1490919063ffffffff16565b50612a9e81600485612b349092919063ffffffff16565b50612aea565b67ffffffffffffffff8111612ae957612ad0601b60058460ff16901b1784612b1490919063ffffffff16565b50612ae781600885612b349092919063ffffffff16565b505b5b5b5b5b505050565b612afa612deb565b612b0c83846000015151848551612b56565b905092915050565b612b1c612deb565b612b2c8384600001515184612c0f565b905092915050565b612b3c612deb565b612b4d848560000151518585612c5d565b90509392505050565b612b5e612deb565b8251821115612b6c57600080fd5b84602001518285011115612b9757612b96856002612b908860200151888701612cbe565b02612cda565b5b600080865180518760208301019350808887011115612bb65787860182525b60208701925050505b60208410612be25780518252602082019150602081019050602084039350612bbf565b60006001856020036101000a03905080198251168184511681811785525050879350505050949350505050565b612c17612deb565b83602001518310612c3457612c33846002866020015102612cda565b5b8351805160208583010184815381861415612c50576001820183525b5050508390509392505050565b612c65612deb565b84602001518483011115612c8357612c8285600286850102612cda565b5b60006001836101000a0390508551838682010185831982511617815281518588011115612cb05784870182525b505085915050949350505050565b600081831115612cd057829050612cd4565b8190505b92915050565b606082600001519050612ced8383612959565b50612cf88382612af2565b50505050565b828054600181600116156101000203166002900490600052602060002090601f016020900481019282601f10612d3f57805160ff1916838001178555612d6d565b82800160010185558215612d6d579182015b82811115612d6c578251825591602001919060010190612d51565b5b509050612d7a9190612e05565b5090565b6040518060a0016040528060008019168152602001600073ffffffffffffffffffffffffffffffffffffffff16815260200160007bffffffffffffffffffffffffffffffffffffffffffffffffffffffff1916815260200160008152602001612de5612deb565b81525090565b604051806040016040528060608152602001600081525090565b612e2791905b80821115612e23576000816000905550600101612e0b565b5090565b9056fe687474703a2f2f776f726c6474696d656170692e6f72672f6170692f74696d657a6f6e652f416d65726963612f4e65775f596f726b4d7573742062657420616e20616d6f756e742067726561746572207468616e2030756e61626c6520746f207472616e73666572416e6443616c6c20746f206f7261636c6543616e6e6f74207769746864726177206d6f7265207468616e206163636f756e742062616c616e636568747470733a2f2f7777772e62616c6c646f6e746c69652e696f2f6170692f76312f67616d65733f73746172745f646174653d536f75726365206d75737420626520746865206f7261636c65206f66207468652072657175657374a26469706673582212207027fbdfbbe1a88b9000c23b56deea1779c4ed38a80c6b7a7c189567237a2cf064736f6c63430006060033",
  "immutableReferences": {},
  "source": "pragma solidity ^0.6.0;\r\n\r\nimport \"@openzeppelin/contracts/token/ERC20/IERC20.sol\";\r\nimport \"@chainlink/contracts/src/v0.6/ChainlinkClient.sol\";\r\n\r\ncontract NbaBetting is ChainlinkClient {\r\n    uint8 constant private MAX_GAMES = 3; //Only 3 future games to bet on\r\n    uint8 constant private GAME_OFFSET = 10;\r\n    uint constant private DATE_FROM_API = 10;\r\n    uint constant private FUTURE_GAMES = 15;\r\n    uint8 constant private INT_ASCII_OFFSET = 48;\r\n    uint constant private MAX_DEPOSIT = 999999000000000000000000;\r\n\r\n    //Address of Kovan network oracle which contains Get > bytes32 job\r\n    //Found on market.link\r\n    address private ORACLE_ADDRESS = 0xAA1DC356dc4B18f30C347798FD5379F3D77ABC5b;\r\n    //Job ID of Get > bytes32 job\r\n    //Found on market.link\r\n    bytes32 constant private BYTES_JOB = \"b7285d4859da4b289c7861db971baf0a\";\r\n    //Job ID of Get > uint256 job\r\n    //Found on market.link\r\n    bytes32 constant private UINT_JOB = \"c7dd72ca14b44f0c9b6cfcd4b7ec0a2c\";\r\n    //LINK payment for Get > bytes32 and Get > uint256 jobs (0.1 LINK)\r\n    //1 LINK  = 1 * (10^18)\r\n    uint constant private LINK_PAYMENT = 100000000000000000;\r\n\r\n    address public owner;\r\n    IERC20 public nbaToken;\r\n    string public date;\r\n    uint public numGames;\r\n\r\n    //Array that contains betters and their attributes\r\n    address[] public betters;\r\n    mapping(address => uint) public nbaTokenBalance;\r\n    mapping(address => bool) public hasBetted;\r\n    mapping(address => uint8) public gamesBetted;\r\n    mapping(address => uint8) public teamsBetted;\r\n    mapping(address => uint) public betAmount1;\r\n    mapping(address => uint) public betAmount2;\r\n    mapping(address => uint) public betAmount3;\r\n\r\n    //Array that contains upcoming games and their attributes\r\n    uint[] public gameIds;\r\n    mapping(uint => bool) public isStored;\r\n    mapping(uint => string) public homeTeam;\r\n    mapping(uint => string) public visitorTeam;\r\n    mapping(uint => string) public gameDate;\r\n    mapping(uint => string) public gameTime;\r\n\r\n    constructor(IERC20 _nbaTokenAddress) public {\r\n        setPublicChainlinkToken(); //Set the address for the LINK token\r\n        nbaToken = IERC20(_nbaTokenAddress);\r\n        owner = msg.sender;\r\n    }\r\n\r\n    /* \r\n     * Allow owner to get future games\r\n     * NBA API instructions: https://www.balldontlie.io/#get-all-games\r\n     * World Clock API: http://worldtimeapi.org/ \r\n     */\r\n    function getGameIds() public onlyOwner {\r\n        //Get time data\r\n        Chainlink.Request memory reqDate = \r\n            buildChainlinkRequest(BYTES_JOB, address(this), \r\n                                  this.processTimeData.selector);\r\n        //Get date in EDT\r\n        reqDate.add(\"get\", \r\n                 \"http://worldtimeapi.org/api/timezone/America/New_York\");\r\n        //Path to date and time\r\n        reqDate.add(\"path\", \"datetime\");\r\n        sendChainlinkRequestTo(ORACLE_ADDRESS, reqDate, LINK_PAYMENT);\r\n\r\n        //Get all upcoming games\r\n        Chainlink.Request memory reqGames = \r\n            buildChainlinkRequest(UINT_JOB, address(this), \r\n                                  this.gamesToGet.selector);\r\n        //Get next 15 games if possible\r\n        reqGames.add(\"get\", \r\n                 string(abi.encodePacked(\r\n                 \"https://www.balldontlie.io/api/v1/games?start_date=\", \r\n                 date)));\r\n        //Path to total number of games\r\n        reqGames.add(\"path\", \"meta.total_count\");\r\n        sendChainlinkRequestTo(ORACLE_ADDRESS, reqGames, LINK_PAYMENT);\r\n\r\n        //Get game data for all upcoming games\r\n        for(uint8 i = 0; i < numGames; i++){\r\n            bytes memory _gameNum = new bytes(1);\r\n            _gameNum[0] = byte(INT_ASCII_OFFSET + i);\r\n            string memory gameNum = string(_gameNum);\r\n            //Get gameId\r\n            Chainlink.Request memory reqId = \r\n                buildChainlinkRequest(UINT_JOB, address(this), \r\n                                      this.storeGameId.selector);\r\n            reqId.add(\"get\", \r\n                      string(abi.encodePacked(\r\n                      \"https://www.balldontlie.io/api/v1/games?start_date=\", \r\n                      date)));\r\n            reqId.add(\"path\", string(abi.encodePacked(\"data.\", gameNum, \r\n                      \".id\")));\r\n            sendChainlinkRequestTo(ORACLE_ADDRESS, reqId, LINK_PAYMENT);\r\n        }\r\n    }\r\n\r\n    function processTimeData(bytes32 _requestId, bytes32 _datetime) public \r\n             recordChainlinkFulfillment(_requestId) {\r\n        //Create arrays to parse date from _datetime\r\n        bytes memory datetime = abi.encodePacked(_datetime);\r\n        bytes memory _date = new bytes(DATE_FROM_API);\r\n\r\n        //Extract date from datetime\r\n        for(uint i = 0; i < DATE_FROM_API; i++){\r\n            _date[i] = datetime[i];\r\n        }\r\n\r\n        //Save date\r\n        date = string(_date);\r\n    }\r\n\r\n    function gamesToGet(bytes32 _requestId, uint _totalCount) public \r\n             recordChainlinkFulfillment(_requestId) {\r\n        if(_totalCount > FUTURE_GAMES){\r\n            numGames = FUTURE_GAMES;\r\n        }else{\r\n            numGames = _totalCount;\r\n        }\r\n    }\r\n\r\n    function storeGameId(bytes32 _requestId, uint _id) public \r\n             recordChainlinkFulfillment(_requestId) {\r\n        if(!isStored[_id]){\r\n            gameIds.push(_id);\r\n        }\r\n        isStored[_id] = true;\r\n    }\r\n\r\n    /*function getFutureGamesData() public onlyOwner {\r\n        for(uint i = 0; i < gameIds.length; i++){\r\n            //Check for invalid game ID\r\n            if(gameIds[i] == 0){\r\n                break;\r\n            }\r\n\r\n            //Get home team\r\n            Chainlink.Request memory reqHome = \r\n            buildChainlinkRequest(BYTES_JOB, address(this), \r\n                                  this.processTimeData.selector);\r\n\r\n            //Get visitor team\r\n            //Get game time and date\r\n        }\r\n    }*/\r\n\r\n    /*TODO: function rewardBets() public onlyOwner {\r\n\r\n    }*/\r\n\r\n    /* Allow users to deposit or withdraw NbaTokens */\r\n    function depositOrWithdraw(uint _amount) public {\r\n        require(_amount >= (uint(-1) * nbaTokenBalance[msg.sender]), \r\n                \"Cannot withdraw more than account balance\");\r\n        require(_amount <= MAX_DEPOSIT, \"Cannot deposit more than 999999\");\r\n        require(_amount != 0, \"Cannot withdraw or deposit 0\");\r\n\r\n        //Deposit\r\n        if(_amount > 0){\r\n            nbaToken.transferFrom(msg.sender, address(this), _amount);\r\n        }\r\n\r\n        //Withdraw\r\n        if(_amount < 0){\r\n            nbaToken.transfer(msg.sender, _amount);\r\n        }\r\n\r\n        nbaTokenBalance[msg.sender] = nbaTokenBalance[msg.sender] + _amount;\r\n    }\r\n\r\n    /* Allow users to place bets */\r\n    function placeBet(uint8 _game, uint8 _team, uint _amount) public {\r\n        require(_game >= 0 && _game < MAX_GAMES, \"Choose a valid game\");\r\n        require(_team == 0 || _team == 1, \"Choose a valid team\");\r\n        require(_amount > 0, \"Must bet an amount greater than 0\");\r\n\r\n        //Transfer tokens from user\r\n        nbaTokenBalance[msg.sender] = nbaTokenBalance[msg.sender] - _amount;\r\n\r\n        //Update relevant attributes of user\r\n        gamesBetted[msg.sender] = gamesBetted[msg.sender] \r\n                                  + (GAME_OFFSET * _game);\r\n        teamsBetted[msg.sender] = teamsBetted[msg.sender] \r\n                                  + (_team * GAME_OFFSET * _game);\r\n        if(_game == 0){\r\n            betAmount1[msg.sender] = _amount;\r\n        }else if(_game == 1){\r\n            betAmount2[msg.sender] = _amount;\r\n        }else{\r\n            betAmount3[msg.sender] = _amount;\r\n        }\r\n\r\n        //Add user to betters array\r\n        if(!hasBetted[msg.sender]){\r\n            betters.push(msg.sender);\r\n        }\r\n        hasBetted[msg.sender] = true;\r\n    }\r\n    \r\n    /*TODO: function getBetInfo() public {\r\n        \r\n    }*/\r\n\r\n    modifier onlyOwner() {\r\n        require(msg.sender == owner);\r\n        _;\r\n    }\r\n}",
  "sourcePath": "C:/Users/Minh Dinh/Desktop/Projects/chainlink-hackathon-project/src/contracts/NbaBetting.sol",
  "compiler": {
    "name": "solc",
    "version": "0.6.6+commit.6c089d02.Emscripten.clang"
  },
  "schemaVersion": "3.2.5",
  "updatedAt": "2020-09-22T23:35:58.521Z",
  "devdoc": {
    "methods": {}
  },
  "userdoc": {
    "methods": {}
  }
}