{
  "contractName": "NbaBetting",
  "abi": [
    {
      "inputs": [
        {
          "internalType": "address",
          "name": "_nbaTokenAddress",
          "type": "address"
        }
      ],
      "stateMutability": "nonpayable",
      "type": "constructor"
    },
    {
      "anonymous": false,
      "inputs": [
        {
          "indexed": true,
          "internalType": "bytes32",
          "name": "id",
          "type": "bytes32"
        }
      ],
      "name": "ChainlinkCancelled",
      "type": "event"
    },
    {
      "anonymous": false,
      "inputs": [
        {
          "indexed": true,
          "internalType": "bytes32",
          "name": "id",
          "type": "bytes32"
        }
      ],
      "name": "ChainlinkFulfilled",
      "type": "event"
    },
    {
      "anonymous": false,
      "inputs": [
        {
          "indexed": true,
          "internalType": "bytes32",
          "name": "id",
          "type": "bytes32"
        }
      ],
      "name": "ChainlinkRequested",
      "type": "event"
    },
    {
      "inputs": [
        {
          "internalType": "address",
          "name": "",
          "type": "address"
        },
        {
          "internalType": "uint256",
          "name": "",
          "type": "uint256"
        }
      ],
      "name": "betAmounts",
      "outputs": [
        {
          "internalType": "uint256",
          "name": "",
          "type": "uint256"
        }
      ],
      "stateMutability": "view",
      "type": "function"
    },
    {
      "inputs": [
        {
          "internalType": "uint256",
          "name": "",
          "type": "uint256"
        }
      ],
      "name": "betters",
      "outputs": [
        {
          "internalType": "address",
          "name": "",
          "type": "address"
        }
      ],
      "stateMutability": "view",
      "type": "function"
    },
    {
      "inputs": [],
      "name": "date",
      "outputs": [
        {
          "internalType": "string",
          "name": "",
          "type": "string"
        }
      ],
      "stateMutability": "view",
      "type": "function"
    },
    {
      "inputs": [
        {
          "internalType": "uint256",
          "name": "",
          "type": "uint256"
        }
      ],
      "name": "gameDate",
      "outputs": [
        {
          "internalType": "string",
          "name": "",
          "type": "string"
        }
      ],
      "stateMutability": "view",
      "type": "function"
    },
    {
      "inputs": [
        {
          "internalType": "uint256",
          "name": "",
          "type": "uint256"
        }
      ],
      "name": "gameIds",
      "outputs": [
        {
          "internalType": "uint256",
          "name": "",
          "type": "uint256"
        }
      ],
      "stateMutability": "view",
      "type": "function"
    },
    {
      "inputs": [
        {
          "internalType": "uint256",
          "name": "",
          "type": "uint256"
        }
      ],
      "name": "gameTime",
      "outputs": [
        {
          "internalType": "string",
          "name": "",
          "type": "string"
        }
      ],
      "stateMutability": "view",
      "type": "function"
    },
    {
      "inputs": [
        {
          "internalType": "address",
          "name": "",
          "type": "address"
        },
        {
          "internalType": "uint256",
          "name": "",
          "type": "uint256"
        }
      ],
      "name": "gamesBetted",
      "outputs": [
        {
          "internalType": "uint8",
          "name": "",
          "type": "uint8"
        }
      ],
      "stateMutability": "view",
      "type": "function"
    },
    {
      "inputs": [
        {
          "internalType": "address",
          "name": "",
          "type": "address"
        }
      ],
      "name": "hasBetted",
      "outputs": [
        {
          "internalType": "bool",
          "name": "",
          "type": "bool"
        }
      ],
      "stateMutability": "view",
      "type": "function"
    },
    {
      "inputs": [
        {
          "internalType": "uint256",
          "name": "",
          "type": "uint256"
        }
      ],
      "name": "homeTeam",
      "outputs": [
        {
          "internalType": "string",
          "name": "",
          "type": "string"
        }
      ],
      "stateMutability": "view",
      "type": "function"
    },
    {
      "inputs": [
        {
          "internalType": "uint256",
          "name": "",
          "type": "uint256"
        }
      ],
      "name": "isStored",
      "outputs": [
        {
          "internalType": "bool",
          "name": "",
          "type": "bool"
        }
      ],
      "stateMutability": "view",
      "type": "function"
    },
    {
      "inputs": [],
      "name": "nbaToken",
      "outputs": [
        {
          "internalType": "contract IERC20",
          "name": "",
          "type": "address"
        }
      ],
      "stateMutability": "view",
      "type": "function"
    },
    {
      "inputs": [
        {
          "internalType": "address",
          "name": "",
          "type": "address"
        }
      ],
      "name": "nbaTokenBalance",
      "outputs": [
        {
          "internalType": "uint256",
          "name": "",
          "type": "uint256"
        }
      ],
      "stateMutability": "view",
      "type": "function"
    },
    {
      "inputs": [],
      "name": "numGames",
      "outputs": [
        {
          "internalType": "uint256",
          "name": "",
          "type": "uint256"
        }
      ],
      "stateMutability": "view",
      "type": "function"
    },
    {
      "inputs": [],
      "name": "owner",
      "outputs": [
        {
          "internalType": "address",
          "name": "",
          "type": "address"
        }
      ],
      "stateMutability": "view",
      "type": "function"
    },
    {
      "inputs": [
        {
          "internalType": "address",
          "name": "",
          "type": "address"
        },
        {
          "internalType": "uint256",
          "name": "",
          "type": "uint256"
        }
      ],
      "name": "teamsBetted",
      "outputs": [
        {
          "internalType": "uint8",
          "name": "",
          "type": "uint8"
        }
      ],
      "stateMutability": "view",
      "type": "function"
    },
    {
      "inputs": [],
      "name": "tempGameDate",
      "outputs": [
        {
          "internalType": "string",
          "name": "",
          "type": "string"
        }
      ],
      "stateMutability": "view",
      "type": "function"
    },
    {
      "inputs": [],
      "name": "tempGameId",
      "outputs": [
        {
          "internalType": "uint256",
          "name": "",
          "type": "uint256"
        }
      ],
      "stateMutability": "view",
      "type": "function"
    },
    {
      "inputs": [],
      "name": "tempGameTime",
      "outputs": [
        {
          "internalType": "string",
          "name": "",
          "type": "string"
        }
      ],
      "stateMutability": "view",
      "type": "function"
    },
    {
      "inputs": [],
      "name": "tempHomeScore",
      "outputs": [
        {
          "internalType": "uint256",
          "name": "",
          "type": "uint256"
        }
      ],
      "stateMutability": "view",
      "type": "function"
    },
    {
      "inputs": [],
      "name": "tempHomeTeam",
      "outputs": [
        {
          "internalType": "string",
          "name": "",
          "type": "string"
        }
      ],
      "stateMutability": "view",
      "type": "function"
    },
    {
      "inputs": [],
      "name": "tempStatus",
      "outputs": [
        {
          "internalType": "string",
          "name": "",
          "type": "string"
        }
      ],
      "stateMutability": "view",
      "type": "function"
    },
    {
      "inputs": [],
      "name": "tempVisitorScore",
      "outputs": [
        {
          "internalType": "uint256",
          "name": "",
          "type": "uint256"
        }
      ],
      "stateMutability": "view",
      "type": "function"
    },
    {
      "inputs": [],
      "name": "tempVisitorTeam",
      "outputs": [
        {
          "internalType": "string",
          "name": "",
          "type": "string"
        }
      ],
      "stateMutability": "view",
      "type": "function"
    },
    {
      "inputs": [
        {
          "internalType": "uint256",
          "name": "",
          "type": "uint256"
        }
      ],
      "name": "visitorTeam",
      "outputs": [
        {
          "internalType": "string",
          "name": "",
          "type": "string"
        }
      ],
      "stateMutability": "view",
      "type": "function"
    },
    {
      "inputs": [],
      "name": "getGameIds",
      "outputs": [],
      "stateMutability": "nonpayable",
      "type": "function"
    },
    {
      "inputs": [
        {
          "internalType": "bytes32",
          "name": "_requestId",
          "type": "bytes32"
        },
        {
          "internalType": "bytes32",
          "name": "_datetime",
          "type": "bytes32"
        }
      ],
      "name": "processTimeData",
      "outputs": [],
      "stateMutability": "nonpayable",
      "type": "function"
    },
    {
      "inputs": [
        {
          "internalType": "bytes32",
          "name": "_requestId",
          "type": "bytes32"
        },
        {
          "internalType": "uint256",
          "name": "_totalCount",
          "type": "uint256"
        }
      ],
      "name": "gamesToGet",
      "outputs": [],
      "stateMutability": "nonpayable",
      "type": "function"
    },
    {
      "inputs": [
        {
          "internalType": "bytes32",
          "name": "_requestId",
          "type": "bytes32"
        },
        {
          "internalType": "uint256",
          "name": "_id",
          "type": "uint256"
        }
      ],
      "name": "storeGameId",
      "outputs": [],
      "stateMutability": "nonpayable",
      "type": "function"
    },
    {
      "inputs": [],
      "name": "getFutureGamesData",
      "outputs": [],
      "stateMutability": "nonpayable",
      "type": "function"
    },
    {
      "inputs": [
        {
          "internalType": "bytes32",
          "name": "_requestId",
          "type": "bytes32"
        },
        {
          "internalType": "bytes32",
          "name": "_homeTeam",
          "type": "bytes32"
        }
      ],
      "name": "storeHomeData",
      "outputs": [],
      "stateMutability": "nonpayable",
      "type": "function"
    },
    {
      "inputs": [
        {
          "internalType": "bytes32",
          "name": "_requestId",
          "type": "bytes32"
        },
        {
          "internalType": "bytes32",
          "name": "_visitorTeam",
          "type": "bytes32"
        }
      ],
      "name": "storeVisitorData",
      "outputs": [],
      "stateMutability": "nonpayable",
      "type": "function"
    },
    {
      "inputs": [
        {
          "internalType": "bytes32",
          "name": "_requestId",
          "type": "bytes32"
        },
        {
          "internalType": "bytes32",
          "name": "_date",
          "type": "bytes32"
        }
      ],
      "name": "storeDateData",
      "outputs": [],
      "stateMutability": "nonpayable",
      "type": "function"
    },
    {
      "inputs": [
        {
          "internalType": "bytes32",
          "name": "_requestId",
          "type": "bytes32"
        },
        {
          "internalType": "bytes32",
          "name": "_time",
          "type": "bytes32"
        }
      ],
      "name": "storeTimeData",
      "outputs": [],
      "stateMutability": "nonpayable",
      "type": "function"
    },
    {
      "inputs": [
        {
          "internalType": "uint256",
          "name": "_amount",
          "type": "uint256"
        }
      ],
      "name": "deposit",
      "outputs": [],
      "stateMutability": "nonpayable",
      "type": "function"
    },
    {
      "inputs": [
        {
          "internalType": "uint256",
          "name": "_amount",
          "type": "uint256"
        }
      ],
      "name": "withdraw",
      "outputs": [],
      "stateMutability": "nonpayable",
      "type": "function"
    },
    {
      "inputs": [
        {
          "internalType": "uint8",
          "name": "_game",
          "type": "uint8"
        },
        {
          "internalType": "uint8",
          "name": "_team",
          "type": "uint8"
        },
        {
          "internalType": "uint256",
          "name": "_amount",
          "type": "uint256"
        }
      ],
      "name": "placeBet",
      "outputs": [],
      "stateMutability": "nonpayable",
      "type": "function"
    },
    {
      "inputs": [],
      "name": "rewardBets",
      "outputs": [],
      "stateMutability": "nonpayable",
      "type": "function"
    },
    {
      "inputs": [
        {
          "internalType": "bytes32",
          "name": "_requestId",
          "type": "bytes32"
        },
        {
          "internalType": "bytes32",
          "name": "_status",
          "type": "bytes32"
        }
      ],
      "name": "checkGameStatus",
      "outputs": [],
      "stateMutability": "nonpayable",
      "type": "function"
    },
    {
      "inputs": [
        {
          "internalType": "bytes32",
          "name": "_requestId",
          "type": "bytes32"
        },
        {
          "internalType": "uint256",
          "name": "_homeScore",
          "type": "uint256"
        }
      ],
      "name": "homeScore",
      "outputs": [],
      "stateMutability": "nonpayable",
      "type": "function"
    },
    {
      "inputs": [
        {
          "internalType": "bytes32",
          "name": "_requestId",
          "type": "bytes32"
        },
        {
          "internalType": "uint256",
          "name": "_visitorScore",
          "type": "uint256"
        }
      ],
      "name": "visitorScore",
      "outputs": [],
      "stateMutability": "nonpayable",
      "type": "function"
    },
    {
      "inputs": [
        {
          "internalType": "uint256",
          "name": "_convert",
          "type": "uint256"
        }
      ],
      "name": "convertUintToString",
      "outputs": [
        {
          "internalType": "string",
          "name": "",
          "type": "string"
        }
      ],
      "stateMutability": "pure",
      "type": "function"
    },
    {
      "inputs": [
        {
          "internalType": "bytes32",
          "name": "_job",
          "type": "bytes32"
        },
        {
          "internalType": "bytes4",
          "name": "_selector",
          "type": "bytes4"
        },
        {
          "internalType": "string",
          "name": "_api",
          "type": "string"
        },
        {
          "internalType": "string",
          "name": "_path",
          "type": "string"
        }
      ],
      "name": "makeApiCall",
      "outputs": [],
      "stateMutability": "nonpayable",
      "type": "function"
    },
    {
      "inputs": [
        {
          "internalType": "uint256",
          "name": "_gameId",
          "type": "uint256"
        }
      ],
      "name": "getGameHome",
      "outputs": [
        {
          "internalType": "string",
          "name": "",
          "type": "string"
        }
      ],
      "stateMutability": "view",
      "type": "function"
    },
    {
      "inputs": [
        {
          "internalType": "uint256",
          "name": "_gameId",
          "type": "uint256"
        }
      ],
      "name": "getGameVisitor",
      "outputs": [
        {
          "internalType": "string",
          "name": "",
          "type": "string"
        }
      ],
      "stateMutability": "view",
      "type": "function"
    },
    {
      "inputs": [
        {
          "internalType": "uint256",
          "name": "_gameId",
          "type": "uint256"
        }
      ],
      "name": "getGameDate",
      "outputs": [
        {
          "internalType": "string",
          "name": "",
          "type": "string"
        }
      ],
      "stateMutability": "view",
      "type": "function"
    },
    {
      "inputs": [
        {
          "internalType": "uint256",
          "name": "_gameId",
          "type": "uint256"
        }
      ],
      "name": "getGameTime",
      "outputs": [
        {
          "internalType": "string",
          "name": "",
          "type": "string"
        }
      ],
      "stateMutability": "view",
      "type": "function"
    }
  ],
  "bytecode": "0x6080604052600160045573aa1dc356dc4b18f30c347798fd5379f3d77abc5b600660006101000a81548173ffffffffffffffffffffffffffffffffffffffff021916908373ffffffffffffffffffffffffffffffffffffffff1602179055503480156200006b57600080fd5b5060405162005a7638038062005a76833981810160405260208110156200009157600080fd5b810190808051906020019092919050505080600860006101000a81548173ffffffffffffffffffffffffffffffffffffffff021916908373ffffffffffffffffffffffffffffffffffffffff16021790555033600760006101000a81548173ffffffffffffffffffffffffffffffffffffffff021916908373ffffffffffffffffffffffffffffffffffffffff1602179055505061594180620001356000396000f3fe608060405234801561001057600080fd5b506004361061028a5760003560e01c80638d5603131161015c578063c3f010f7116100ce578063d82c13f011610087578063d82c13f01461124e578063dc7e462e14611290578063e84b19331461129a578063ec5afd74146112a4578063ee5b977b14611300578063fed95b99146113385761028a565b8063c3f010f714610fd9578063c702738d14610ff7578063c806bd591461105f578063cf4da95f146110e2578063cfae61d314611189578063d743dc3c146112305761028a565b80639fda5d62116101205780639fda5d6214610d10578063a69f7a6d14610d7e578063ac22ab0c14610e25578063b6b55f2514610ecc578063bfbbdd7814610efa578063c100cdb614610fa15761028a565b80638d56031314610ba95780638da5cb5b14610bef57806392b070a614610c395780639d12286214610c835780639f668bba14610d065761028a565b80633ef5e8a211610200578063677f9f12116101b9578063677f9f12146107dd5780636826b637146107fb5780636deeebc4146109805780636ea18a0b146109d85780636f6f289514610a5b578063850c70e814610b025761028a565b80633ef5e8a2146105c757806344f6ede11461064a5780634f283950146106b257806353679290146106ea57806357add51614610722578063645dfa26146107a55761028a565b80632e1a7d4d116102525780632e1a7d4d146104405780632f30cc4b1461046e578063323046b1146104a657806336e9ae13146105295780633871b59214610547578063399b5c461461057f5761028a565b806311ed5d6b1461028f578063205a5bd3146102c75780632785f575146103295780632b408dac146103615780632bca776a14610399575b600080fd5b6102c5600480360360408110156102a557600080fd5b8101908080359060200190929190803590602001909291905050506113df565b005b610313600480360360408110156102dd57600080fd5b81019080803573ffffffffffffffffffffffffffffffffffffffff169060200190929190803590602001909291905050506115fb565b6040518082815260200191505060405180910390f35b61035f6004803603604081101561033f57600080fd5b810190808035906020019092919080359060200190929190505050611620565b005b6103976004803603604081101561037757600080fd5b81019080803590602001909291908035906020019092919050505061183c565b005b6103c5600480360360208110156103af57600080fd5b81019080803590602001909291905050506119b5565b6040518080602001828103825283818151815260200191508051906020019080838360005b838110156104055780820151818401526020810190506103ea565b50505050905090810190601f1680156104325780820380516001836020036101000a031916815260200191505b509250505060405180910390f35b61046c6004803603602081101561045657600080fd5b8101908080359060200190929190505050611a6a565b005b6104a46004803603604081101561048457600080fd5b810190808035906020019092919080359060200190929190505050611ce5565b005b6104ae611e41565b6040518080602001828103825283818151815260200191508051906020019080838360005b838110156104ee5780820151818401526020810190506104d3565b50505050905090810190601f16801561051b5780820380516001836020036101000a031916815260200191505b509250505060405180910390f35b610531611edf565b6040518082815260200191505060405180910390f35b61057d6004803603604081101561055d57600080fd5b810190808035906020019092919080359060200190929190505050611ee5565b005b6105c56004803603606081101561059557600080fd5b81019080803560ff169060200190929190803560ff16906020019092919080359060200190929190505050612041565b005b6105cf612512565b6040518080602001828103825283818151815260200191508051906020019080838360005b8381101561060f5780820151818401526020810190506105f4565b50505050905090810190601f16801561063c5780820380516001836020036101000a031916815260200191505b509250505060405180910390f35b6106966004803603604081101561066057600080fd5b81019080803573ffffffffffffffffffffffffffffffffffffffff169060200190929190803590602001909291905050506125b0565b604051808260ff1660ff16815260200191505060405180910390f35b6106e8600480360360408110156106c857600080fd5b8101908080359060200190929190803590602001909291905050506125e6565b005b6107206004803603604081101561070057600080fd5b810190808035906020019092919080359060200190929190505050612742565b005b61072a612886565b6040518080602001828103825283818151815260200191508051906020019080838360005b8381101561076a57808201518184015260208101905061074f565b50505050905090810190601f1680156107975780820380516001836020036101000a031916815260200191505b509250505060405180910390f35b6107db600480360360408110156107bb57600080fd5b810190808035906020019092919080359060200190929190505050612924565b005b6107e5612a80565b6040518082815260200191505060405180910390f35b61097e6004803603608081101561081157600080fd5b810190808035906020019092919080357bffffffffffffffffffffffffffffffffffffffffffffffffffffffff191690602001909291908035906020019064010000000081111561086157600080fd5b82018360208201111561087357600080fd5b8035906020019184600183028401116401000000008311171561089557600080fd5b91908080601f016020809104026020016040519081016040528093929190818152602001838380828437600081840152601f19601f820116905080830192505050505050509192919290803590602001906401000000008111156108f857600080fd5b82018360208201111561090a57600080fd5b8035906020019184600183028401116401000000008311171561092c57600080fd5b91908080601f016020809104026020016040519081016040528093929190818152602001838380828437600081840152601f19601f820116905080830192505050505050509192919290505050612a86565b005b6109c26004803603602081101561099657600080fd5b81019080803573ffffffffffffffffffffffffffffffffffffffff169060200190929190505050612bc6565b6040518082815260200191505060405180910390f35b6109e0612bde565b6040518080602001828103825283818151815260200191508051906020019080838360005b83811015610a20578082015181840152602081019050610a05565b50505050905090810190601f168015610a4d5780820380516001836020036101000a031916815260200191505b509250505060405180910390f35b610a8760048036036020811015610a7157600080fd5b8101908080359060200190929190505050612c7c565b6040518080602001828103825283818151815260200191508051906020019080838360005b83811015610ac7578082015181840152602081019050610aac565b50505050905090810190601f168015610af45780820380516001836020036101000a031916815260200191505b509250505060405180910390f35b610b2e60048036036020811015610b1857600080fd5b8101908080359060200190929190505050612d2c565b6040518080602001828103825283818151815260200191508051906020019080838360005b83811015610b6e578082015181840152602081019050610b53565b50505050905090810190601f168015610b9b5780820380516001836020036101000a031916815260200191505b509250505060405180910390f35b610bd560048036036020811015610bbf57600080fd5b8101908080359060200190929190505050612ddc565b604051808215151515815260200191505060405180910390f35b610bf7612dfb565b604051808273ffffffffffffffffffffffffffffffffffffffff1673ffffffffffffffffffffffffffffffffffffffff16815260200191505060405180910390f35b610c41612e21565b604051808273ffffffffffffffffffffffffffffffffffffffff1673ffffffffffffffffffffffffffffffffffffffff16815260200191505060405180910390f35b610c8b612e47565b6040518080602001828103825283818151815260200191508051906020019080838360005b83811015610ccb578082015181840152602081019050610cb0565b50505050905090810190601f168015610cf85780820380516001836020036101000a031916815260200191505b509250505060405180910390f35b610d0e612ee5565b005b610d3c60048036036020811015610d2657600080fd5b81019080803590602001909291905050506133eb565b604051808273ffffffffffffffffffffffffffffffffffffffff1673ffffffffffffffffffffffffffffffffffffffff16815260200191505060405180910390f35b610daa60048036036020811015610d9457600080fd5b8101908080359060200190929190505050613427565b6040518080602001828103825283818151815260200191508051906020019080838360005b83811015610dea578082015181840152602081019050610dcf565b50505050905090810190601f168015610e175780820380516001836020036101000a031916815260200191505b509250505060405180910390f35b610e5160048036036020811015610e3b57600080fd5b81019080803590602001909291905050506134d7565b6040518080602001828103825283818151815260200191508051906020019080838360005b83811015610e91578082015181840152602081019050610e76565b50505050905090810190601f168015610ebe5780820380516001836020036101000a031916815260200191505b509250505060405180910390f35b610ef860048036036020811015610ee257600080fd5b810190808035906020019092919050505061358c565b005b610f2660048036036020811015610f1057600080fd5b810190808035906020019092919050505061381c565b6040518080602001828103825283818151815260200191508051906020019080838360005b83811015610f66578082015181840152602081019050610f4b565b50505050905090810190601f168015610f935780820380516001836020036101000a031916815260200191505b509250505060405180910390f35b610fd760048036036040811015610fb757600080fd5b8101908080359060200190929190803590602001909291905050506138d1565b005b610fe16139f8565b6040518082815260200191505060405180910390f35b6110436004803603604081101561100d57600080fd5b81019080803573ffffffffffffffffffffffffffffffffffffffff169060200190929190803590602001909291905050506139fe565b604051808260ff1660ff16815260200191505060405180910390f35b611067613a34565b6040518080602001828103825283818151815260200191508051906020019080838360005b838110156110a757808201518184015260208101905061108c565b50505050905090810190601f1680156110d45780820380516001836020036101000a031916815260200191505b509250505060405180910390f35b61110e600480360360208110156110f857600080fd5b8101908080359060200190929190505050613ad2565b6040518080602001828103825283818151815260200191508051906020019080838360005b8381101561114e578082015181840152602081019050611133565b50505050905090810190601f16801561117b5780820380516001836020036101000a031916815260200191505b509250505060405180910390f35b6111b56004803603602081101561119f57600080fd5b8101908080359060200190929190505050613b87565b6040518080602001828103825283818151815260200191508051906020019080838360005b838110156111f55780820151818401526020810190506111da565b50505050905090810190601f1680156112225780820380516001836020036101000a031916815260200191505b509250505060405180910390f35b611238613c37565b6040518082815260200191505060405180910390f35b61127a6004803603602081101561126457600080fd5b8101908080359060200190929190505050613c3d565b6040518082815260200191505060405180910390f35b611298613c55565b005b6112a2614456565b005b6112e6600480360360208110156112ba57600080fd5b81019080803573ffffffffffffffffffffffffffffffffffffffff16906020019092919050505061498d565b604051808215151515815260200191505060405180910390f35b6113366004803603604081101561131657600080fd5b8101908080359060200190929190803590602001909291905050506149ad565b005b6113646004803603602081101561134e57600080fd5b8101908080359060200190929190505050614ad4565b6040518080602001828103825283818151815260200191508051906020019080838360005b838110156113a4578082015181840152602081019050611389565b50505050905090810190601f1680156113d15780820380516001836020036101000a031916815260200191505b509250505060405180910390f35b816005600082815260200190815260200160002060009054906101000a900473ffffffffffffffffffffffffffffffffffffffff1673ffffffffffffffffffffffffffffffffffffffff163373ffffffffffffffffffffffffffffffffffffffff1614611497576040517f08c379a00000000000000000000000000000000000000000000000000000000081526004018080602001828103825260288152602001806158e46028913960400191505060405180910390fd5b6005600082815260200190815260200160002060006101000a81549073ffffffffffffffffffffffffffffffffffffffff0219169055807f7cc135e0cebb02c3480ae5d74d377283180a2601f8f644edf7987b009316c63a60405160405180910390a26060826040516020018082815260200191505060405160208183030381529060405290506060600a67ffffffffffffffff8111801561153857600080fd5b506040519080825280601f01601f19166020018201604052801561156b5781602001600182028036833780820191505090505b50905060008090505b600a8110156115dc5782818151811061158957fe5b602001015160f81c60f81b8282815181106115a057fe5b60200101907effffffffffffffffffffffffffffffffffffffffffffffffffffffffffffff1916908160001a9053508080600101915050611574565b5080600990805190602001906115f392919061560f565b505050505050565b601060205281600052604060002081600f811061161457fe5b01600091509150505481565b816005600082815260200190815260200160002060009054906101000a900473ffffffffffffffffffffffffffffffffffffffff1673ffffffffffffffffffffffffffffffffffffffff163373ffffffffffffffffffffffffffffffffffffffff16146116d8576040517f08c379a00000000000000000000000000000000000000000000000000000000081526004018080602001828103825260288152602001806158e46028913960400191505060405180910390fd5b6005600082815260200190815260200160002060006101000a81549073ffffffffffffffffffffffffffffffffffffffff0219169055807f7cc135e0cebb02c3480ae5d74d377283180a2601f8f644edf7987b009316c63a60405160405180910390a26060826040516020018082815260200191505060405160208183030381529060405290506060600a67ffffffffffffffff8111801561177957600080fd5b506040519080825280601f01601f1916602001820160405280156117ac5781602001600182028036833780820191505090505b50905060008090505b600a81101561181d578281815181106117ca57fe5b602001015160f81c60f81b8282815181106117e157fe5b60200101907effffffffffffffffffffffffffffffffffffffffffffffffffffffffffffff1916908160001a90535080806001019150506117b5565b50806028908051906020019061183492919061560f565b505050505050565b816005600082815260200190815260200160002060009054906101000a900473ffffffffffffffffffffffffffffffffffffffff1673ffffffffffffffffffffffffffffffffffffffff163373ffffffffffffffffffffffffffffffffffffffff16146118f4576040517f08c379a00000000000000000000000000000000000000000000000000000000081526004018080602001828103825260288152602001806158e46028913960400191505060405180910390fd5b6005600082815260200190815260200160002060006101000a81549073ffffffffffffffffffffffffffffffffffffffff0219169055807f7cc135e0cebb02c3480ae5d74d377283180a2601f8f644edf7987b009316c63a60405160405180910390a26020600083815260200190815260200160002060009054906101000a900460ff1661198457816025819055505b60016020600084815260200190815260200160002060006101000a81548160ff021916908315150217905550505050565b6060602160008381526020019081526020016000208054600181600116156101000203166002900480601f016020809104026020016040519081016040528092919081815260200182805460018160011615610100020316600290048015611a5e5780601f10611a3357610100808354040283529160200191611a5e565b820191906000526020600020905b815481529060010190602001808311611a4157829003601f168201915b50505050509050919050565b600c60003373ffffffffffffffffffffffffffffffffffffffff1673ffffffffffffffffffffffffffffffffffffffff16815260200190815260200160002054811115611b02576040517f08c379a00000000000000000000000000000000000000000000000000000000081526004018080602001828103825260298152602001806158886029913960400191505060405180910390fd5b60008111611b78576040517f08c379a00000000000000000000000000000000000000000000000000000000081526004018080602001828103825260118152602001807f43616e6e6f74207769746864726177203000000000000000000000000000000081525060200191505060405180910390fd5b600860009054906101000a900473ffffffffffffffffffffffffffffffffffffffff1673ffffffffffffffffffffffffffffffffffffffff1663a9059cbb33836040518363ffffffff1660e01b8152600401808373ffffffffffffffffffffffffffffffffffffffff1673ffffffffffffffffffffffffffffffffffffffff16815260200182815260200192505050602060405180830381600087803b158015611c2157600080fd5b505af1158015611c35573d6000803e3d6000fd5b505050506040513d6020811015611c4b57600080fd5b81019080805190602001909291905050505080600c60003373ffffffffffffffffffffffffffffffffffffffff1673ffffffffffffffffffffffffffffffffffffffff1681526020019081526020016000205403600c60003373ffffffffffffffffffffffffffffffffffffffff1673ffffffffffffffffffffffffffffffffffffffff1681526020019081526020016000208190555050565b816005600082815260200190815260200160002060009054906101000a900473ffffffffffffffffffffffffffffffffffffffff1673ffffffffffffffffffffffffffffffffffffffff163373ffffffffffffffffffffffffffffffffffffffff1614611d9d576040517f08c379a00000000000000000000000000000000000000000000000000000000081526004018080602001828103825260288152602001806158e46028913960400191505060405180910390fd5b6005600082815260200190815260200160002060006101000a81549073ffffffffffffffffffffffffffffffffffffffff0219169055807f7cc135e0cebb02c3480ae5d74d377283180a2601f8f644edf7987b009316c63a60405160405180910390a26060826040516020018082815260200191505060405160208183030381529060405290508060269080519060200190611e3a92919061560f565b5050505050565b60098054600181600116156101000203166002900480601f016020809104026020016040519081016040528092919081815260200182805460018160011615610100020316600290048015611ed75780601f10611eac57610100808354040283529160200191611ed7565b820191906000526020600020905b815481529060010190602001808311611eba57829003601f168201915b505050505081565b602b5481565b816005600082815260200190815260200160002060009054906101000a900473ffffffffffffffffffffffffffffffffffffffff1673ffffffffffffffffffffffffffffffffffffffff163373ffffffffffffffffffffffffffffffffffffffff1614611f9d576040517f08c379a00000000000000000000000000000000000000000000000000000000081526004018080602001828103825260288152602001806158e46028913960400191505060405180910390fd5b6005600082815260200190815260200160002060006101000a81549073ffffffffffffffffffffffffffffffffffffffff0219169055807f7cc135e0cebb02c3480ae5d74d377283180a2601f8f644edf7987b009316c63a60405160405180910390a2606082604051602001808281526020019150506040516020818303038152906040529050806027908051906020019061203a92919061560f565b5050505050565b60008360ff161015801561205b5750600f60ff168360ff16105b6120cd576040517f08c379a00000000000000000000000000000000000000000000000000000000081526004018080602001828103825260138152602001807f43686f6f736520612076616c69642067616d650000000000000000000000000081525060200191505060405180910390fd5b600160ff168260ff1614806120e85750600260ff168260ff16145b61215a576040517f08c379a00000000000000000000000000000000000000000000000000000000081526004018080602001828103825260138152602001807f43686f6f736520612076616c6964207465616d0000000000000000000000000081525060200191505060405180910390fd5b600081116121b3576040517f08c379a00000000000000000000000000000000000000000000000000000000081526004018080602001828103825260218152602001806157f86021913960400191505060405180910390fd5b600c60003373ffffffffffffffffffffffffffffffffffffffff1673ffffffffffffffffffffffffffffffffffffffff1681526020019081526020016000205481111561224b576040517f08c379a00000000000000000000000000000000000000000000000000000000081526004018080602001828103825260248152602001806158646024913960400191505060405180910390fd5b80600c60003373ffffffffffffffffffffffffffffffffffffffff1673ffffffffffffffffffffffffffffffffffffffff1681526020019081526020016000205403600c60003373ffffffffffffffffffffffffffffffffffffffff1673ffffffffffffffffffffffffffffffffffffffff168152602001908152602001600020819055506001600e60003373ffffffffffffffffffffffffffffffffffffffff1673ffffffffffffffffffffffffffffffffffffffff1681526020019081526020016000208460ff16600f811061231f57fe5b602091828204019190066101000a81548160ff021916908360ff16021790555081600f60003373ffffffffffffffffffffffffffffffffffffffff1673ffffffffffffffffffffffffffffffffffffffff1681526020019081526020016000208460ff16600f811061238d57fe5b602091828204019190066101000a81548160ff021916908360ff16021790555080601060003373ffffffffffffffffffffffffffffffffffffffff1673ffffffffffffffffffffffffffffffffffffffff1681526020019081526020016000208460ff16600f81106123fb57fe5b0181905550600d60003373ffffffffffffffffffffffffffffffffffffffff1673ffffffffffffffffffffffffffffffffffffffff16815260200190815260200160002060009054906101000a900460ff166124b557600b339080600181540180825580915050600190039060005260206000200160009091909190916101000a81548173ffffffffffffffffffffffffffffffffffffffff021916908373ffffffffffffffffffffffffffffffffffffffff1602179055505b6001600d60003373ffffffffffffffffffffffffffffffffffffffff1673ffffffffffffffffffffffffffffffffffffffff16815260200190815260200160002060006101000a81548160ff021916908315150217905550505050565b60268054600181600116156101000203166002900480601f0160208091040260200160405190810160405280929190818152602001828054600181600116156101000203166002900480156125a85780601f1061257d576101008083540402835291602001916125a8565b820191906000526020600020905b81548152906001019060200180831161258b57829003601f168201915b505050505081565b600f60205281600052604060002081600f81106125c957fe5b60209182820401919006915091509054906101000a900460ff1681565b816005600082815260200190815260200160002060009054906101000a900473ffffffffffffffffffffffffffffffffffffffff1673ffffffffffffffffffffffffffffffffffffffff163373ffffffffffffffffffffffffffffffffffffffff161461269e576040517f08c379a00000000000000000000000000000000000000000000000000000000081526004018080602001828103825260288152602001806158e46028913960400191505060405180910390fd5b6005600082815260200190815260200160002060006101000a81549073ffffffffffffffffffffffffffffffffffffffff0219169055807f7cc135e0cebb02c3480ae5d74d377283180a2601f8f644edf7987b009316c63a60405160405180910390a260608260405160200180828152602001915050604051602081830303815290604052905080602a908051906020019061273b92919061560f565b5050505050565b816005600082815260200190815260200160002060009054906101000a900473ffffffffffffffffffffffffffffffffffffffff1673ffffffffffffffffffffffffffffffffffffffff163373ffffffffffffffffffffffffffffffffffffffff16146127fa576040517f08c379a00000000000000000000000000000000000000000000000000000000081526004018080602001828103825260288152602001806158e46028913960400191505060405180910390fd5b6005600082815260200190815260200160002060006101000a81549073ffffffffffffffffffffffffffffffffffffffff0219169055807f7cc135e0cebb02c3480ae5d74d377283180a2601f8f644edf7987b009316c63a60405160405180910390a2600f60ff1682111561287957600f60ff16600a81905550612881565b81600a819055505b505050565b60288054600181600116156101000203166002900480601f01602080910402602001604051908101604052809291908181526020018280546001816001161561010002031660029004801561291c5780601f106128f15761010080835404028352916020019161291c565b820191906000526020600020905b8154815290600101906020018083116128ff57829003601f168201915b505050505081565b816005600082815260200190815260200160002060009054906101000a900473ffffffffffffffffffffffffffffffffffffffff1673ffffffffffffffffffffffffffffffffffffffff163373ffffffffffffffffffffffffffffffffffffffff16146129dc576040517f08c379a00000000000000000000000000000000000000000000000000000000081526004018080602001828103825260288152602001806158e46028913960400191505060405180910390fd5b6005600082815260200190815260200160002060006101000a81549073ffffffffffffffffffffffffffffffffffffffff0219169055807f7cc135e0cebb02c3480ae5d74d377283180a2601f8f644edf7987b009316c63a60405160405180910390a26060826040516020018082815260200191505060405160208183030381529060405290508060299080519060200190612a7992919061560f565b5050505050565b60255481565b600760009054906101000a900473ffffffffffffffffffffffffffffffffffffffff1673ffffffffffffffffffffffffffffffffffffffff163373ffffffffffffffffffffffffffffffffffffffff1614612ae057600080fd5b612ae861568f565b612af3853086614cad565b9050612b3f6040518060400160405280600381526020017f67657400000000000000000000000000000000000000000000000000000000008152508483614cde9092919063ffffffff16565b612b896040518060400160405280600481526020017f70617468000000000000000000000000000000000000000000000000000000008152508383614cde9092919063ffffffff16565b612bbe600660009054906101000a900473ffffffffffffffffffffffffffffffffffffffff168267016345785d8a0000614d11565b505050505050565b600c6020528060005260406000206000915090505481565b60278054600181600116156101000203166002900480601f016020809104026020016040519081016040528092919081815260200182805460018160011615610100020316600290048015612c745780601f10612c4957610100808354040283529160200191612c74565b820191906000526020600020905b815481529060010190602001808311612c5757829003601f168201915b505050505081565b60216020528060005260406000206000915090508054600181600116156101000203166002900480601f016020809104026020016040519081016040528092919081815260200182805460018160011615610100020316600290048015612d245780601f10612cf957610100808354040283529160200191612d24565b820191906000526020600020905b815481529060010190602001808311612d0757829003601f168201915b505050505081565b60226020528060005260406000206000915090508054600181600116156101000203166002900480601f016020809104026020016040519081016040528092919081815260200182805460018160011615610100020316600290048015612dd45780601f10612da957610100808354040283529160200191612dd4565b820191906000526020600020905b815481529060010190602001808311612db757829003601f168201915b505050505081565b602080528060005260406000206000915054906101000a900460ff1681565b600760009054906101000a900473ffffffffffffffffffffffffffffffffffffffff1681565b600860009054906101000a900473ffffffffffffffffffffffffffffffffffffffff1681565b602a8054600181600116156101000203166002900480601f016020809104026020016040519081016040528092919081815260200182805460018160011615610100020316600290048015612edd5780601f10612eb257610100808354040283529160200191612edd565b820191906000526020600020905b815481529060010190602001808311612ec057829003601f168201915b505050505081565b600760009054906101000a900473ffffffffffffffffffffffffffffffffffffffff1673ffffffffffffffffffffffffffffffffffffffff163373ffffffffffffffffffffffffffffffffffffffff1614612f3f57600080fd5b612fbf7f62373238356434383539646134623238396337383631646239373162616630616311ed5d6b60e01b6040518060600160405280603581526020016157c3603591396040518060400160405280600881526020017f6461746574696d65000000000000000000000000000000000000000000000000815250612a86565b6131287f6337646437326361313462343466306339623663666364346237656330613263635367929060e01b60098060405160200180806158b160339139603301838054600181600116156101000203166002900480156130575780601f10613035576101008083540402835291820191613057565b820191906000526020600020905b815481529060010190602001808311613043575b5050807f26656e645f646174653d00000000000000000000000000000000000000000000815250600a01828054600181600116156101000203166002900480156130d85780601f106130b65761010080835404028352918201916130d8565b820191906000526020600020905b8154815290600101906020018083116130c4575b5050925050506040516020818303038152906040526040518060400160405280601081526020017f6d6574612e746f74616c5f636f756e7400000000000000000000000000000000815250612a86565b60008090505b600a548160ff1610156133e8576060600167ffffffffffffffff8111801561315557600080fd5b506040519080825280601f01601f1916602001820160405280156131885781602001600182028036833780820191505090505b5090508160300160f81b8160008151811061319f57fe5b60200101907effffffffffffffffffffffffffffffffffffffffffffffffffffffffffffff1916908160001a90535060608190506133c17f6337646437326361313462343466306339623663666364346237656330613263632b408dac60e01b60098060405160200180806158b1603391396033018380546001816001161561010002031660029004801561326b5780601f1061324957610100808354040283529182019161326b565b820191906000526020600020905b815481529060010190602001808311613257575b5050807f26656e645f646174653d00000000000000000000000000000000000000000000815250600a01828054600181600116156101000203166002900480156132ec5780601f106132ca5761010080835404028352918201916132ec565b820191906000526020600020905b8154815290600101906020018083116132d8575b5050925050506040516020818303038152906040528460405160200180807f646174612e00000000000000000000000000000000000000000000000000000081525060050182805190602001908083835b60208310613360578051825260208201915060208101905060208303925061333d565b6001836020036101000a038019825116818451168082178552505050505050905001807f2e69640000000000000000000000000000000000000000000000000000000000815250600301915050604051602081830303815290604052612a86565b60255460118460ff16600f81106133d457fe5b01819055505050808060010191505061312e565b50565b600b81815481106133f857fe5b906000526020600020016000915054906101000a900473ffffffffffffffffffffffffffffffffffffffff1681565b60236020528060005260406000206000915090508054600181600116156101000203166002900480601f0160208091040260200160405190810160405280929190818152602001828054600181600116156101000203166002900480156134cf5780601f106134a4576101008083540402835291602001916134cf565b820191906000526020600020905b8154815290600101906020018083116134b257829003601f168201915b505050505081565b6060602260008381526020019081526020016000208054600181600116156101000203166002900480601f0160208091040260200160405190810160405280929190818152602001828054600181600116156101000203166002900480156135805780601f1061355557610100808354040283529160200191613580565b820191906000526020600020905b81548152906001019060200180831161356357829003601f168201915b50505050509050919050565b620f423f811115613605576040517f08c379a000000000000000000000000000000000000000000000000000000000815260040180806020018281038252601f8152602001807f43616e6e6f74206465706f736974206d6f7265207468616e203939393939390081525060200191505060405180910390fd5b6000811161367b576040517f08c379a00000000000000000000000000000000000000000000000000000000081526004018080602001828103825260108152602001807f43616e6e6f74206465706f73697420300000000000000000000000000000000081525060200191505060405180910390fd5b600860009054906101000a900473ffffffffffffffffffffffffffffffffffffffff1673ffffffffffffffffffffffffffffffffffffffff166323b872dd3330846040518463ffffffff1660e01b8152600401808473ffffffffffffffffffffffffffffffffffffffff1673ffffffffffffffffffffffffffffffffffffffff1681526020018373ffffffffffffffffffffffffffffffffffffffff1673ffffffffffffffffffffffffffffffffffffffff1681526020018281526020019350505050602060405180830381600087803b15801561375857600080fd5b505af115801561376c573d6000803e3d6000fd5b505050506040513d602081101561378257600080fd5b81019080805190602001909291905050505080600c60003373ffffffffffffffffffffffffffffffffffffffff1673ffffffffffffffffffffffffffffffffffffffff1681526020019081526020016000205401600c60003373ffffffffffffffffffffffffffffffffffffffff1673ffffffffffffffffffffffffffffffffffffffff1681526020019081526020016000208190555050565b6060602460008381526020019081526020016000208054600181600116156101000203166002900480601f0160208091040260200160405190810160405280929190818152602001828054600181600116156101000203166002900480156138c55780601f1061389a576101008083540402835291602001916138c5565b820191906000526020600020905b8154815290600101906020018083116138a857829003601f168201915b50505050509050919050565b816005600082815260200190815260200160002060009054906101000a900473ffffffffffffffffffffffffffffffffffffffff1673ffffffffffffffffffffffffffffffffffffffff163373ffffffffffffffffffffffffffffffffffffffff1614613989576040517f08c379a00000000000000000000000000000000000000000000000000000000081526004018080602001828103825260288152602001806158e46028913960400191505060405180910390fd5b6005600082815260200190815260200160002060006101000a81549073ffffffffffffffffffffffffffffffffffffffff0219169055807f7cc135e0cebb02c3480ae5d74d377283180a2601f8f644edf7987b009316c63a60405160405180910390a281602c81905550505050565b600a5481565b600e60205281600052604060002081600f8110613a1757fe5b60209182820401919006915091509054906101000a900460ff1681565b60298054600181600116156101000203166002900480601f016020809104026020016040519081016040528092919081815260200182805460018160011615610100020316600290048015613aca5780601f10613a9f57610100808354040283529160200191613aca565b820191906000526020600020905b815481529060010190602001808311613aad57829003601f168201915b505050505081565b6060602360008381526020019081526020016000208054600181600116156101000203166002900480601f016020809104026020016040519081016040528092919081815260200182805460018160011615610100020316600290048015613b7b5780601f10613b5057610100808354040283529160200191613b7b565b820191906000526020600020905b815481529060010190602001808311613b5e57829003601f168201915b50505050509050919050565b60246020528060005260406000206000915090508054600181600116156101000203166002900480601f016020809104026020016040519081016040528092919081815260200182805460018160011615610100020316600290048015613c2f5780601f10613c0457610100808354040283529160200191613c2f565b820191906000526020600020905b815481529060010190602001808311613c1257829003601f168201915b505050505081565b602c5481565b601181600f8110613c4a57fe5b016000915090505481565b600760009054906101000a900473ffffffffffffffffffffffffffffffffffffffff1673ffffffffffffffffffffffffffffffffffffffff163373ffffffffffffffffffffffffffffffffffffffff1614613caf57600080fd5b60008090505b600a5481101561445357613d5f7f6237323835643438353964613462323839633738363164623937316261663061634f28395060e01b601184600f8110613cf857fe5b0154604051602001808061583c602891396028018281526020019150506040516020818303038152906040526040518060400160405280600681526020017f7374617475730000000000000000000000000000000000000000000000000000815250612a86565b60405160200180807f46696e616c000000000000000000000000000000000000000000000000000000815250600501905060405160208183030381529060405280519060200120602a6040516020018082805460018160011615610100020316600290048015613e065780601f10613de4576101008083540402835291820191613e06565b820191906000526020600020905b815481529060010190602001808311613df2575b50509150506040516020818303038152906040528051906020012014613e2b57614446565b613ecb7f633764643732636131346234346630633962366366636434623765633061326363ee5b977b60e01b601184600f8110613e6457fe5b0154604051602001808061583c602891396028018281526020019150506040516020818303038152906040526040518060400160405280600f81526020017f686f6d655f7465616d5f73636f72650000000000000000000000000000000000815250612a86565b613f6b7f633764643732636131346234346630633962366366636434623765633061326363c100cdb660e01b601184600f8110613f0457fe5b0154604051602001808061583c602891396028018281526020019150506040516020818303038152906040526040518060400160405280601281526020017f76697369746f725f7465616d5f73636f72650000000000000000000000000000815250612a86565b6000809050602c54602b541115613f8857600160ff169050613f90565b600260ff1690505b60008090505b600b80549050811015614443576000600e6000600b8481548110613fb657fe5b9060005260206000200160009054906101000a900473ffffffffffffffffffffffffffffffffffffffff1673ffffffffffffffffffffffffffffffffffffffff1673ffffffffffffffffffffffffffffffffffffffff16815260200190815260200160002084600f811061402657fe5b602091828204019190069054906101000a900460ff1660ff16141561404a57614436565b81600f6000600b848154811061405c57fe5b9060005260206000200160009054906101000a900473ffffffffffffffffffffffffffffffffffffffff1673ffffffffffffffffffffffffffffffffffffffff1673ffffffffffffffffffffffffffffffffffffffff16815260200190815260200160002084600f81106140cc57fe5b602091828204019190069054906101000a900460ff1660ff1614156142675760106000600b83815481106140fc57fe5b9060005260206000200160009054906101000a900473ffffffffffffffffffffffffffffffffffffffff1673ffffffffffffffffffffffffffffffffffffffff1673ffffffffffffffffffffffffffffffffffffffff16815260200190815260200160002083600f811061416c57fe5b0154600260ff1602600c6000600b848154811061418557fe5b9060005260206000200160009054906101000a900473ffffffffffffffffffffffffffffffffffffffff1673ffffffffffffffffffffffffffffffffffffffff1673ffffffffffffffffffffffffffffffffffffffff1681526020019081526020016000205401600c6000600b84815481106141fd57fe5b9060005260206000200160009054906101000a900473ffffffffffffffffffffffffffffffffffffffff1673ffffffffffffffffffffffffffffffffffffffff1673ffffffffffffffffffffffffffffffffffffffff168152602001908152602001600020819055505b6000600e6000600b848154811061427a57fe5b9060005260206000200160009054906101000a900473ffffffffffffffffffffffffffffffffffffffff1673ffffffffffffffffffffffffffffffffffffffff1673ffffffffffffffffffffffffffffffffffffffff16815260200190815260200160002084600f81106142ea57fe5b602091828204019190066101000a81548160ff021916908360ff1602179055506000600f6000600b848154811061431d57fe5b9060005260206000200160009054906101000a900473ffffffffffffffffffffffffffffffffffffffff1673ffffffffffffffffffffffffffffffffffffffff1673ffffffffffffffffffffffffffffffffffffffff16815260200190815260200160002084600f811061438d57fe5b602091828204019190066101000a81548160ff021916908360ff160217905550600060106000600b84815481106143c057fe5b9060005260206000200160009054906101000a900473ffffffffffffffffffffffffffffffffffffffff1673ffffffffffffffffffffffffffffffffffffffff1673ffffffffffffffffffffffffffffffffffffffff16815260200190815260200160002084600f811061443057fe5b01819055505b8080600101915050613f96565b50505b8080600101915050613cb5565b50565b600760009054906101000a900473ffffffffffffffffffffffffffffffffffffffff1673ffffffffffffffffffffffffffffffffffffffff163373ffffffffffffffffffffffffffffffffffffffff16146144b057600080fd5b60008090505b600f81101561498a576000601182600f81106144ce57fe5b015414156144db5761498a565b6000601182600f81106144ea57fe5b0154905060606144f982614ad4565b90506145d87f6237323835643438353964613462323839633738363164623937316261663061632f30cc4b60e01b83604051602001808061583c6028913960280182805190602001908083835b602083106145695780518252602082019150602081019050602083039250614546565b6001836020036101000a0380198251168184511680821785525050505050509050019150506040516020818303038152906040526040518060400160405280601381526020017f686f6d655f7465616d2e66756c6c5f6e616d6500000000000000000000000000815250612a86565b602660216000601186600f81106145eb57fe5b01548152602001908152602001600020908054600181600116156101000203166002900461461a9291906156fc565b506146f87f6237323835643438353964613462323839633738363164623937316261663061633871b59260e01b83604051602001808061583c6028913960280182805190602001908083835b602083106146895780518252602082019150602081019050602083039250614666565b6001836020036101000a0380198251168184511680821785525050505050509050019150506040516020818303038152906040526040518060400160405280601681526020017f76697369746f725f7465616d2e66756c6c5f6e616d6500000000000000000000815250612a86565b602760226000601186600f811061470b57fe5b01548152602001908152602001600020908054600181600116156101000203166002900461473a9291906156fc565b506148187f6237323835643438353964613462323839633738363164623937316261663061632785f57560e01b83604051602001808061583c6028913960280182805190602001908083835b602083106147a95780518252602082019150602081019050602083039250614786565b6001836020036101000a0380198251168184511680821785525050505050509050019150506040516020818303038152906040526040518060400160405280600481526020017f6461746500000000000000000000000000000000000000000000000000000000815250612a86565b602860236000601186600f811061482b57fe5b01548152602001908152602001600020908054600181600116156101000203166002900461485a9291906156fc565b506149387f623732383564343835396461346232383963373836316462393731626166306163645dfa2660e01b83604051602001808061583c6028913960280182805190602001908083835b602083106148c957805182526020820191506020810190506020830392506148a6565b6001836020036101000a0380198251168184511680821785525050505050509050019150506040516020818303038152906040526040518060400160405280600681526020017f7374617475730000000000000000000000000000000000000000000000000000815250612a86565b602960246000601186600f811061494b57fe5b01548152602001908152602001600020908054600181600116156101000203166002900461497a9291906156fc565b50505080806001019150506144b6565b50565b600d6020528060005260406000206000915054906101000a900460ff1681565b816005600082815260200190815260200160002060009054906101000a900473ffffffffffffffffffffffffffffffffffffffff1673ffffffffffffffffffffffffffffffffffffffff163373ffffffffffffffffffffffffffffffffffffffff1614614a65576040517f08c379a00000000000000000000000000000000000000000000000000000000081526004018080602001828103825260288152602001806158e46028913960400191505060405180910390fd5b6005600082815260200190815260200160002060006101000a81549073ffffffffffffffffffffffffffffffffffffffff0219169055807f7cc135e0cebb02c3480ae5d74d377283180a2601f8f644edf7987b009316c63a60405160405180910390a281602b81905550505050565b606080604e60ff1667ffffffffffffffff81118015614af257600080fd5b506040519080825280601f01601f191660200182016040528015614b255781602001600182028036833780820191505090505b509050600080905060008090505b60008514614bad57600a60ff168581614b4857fe5b069150600a60ff168581614b5857fe5b0494508160300160f81b838260ff1681518110614b7157fe5b60200101907effffffffffffffffffffffffffffffffffffffffffffffffffffffffffffff1916908160001a9053508080600101915050614b33565b600080905060008090505b600260ff168360ff1681614bc857fe5b0460ff168160ff161015614ca057848160ff1681518110614be557fe5b602001015160f81c60f81b91508460018285030360ff1681518110614c0657fe5b602001015160f81c60f81b858260ff1681518110614c2057fe5b60200101907effffffffffffffffffffffffffffffffffffffffffffffffffffffffffffff1916908160001a905350818560018386030360ff1681518110614c6457fe5b60200101907effffffffffffffffffffffffffffffffffffffffffffffffffffffffffffff1916908160001a9053508080600101915050614bb8565b5083945050505050919050565b614cb561568f565b614cbd61568f565b614cd485858584614fc9909392919063ffffffff16565b9150509392505050565b614cf582846080015161507990919063ffffffff16565b614d0c81846080015161507990919063ffffffff16565b505050565b600030600454604051602001808373ffffffffffffffffffffffffffffffffffffffff1673ffffffffffffffffffffffffffffffffffffffff1660601b815260140182815260200192505050604051602081830303815290604052805190602001209050600454836060018181525050836005600083815260200190815260200160002060006101000a81548173ffffffffffffffffffffffffffffffffffffffff021916908373ffffffffffffffffffffffffffffffffffffffff160217905550807fb5e6e01e79f91267dc17b4e6314d5d4d03593d2ceee0fbb452b750bd70ea5af960405160405180910390a2600260009054906101000a900473ffffffffffffffffffffffffffffffffffffffff1673ffffffffffffffffffffffffffffffffffffffff16634000aea08584614e498761509e565b6040518463ffffffff1660e01b8152600401808473ffffffffffffffffffffffffffffffffffffffff1673ffffffffffffffffffffffffffffffffffffffff16815260200183815260200180602001828103825283818151815260200191508051906020019080838360005b83811015614ed0578082015181840152602081019050614eb5565b50505050905090810190601f168015614efd5780820380516001836020036101000a031916815260200191505b50945050505050602060405180830381600087803b158015614f1e57600080fd5b505af1158015614f32573d6000803e3d6000fd5b505050506040513d6020811015614f4857600080fd5b8101908080519060200190929190505050614fae576040517f08c379a00000000000000000000000000000000000000000000000000000000081526004018080602001828103825260238152602001806158196023913960400191505060405180910390fd5b60016004600082825401925050819055508090509392505050565b614fd161568f565b614fe1856080015161010061526a565b508385600001818152505082856020019073ffffffffffffffffffffffffffffffffffffffff16908173ffffffffffffffffffffffffffffffffffffffff16815250508185604001907bffffffffffffffffffffffffffffffffffffffffffffffffffffffff191690817bffffffffffffffffffffffffffffffffffffffffffffffffffffffff191681525050849050949350505050565b61508682600383516152be565b615099818361540390919063ffffffff16565b505050565b6060634042994660e01b60008084600001518560200151866040015187606001516001896080015160000151604051602401808973ffffffffffffffffffffffffffffffffffffffff1673ffffffffffffffffffffffffffffffffffffffff1681526020018881526020018781526020018673ffffffffffffffffffffffffffffffffffffffff1673ffffffffffffffffffffffffffffffffffffffff168152602001857bffffffffffffffffffffffffffffffffffffffffffffffffffffffff19167bffffffffffffffffffffffffffffffffffffffffffffffffffffffff1916815260200184815260200183815260200180602001828103825283818151815260200191508051906020019080838360005b838110156151cd5780820151818401526020810190506151b2565b50505050905090810190601f1680156151fa5780820380516001836020036101000a031916815260200191505b509950505050505050505050604051602081830303815290604052907bffffffffffffffffffffffffffffffffffffffffffffffffffffffff19166020820180517bffffffffffffffffffffffffffffffffffffffffffffffffffffffff83818316178352505050509050919050565b615272615783565b60006020838161527e57fe5b0614615297576020828161528e57fe5b06602003820191505b81836020018181525050604051808452600081528281016020016040525082905092915050565b601781116152eb576152e58160058460ff16901b60ff16178461542590919063ffffffff16565b506153fe565b60ff811161532d57615310601860058460ff16901b178461542590919063ffffffff16565b50615327816001856154459092919063ffffffff16565b506153fd565b61ffff811161537057615353601960058460ff16901b178461542590919063ffffffff16565b5061536a816002856154459092919063ffffffff16565b506153fc565b63ffffffff81116153b557615398601a60058460ff16901b178461542590919063ffffffff16565b506153af816004856154459092919063ffffffff16565b506153fb565b67ffffffffffffffff81116153fa576153e1601b60058460ff16901b178461542590919063ffffffff16565b506153f8816008856154459092919063ffffffff16565b505b5b5b5b5b505050565b61540b615783565b61541d83846000015151848551615467565b905092915050565b61542d615783565b61543d8384600001515184615520565b905092915050565b61544d615783565b61545e84856000015151858561556e565b90509392505050565b61546f615783565b825182111561547d57600080fd5b846020015182850111156154a8576154a78560026154a188602001518887016155cf565b026155eb565b5b6000808651805187602083010193508088870111156154c75787860182525b60208701925050505b602084106154f357805182526020820191506020810190506020840393506154d0565b60006001856020036101000a03905080198251168184511681811785525050879350505050949350505050565b615528615783565b83602001518310615545576155448460028660200151026155eb565b5b8351805160208583010184815381861415615561576001820183525b5050508390509392505050565b615576615783565b8460200151848301111561559457615593856002868501026155eb565b5b60006001836101000a03905085518386820101858319825116178152815185880111156155c15784870182525b505085915050949350505050565b6000818311156155e1578290506155e5565b8190505b92915050565b6060826000015190506155fe838361526a565b506156098382615403565b50505050565b828054600181600116156101000203166002900490600052602060002090601f016020900481019282601f1061565057805160ff191683800117855561567e565b8280016001018555821561567e579182015b8281111561567d578251825591602001919060010190615662565b5b50905061568b919061579d565b5090565b6040518060a0016040528060008019168152602001600073ffffffffffffffffffffffffffffffffffffffff16815260200160007bffffffffffffffffffffffffffffffffffffffffffffffffffffffff19168152602001600081526020016156f6615783565b81525090565b828054600181600116156101000203166002900490600052602060002090601f016020900481019282601f106157355780548555615772565b8280016001018555821561577257600052602060002091601f016020900482015b82811115615771578254825591600101919060010190615756565b5b50905061577f919061579d565b5090565b604051806040016040528060608152602001600081525090565b6157bf91905b808211156157bb5760008160009055506001016157a3565b5090565b9056fe687474703a2f2f776f726c6474696d656170692e6f72672f6170692f74696d657a6f6e652f416d65726963612f4e65775f596f726b4d7573742062657420616e20616d6f756e742067726561746572207468616e2030756e61626c6520746f207472616e73666572416e6443616c6c20746f206f7261636c6568747470733a2f2f7777772e62616c6c646f6e746c69652e696f2f6170692f76312f67616d65732f43616e6e6f74206265206d6f7265207468616e204e6261546f6b656e2062616c616e636543616e6e6f74207769746864726177206d6f7265207468616e206163636f756e742062616c616e636568747470733a2f2f7777772e62616c6c646f6e746c69652e696f2f6170692f76312f67616d65733f73746172745f646174653d536f75726365206d75737420626520746865206f7261636c65206f66207468652072657175657374a264697066735822122027e4bd629857e425d8a905c254bc0e60288c7c408974274f56b23a5c5c2ee69664736f6c63430006060033",
  "immutableReferences": {},
  "source": "pragma solidity ^0.6.0;\r\n\r\nimport \"@openzeppelin/contracts/token/ERC20/IERC20.sol\";\r\nimport \"@chainlink/contracts/src/v0.6/ChainlinkClient.sol\";\r\n\r\ncontract NbaBetting is ChainlinkClient {\r\n    uint8 constant private MAX_GAMES = 15;\r\n    uint constant private DATE_FROM_API = 10;\r\n    uint8 constant private INT_ASCII_OFFSET = 48;\r\n    uint8 constant private MAX_DIGITS = 78;\r\n    uint8 constant private DECIMAL_BASE = 10;\r\n    uint8 constant private HALF = 2;\r\n    uint8 constant private HOME_TEAM = 1;\r\n    uint8 constant private VISITOR_TEAM = 2;\r\n    uint8 constant private DOUBLE = 2;\r\n    uint constant private MAX_DEPOSIT = 999999;\r\n\r\n    //Address of Kovan network oracle which contains Get > bytes32 job\r\n    //Alpha Chain - Kovan oracle found on market.link\r\n    address private ORACLE_ADDRESS = \r\n        0xAA1DC356dc4B18f30C347798FD5379F3D77ABC5b;\r\n    //Job ID of Get > bytes32 job\r\n    //Found on market.link\r\n    bytes32 constant private BYTES_JOB = \"b7285d4859da4b289c7861db971baf0a\";\r\n    //Job ID of Get > uint256 job\r\n    //Found on market.link\r\n    bytes32 constant private UINT_JOB = \"c7dd72ca14b44f0c9b6cfcd4b7ec0a2c\";\r\n    //LINK payment for Get > bytes32 and Get > uint256 jobs (0.1 LINK)\r\n    //1 LINK  = 1 * (10^18)\r\n    uint constant private LINK_PAYMENT = 100000000000000000;\r\n\r\n    address public owner;\r\n    IERC20 public nbaToken;\r\n    string public date;\r\n    uint public numGames;\r\n\r\n    //Array that contains betters and their attributes\r\n    address[] public betters;\r\n    mapping(address => uint) public nbaTokenBalance;\r\n    mapping(address => bool) public hasBetted;\r\n    mapping(address => uint8[MAX_GAMES]) public gamesBetted;\r\n    mapping(address => uint8[MAX_GAMES]) public teamsBetted;\r\n    mapping(address => uint[MAX_GAMES]) public betAmounts;\r\n\r\n    //Array that contains upcoming games and their attributes\r\n    uint[MAX_GAMES] public gameIds;\r\n    mapping(uint => bool) public isStored;\r\n    mapping(uint => string) public homeTeam;\r\n    mapping(uint => string) public visitorTeam;\r\n    mapping(uint => string) public gameDate;\r\n    mapping(uint => string) public gameTime;\r\n    uint public tempGameId;\r\n    string public tempHomeTeam;\r\n    string public tempVisitorTeam;\r\n    string public tempGameDate;\r\n    string public tempGameTime;\r\n    string public tempStatus;\r\n    uint public tempHomeScore;\r\n    uint public tempVisitorScore;\r\n\r\n    constructor(address _nbaTokenAddress) public {\r\n        nbaToken = IERC20(_nbaTokenAddress);\r\n        owner = msg.sender;\r\n    }\r\n\r\n    /* \r\n     * Allow owner to get future games\r\n     * NBA API instructions: https://www.balldontlie.io/#get-all-games\r\n     * World Clock API: http://worldtimeapi.org/ \r\n     */\r\n    function getGameIds() public onlyOwner {\r\n        //Get time data in EDT\r\n        makeApiCall(BYTES_JOB, this.processTimeData.selector, \r\n                    \"http://worldtimeapi.org/api/timezone/America/New_York\", \r\n                    \"datetime\");\r\n\r\n        //Get next 15 games if possible\r\n        makeApiCall(UINT_JOB, this.gamesToGet.selector, \r\n                    string(abi.encodePacked(\r\n                    \"https://www.balldontlie.io/api/v1/games?start_date=\", \r\n                    date, \"&end_date=\", date)), \"meta.total_count\");\r\n\r\n        //Get game IDs for all games on a given date\r\n        for(uint8 i = 0; i < numGames; i++){\r\n            //Convert i to a string to use in API call\r\n            bytes memory _gameNum = new bytes(1);\r\n            _gameNum[0] = byte(INT_ASCII_OFFSET + i);\r\n            string memory gameNum = string(_gameNum);\r\n            \r\n            makeApiCall(UINT_JOB, this.storeGameId.selector, \r\n                        string(abi.encodePacked(\r\n                        \"https://www.balldontlie.io/api/v1/games?start_date=\", \r\n                        date, \"&end_date=\", date)), string(abi.encodePacked(\r\n                        \"data.\", gameNum, \".id\")));\r\n            gameIds[i] = tempGameId;\r\n        }\r\n    }\r\n\r\n    /* For getGameIds() and getFutureGamesData functions only */\r\n    function processTimeData(bytes32 _requestId, bytes32 _datetime) public \r\n             recordChainlinkFulfillment(_requestId) {\r\n        //Create arrays to parse date from _datetime\r\n        bytes memory datetime = abi.encodePacked(_datetime);\r\n        bytes memory _date = new bytes(DATE_FROM_API);\r\n\r\n        //Extract date from datetime\r\n        for(uint i = 0; i < DATE_FROM_API; i++){\r\n            _date[i] = datetime[i];\r\n        }\r\n\r\n        //Save date\r\n        date = string(_date);\r\n    }\r\n\r\n    /* For getGameIds() function only */\r\n    function gamesToGet(bytes32 _requestId, uint _totalCount) public \r\n             recordChainlinkFulfillment(_requestId) {\r\n        if(_totalCount > MAX_GAMES){\r\n            numGames = MAX_GAMES;\r\n        }else{\r\n            numGames = _totalCount;\r\n        }\r\n    }\r\n\r\n    /* For getGameIds() function only */\r\n    function storeGameId(bytes32 _requestId, uint _id) public \r\n             recordChainlinkFulfillment(_requestId) {\r\n        if(!isStored[_id]){\r\n            tempGameId = _id;\r\n        }\r\n        isStored[_id] = true;\r\n    }\r\n\r\n    /* Get game data from game IDs stored in gameIds array */\r\n    function getFutureGamesData() public onlyOwner {\r\n        for(uint i = 0; i < gameIds.length; i++){\r\n            //Check for invalid game ID\r\n            if(gameIds[i] == 0){\r\n                break;\r\n            }\r\n\r\n            //Convert game ID to string\r\n            uint _gameId = gameIds[i];\r\n            string memory id = convertUintToString(_gameId);\r\n\r\n            //Get home team\r\n            makeApiCall(BYTES_JOB, this.storeHomeData.selector, \r\n                        string(abi.encodePacked(\r\n                        \"https://www.balldontlie.io/api/v1/games/\", id)), \r\n                        \"home_team.full_name\");\r\n            homeTeam[gameIds[i]] = tempHomeTeam;\r\n\r\n            //Get visitor team\r\n            makeApiCall(BYTES_JOB, this.storeVisitorData.selector, \r\n                        string(abi.encodePacked(\r\n                        \"https://www.balldontlie.io/api/v1/games/\", id)), \r\n                        \"visitor_team.full_name\");\r\n            visitorTeam[gameIds[i]] = tempVisitorTeam;\r\n\r\n            //Get game date\r\n            makeApiCall(BYTES_JOB, this.storeDateData.selector, \r\n                        string(abi.encodePacked(\r\n                        \"https://www.balldontlie.io/api/v1/games/\", id)), \r\n                        \"date\");\r\n            gameDate[gameIds[i]] = tempGameDate;\r\n\r\n            //Get game time\r\n            makeApiCall(BYTES_JOB, this.storeTimeData.selector, \r\n                        string(abi.encodePacked(\r\n                        \"https://www.balldontlie.io/api/v1/games/\", id)), \r\n                        \"status\");\r\n            gameTime[gameIds[i]] = tempGameTime;\r\n        }\r\n    }\r\n\r\n    /* For getFutureGamesData() function only */\r\n    function storeHomeData(bytes32 _requestId, bytes32 _homeTeam) public \r\n             recordChainlinkFulfillment(_requestId) {\r\n        bytes memory _tempHomeTeam = abi.encodePacked(_homeTeam);\r\n        tempHomeTeam = string(_tempHomeTeam);\r\n    }\r\n\r\n    /* For getFutureGamesData() function only */\r\n    function storeVisitorData(bytes32 _requestId, bytes32 _visitorTeam) public \r\n             recordChainlinkFulfillment(_requestId) {\r\n        bytes memory _tempVisitorTeam = abi.encodePacked(_visitorTeam);\r\n        tempVisitorTeam = string(_tempVisitorTeam);\r\n    }\r\n\r\n    /* For getFutureGamesData() function only */\r\n    function storeDateData(bytes32 _requestId, bytes32 _date) public \r\n             recordChainlinkFulfillment(_requestId) {\r\n        //Create arrays to parse date from _date\r\n        bytes memory tempDate = abi.encodePacked(_date);\r\n        bytes memory transfer = new bytes(DATE_FROM_API);\r\n\r\n        //Extract date\r\n        for(uint i = 0; i < DATE_FROM_API; i++){\r\n            transfer[i] = tempDate[i];\r\n        }\r\n\r\n        //Save date\r\n        tempGameDate = string(transfer);\r\n    }\r\n\r\n    /* For getFutureGamesData() function only */\r\n    function storeTimeData(bytes32 _requestId, bytes32 _time) public \r\n             recordChainlinkFulfillment(_requestId) {\r\n        bytes memory _tempGameTime = abi.encodePacked(_time);\r\n        tempGameTime = string(_tempGameTime);\r\n    }\r\n\r\n    /* Allow users to deposit NbaTokens */\r\n    function deposit(uint _amount) public {\r\n        require(_amount <= MAX_DEPOSIT, \"Cannot deposit more than 999999\");\r\n        require(_amount > 0, \"Cannot deposit 0\");\r\n\r\n        nbaToken.transferFrom(msg.sender, address(this), _amount);\r\n        nbaTokenBalance[msg.sender] = nbaTokenBalance[msg.sender] + _amount;\r\n    }\r\n\r\n    /* Allow users to withdraw NbaTokens */ \r\n    function withdraw(uint _amount) public {\r\n        require(_amount <= nbaTokenBalance[msg.sender], \r\n                \"Cannot withdraw more than account balance\");\r\n        require(_amount > 0, \"Cannot withdraw 0\");\r\n\r\n        nbaToken.transfer(msg.sender, _amount);\r\n        nbaTokenBalance[msg.sender] = nbaTokenBalance[msg.sender] - _amount;\r\n    }\r\n\r\n    /* Allow users to place bets */\r\n    function placeBet(uint8 _game, uint8 _team, uint _amount) public {\r\n        require(_game >= 0 && _game < MAX_GAMES, \"Choose a valid game\");\r\n        require(_team == HOME_TEAM || _team == VISITOR_TEAM, \r\n                \"Choose a valid team\");\r\n        require(_amount > 0, \"Must bet an amount greater than 0\");\r\n        require(_amount <= nbaTokenBalance[msg.sender], \r\n                \"Cannot be more than NbaToken balance\");\r\n\r\n        //Transfer tokens from user\r\n        nbaTokenBalance[msg.sender] = nbaTokenBalance[msg.sender] - _amount;\r\n\r\n        //Update relevant attributes of user\r\n        (gamesBetted[msg.sender])[_game] = 1;\r\n        (teamsBetted[msg.sender])[_game] = _team;\r\n        (betAmounts[msg.sender])[_game] = _amount;\r\n\r\n        //Add user to betters array\r\n        if(!hasBetted[msg.sender]){\r\n            betters.push(msg.sender);\r\n        }\r\n        hasBetted[msg.sender] = true;\r\n    }\r\n\r\n    /* Allow owner to reward betters if they won */\r\n    function rewardBets() public onlyOwner {\r\n        //Search through array of games to see which games are finished\r\n        for(uint i = 0; i < numGames; i++){\r\n            //Get game status\r\n            makeApiCall(BYTES_JOB, this.checkGameStatus.selector, \r\n                        string(abi.encodePacked(\r\n                        \"https://www.balldontlie.io/api/v1/games/\", \r\n                        gameIds[i])), \"status\");\r\n            \r\n            //Check if game is not finished\r\n            if(keccak256(abi.encodePacked(tempStatus)) \r\n               != keccak256(abi.encodePacked(\"Final\"))){\r\n                continue;\r\n            }\r\n\r\n            //Get home team score\r\n            makeApiCall(UINT_JOB, this.homeScore.selector, \r\n                        string(abi.encodePacked(\r\n                        \"https://www.balldontlie.io/api/v1/games/\", \r\n                        gameIds[i])), \"home_team_score\");\r\n\r\n            //Get visitor team score\r\n            makeApiCall(UINT_JOB, this.visitorScore.selector, \r\n                        string(abi.encodePacked(\r\n                        \"https://www.balldontlie.io/api/v1/games/\", \r\n                        gameIds[i])), \"visitor_team_score\");\r\n\r\n            //Determine winning team\r\n            uint winningTeam = 0;\r\n            if(tempHomeScore > tempVisitorScore){\r\n                winningTeam = HOME_TEAM;\r\n            }else{\r\n                winningTeam = VISITOR_TEAM;\r\n            }\r\n\r\n            //Check who betted on this game\r\n            for(uint j = 0; j < betters.length; j++){\r\n                if((gamesBetted[betters[j]])[i] == 0){\r\n                    continue;\r\n                }\r\n\r\n                //Reward winning betters\r\n                if((teamsBetted[betters[j]])[i] == winningTeam){\r\n                    nbaTokenBalance[betters[j]] = nbaTokenBalance[betters[j]] \r\n                                                  + (DOUBLE * \r\n                                                  (betAmounts[betters[j]])[i]);\r\n                }\r\n\r\n                //Remove relevant bet data\r\n                (gamesBetted[betters[j]])[i] = 0;\r\n                (teamsBetted[betters[j]])[i] = 0;\r\n                (betAmounts[betters[j]])[i] = 0;\r\n            }\r\n        }\r\n    }\r\n\r\n    /* For rewardBets() function only */\r\n    function checkGameStatus(bytes32 _requestId, bytes32 _status) public \r\n             recordChainlinkFulfillment(_requestId) {\r\n        bytes memory status = abi.encodePacked(_status);\r\n        tempStatus = string(status);\r\n    }\r\n\r\n    /* For rewardBets() function only */\r\n    function homeScore(bytes32 _requestId, uint _homeScore) public \r\n             recordChainlinkFulfillment(_requestId) {\r\n        tempHomeScore = _homeScore;\r\n    }\r\n\r\n    /* For rewardBets() function only */\r\n    function visitorScore(bytes32 _requestId, uint _visitorScore) public \r\n             recordChainlinkFulfillment(_requestId) {\r\n        tempVisitorScore = _visitorScore;\r\n    }\r\n\r\n    /* Converts a uint to a string */\r\n    function convertUintToString(uint _convert) public pure \r\n        returns (string memory){\r\n        bytes memory convert = new bytes(MAX_DIGITS);\r\n        uint8 leastSignificantDigit = 0;\r\n        uint8 index = 0;\r\n\r\n        //Store digits in reverse\r\n        while(_convert != 0){\r\n            leastSignificantDigit = uint8(_convert % DECIMAL_BASE);\r\n            _convert = _convert / DECIMAL_BASE;\r\n            convert[index] = byte(INT_ASCII_OFFSET + leastSignificantDigit);\r\n            index++;\r\n        }\r\n\r\n        //Reverse digits again to obtain correct string\r\n        byte temp = \"\";\r\n        for(uint8 j = 0; j < index / HALF; j++){\r\n            temp = convert[j];\r\n            convert[j] = convert[index - j - 1];\r\n            convert[index - j - 1] = temp;\r\n        }\r\n\r\n        return string(convert);\r\n    }\r\n\r\n    /* Makes a Chainlink API request */\r\n    function makeApiCall(bytes32 _job, bytes4 _selector, string memory _api, \r\n        string memory _path) public onlyOwner {\r\n        Chainlink.Request memory req = \r\n            buildChainlinkRequest(_job, address(this), _selector);\r\n        req.add(\"get\", _api);\r\n        req.add(\"path\", _path);\r\n        sendChainlinkRequestTo(ORACLE_ADDRESS, req, LINK_PAYMENT);\r\n    }\r\n    \r\n    /* Get home team by game ID */\r\n    function getGameHome(uint _gameId) public view returns (string memory) {\r\n        return homeTeam[_gameId];\r\n    }\r\n\r\n    /* Get visitor team by game ID */\r\n    function getGameVisitor(uint _gameId) public view returns (string memory) {\r\n        return visitorTeam[_gameId];\r\n    }\r\n\r\n    /* Get date by game ID */\r\n    function getGameDate(uint _gameId) public view returns (string memory) {\r\n        return gameDate[_gameId];\r\n    }\r\n\r\n    /* Get time by game ID */\r\n    function getGameTime(uint _gameId) public view returns (string memory) {\r\n        return gameTime[_gameId];\r\n    }\r\n\r\n    /* Restrict access to owner of contract */\r\n    modifier onlyOwner() {\r\n        require(msg.sender == owner);\r\n        _;\r\n    }\r\n}",
  "sourcePath": "C:/Users/Minh Dinh/Desktop/Projects/chainlink-hackathon-project/src/contracts/NbaBetting.sol",
  "compiler": {
    "name": "solc",
    "version": "0.6.6+commit.6c089d02.Emscripten.clang"
  },
  "schemaVersion": "3.2.5",
  "updatedAt": "2020-09-25T04:59:21.360Z",
  "devdoc": {
    "methods": {}
  },
  "userdoc": {
    "methods": {}
  }
}