{
  "contractName": "NbaBetting",
  "abi": [
    {
      "inputs": [
        {
          "internalType": "address",
          "name": "_nbaTokenAddress",
          "type": "address"
        }
      ],
      "stateMutability": "nonpayable",
      "type": "constructor"
    },
    {
      "anonymous": false,
      "inputs": [
        {
          "indexed": true,
          "internalType": "bytes32",
          "name": "id",
          "type": "bytes32"
        }
      ],
      "name": "ChainlinkCancelled",
      "type": "event"
    },
    {
      "anonymous": false,
      "inputs": [
        {
          "indexed": true,
          "internalType": "bytes32",
          "name": "id",
          "type": "bytes32"
        }
      ],
      "name": "ChainlinkFulfilled",
      "type": "event"
    },
    {
      "anonymous": false,
      "inputs": [
        {
          "indexed": true,
          "internalType": "bytes32",
          "name": "id",
          "type": "bytes32"
        }
      ],
      "name": "ChainlinkRequested",
      "type": "event"
    },
    {
      "anonymous": false,
      "inputs": [
        {
          "indexed": true,
          "internalType": "address",
          "name": "previousOwner",
          "type": "address"
        },
        {
          "indexed": true,
          "internalType": "address",
          "name": "newOwner",
          "type": "address"
        }
      ],
      "name": "OwnershipTransferred",
      "type": "event"
    },
    {
      "inputs": [],
      "name": "addGameId",
      "outputs": [
        {
          "internalType": "bool",
          "name": "",
          "type": "bool"
        }
      ],
      "stateMutability": "view",
      "type": "function",
      "constant": true
    },
    {
      "inputs": [
        {
          "internalType": "address",
          "name": "",
          "type": "address"
        },
        {
          "internalType": "uint256",
          "name": "",
          "type": "uint256"
        }
      ],
      "name": "betAmounts",
      "outputs": [
        {
          "internalType": "uint256",
          "name": "",
          "type": "uint256"
        }
      ],
      "stateMutability": "view",
      "type": "function",
      "constant": true
    },
    {
      "inputs": [
        {
          "internalType": "uint256",
          "name": "",
          "type": "uint256"
        }
      ],
      "name": "betters",
      "outputs": [
        {
          "internalType": "address",
          "name": "",
          "type": "address"
        }
      ],
      "stateMutability": "view",
      "type": "function",
      "constant": true
    },
    {
      "inputs": [],
      "name": "date",
      "outputs": [
        {
          "internalType": "string",
          "name": "",
          "type": "string"
        }
      ],
      "stateMutability": "view",
      "type": "function",
      "constant": true
    },
    {
      "inputs": [
        {
          "internalType": "uint256",
          "name": "",
          "type": "uint256"
        }
      ],
      "name": "gameDate",
      "outputs": [
        {
          "internalType": "string",
          "name": "",
          "type": "string"
        }
      ],
      "stateMutability": "view",
      "type": "function",
      "constant": true
    },
    {
      "inputs": [
        {
          "internalType": "uint256",
          "name": "",
          "type": "uint256"
        }
      ],
      "name": "gameIds",
      "outputs": [
        {
          "internalType": "uint256",
          "name": "",
          "type": "uint256"
        }
      ],
      "stateMutability": "view",
      "type": "function",
      "constant": true
    },
    {
      "inputs": [
        {
          "internalType": "uint256",
          "name": "",
          "type": "uint256"
        }
      ],
      "name": "gameStatus",
      "outputs": [
        {
          "internalType": "string",
          "name": "",
          "type": "string"
        }
      ],
      "stateMutability": "view",
      "type": "function",
      "constant": true
    },
    {
      "inputs": [
        {
          "internalType": "address",
          "name": "",
          "type": "address"
        },
        {
          "internalType": "uint256",
          "name": "",
          "type": "uint256"
        }
      ],
      "name": "gamesBetted",
      "outputs": [
        {
          "internalType": "uint8",
          "name": "",
          "type": "uint8"
        }
      ],
      "stateMutability": "view",
      "type": "function",
      "constant": true
    },
    {
      "inputs": [
        {
          "internalType": "address",
          "name": "",
          "type": "address"
        }
      ],
      "name": "hasBetted",
      "outputs": [
        {
          "internalType": "bool",
          "name": "",
          "type": "bool"
        }
      ],
      "stateMutability": "view",
      "type": "function",
      "constant": true
    },
    {
      "inputs": [
        {
          "internalType": "uint256",
          "name": "",
          "type": "uint256"
        }
      ],
      "name": "homeTeam",
      "outputs": [
        {
          "internalType": "string",
          "name": "",
          "type": "string"
        }
      ],
      "stateMutability": "view",
      "type": "function",
      "constant": true
    },
    {
      "inputs": [
        {
          "internalType": "uint256",
          "name": "",
          "type": "uint256"
        }
      ],
      "name": "isStored",
      "outputs": [
        {
          "internalType": "bool",
          "name": "",
          "type": "bool"
        }
      ],
      "stateMutability": "view",
      "type": "function",
      "constant": true
    },
    {
      "inputs": [],
      "name": "name",
      "outputs": [
        {
          "internalType": "string",
          "name": "",
          "type": "string"
        }
      ],
      "stateMutability": "view",
      "type": "function",
      "constant": true
    },
    {
      "inputs": [],
      "name": "nbaToken",
      "outputs": [
        {
          "internalType": "contract IERC20",
          "name": "",
          "type": "address"
        }
      ],
      "stateMutability": "view",
      "type": "function",
      "constant": true
    },
    {
      "inputs": [
        {
          "internalType": "address",
          "name": "",
          "type": "address"
        }
      ],
      "name": "nbaTokenBalance",
      "outputs": [
        {
          "internalType": "uint256",
          "name": "",
          "type": "uint256"
        }
      ],
      "stateMutability": "view",
      "type": "function",
      "constant": true
    },
    {
      "inputs": [],
      "name": "numGames",
      "outputs": [
        {
          "internalType": "uint256",
          "name": "",
          "type": "uint256"
        }
      ],
      "stateMutability": "view",
      "type": "function",
      "constant": true
    },
    {
      "inputs": [],
      "name": "owner",
      "outputs": [
        {
          "internalType": "address",
          "name": "",
          "type": "address"
        }
      ],
      "stateMutability": "view",
      "type": "function",
      "constant": true
    },
    {
      "inputs": [],
      "name": "renounceOwnership",
      "outputs": [],
      "stateMutability": "nonpayable",
      "type": "function"
    },
    {
      "inputs": [
        {
          "internalType": "address",
          "name": "",
          "type": "address"
        },
        {
          "internalType": "uint256",
          "name": "",
          "type": "uint256"
        }
      ],
      "name": "teamsBetted",
      "outputs": [
        {
          "internalType": "uint8",
          "name": "",
          "type": "uint8"
        }
      ],
      "stateMutability": "view",
      "type": "function",
      "constant": true
    },
    {
      "inputs": [],
      "name": "tempGameDate",
      "outputs": [
        {
          "internalType": "string",
          "name": "",
          "type": "string"
        }
      ],
      "stateMutability": "view",
      "type": "function",
      "constant": true
    },
    {
      "inputs": [],
      "name": "tempGameId",
      "outputs": [
        {
          "internalType": "uint256",
          "name": "",
          "type": "uint256"
        }
      ],
      "stateMutability": "view",
      "type": "function",
      "constant": true
    },
    {
      "inputs": [],
      "name": "tempGameStatus",
      "outputs": [
        {
          "internalType": "string",
          "name": "",
          "type": "string"
        }
      ],
      "stateMutability": "view",
      "type": "function",
      "constant": true
    },
    {
      "inputs": [],
      "name": "tempHomeScore",
      "outputs": [
        {
          "internalType": "uint256",
          "name": "",
          "type": "uint256"
        }
      ],
      "stateMutability": "view",
      "type": "function",
      "constant": true
    },
    {
      "inputs": [],
      "name": "tempHomeTeam",
      "outputs": [
        {
          "internalType": "string",
          "name": "",
          "type": "string"
        }
      ],
      "stateMutability": "view",
      "type": "function",
      "constant": true
    },
    {
      "inputs": [],
      "name": "tempStatus",
      "outputs": [
        {
          "internalType": "string",
          "name": "",
          "type": "string"
        }
      ],
      "stateMutability": "view",
      "type": "function",
      "constant": true
    },
    {
      "inputs": [],
      "name": "tempVisitorScore",
      "outputs": [
        {
          "internalType": "uint256",
          "name": "",
          "type": "uint256"
        }
      ],
      "stateMutability": "view",
      "type": "function",
      "constant": true
    },
    {
      "inputs": [],
      "name": "tempVisitorTeam",
      "outputs": [
        {
          "internalType": "string",
          "name": "",
          "type": "string"
        }
      ],
      "stateMutability": "view",
      "type": "function",
      "constant": true
    },
    {
      "inputs": [
        {
          "internalType": "address",
          "name": "newOwner",
          "type": "address"
        }
      ],
      "name": "transferOwnership",
      "outputs": [],
      "stateMutability": "nonpayable",
      "type": "function"
    },
    {
      "inputs": [
        {
          "internalType": "uint256",
          "name": "",
          "type": "uint256"
        }
      ],
      "name": "visitorTeam",
      "outputs": [
        {
          "internalType": "string",
          "name": "",
          "type": "string"
        }
      ],
      "stateMutability": "view",
      "type": "function",
      "constant": true
    },
    {
      "inputs": [
        {
          "internalType": "uint256",
          "name": "_amount",
          "type": "uint256"
        }
      ],
      "name": "deposit",
      "outputs": [],
      "stateMutability": "nonpayable",
      "type": "function"
    },
    {
      "inputs": [
        {
          "internalType": "uint256",
          "name": "_amount",
          "type": "uint256"
        }
      ],
      "name": "withdraw",
      "outputs": [],
      "stateMutability": "nonpayable",
      "type": "function"
    },
    {
      "inputs": [
        {
          "internalType": "uint8",
          "name": "_game",
          "type": "uint8"
        },
        {
          "internalType": "uint8",
          "name": "_team",
          "type": "uint8"
        },
        {
          "internalType": "uint256",
          "name": "_amount",
          "type": "uint256"
        }
      ],
      "name": "placeBet",
      "outputs": [],
      "stateMutability": "nonpayable",
      "type": "function"
    },
    {
      "inputs": [
        {
          "internalType": "uint8",
          "name": "_finishedGame",
          "type": "uint8"
        },
        {
          "internalType": "uint8",
          "name": "_winningTeam",
          "type": "uint8"
        }
      ],
      "name": "rewardBets",
      "outputs": [],
      "stateMutability": "nonpayable",
      "type": "function"
    },
    {
      "inputs": [
        {
          "internalType": "uint256[]",
          "name": "_ids",
          "type": "uint256[]"
        }
      ],
      "name": "addGames",
      "outputs": [],
      "stateMutability": "nonpayable",
      "type": "function"
    },
    {
      "inputs": [],
      "name": "getGameData",
      "outputs": [],
      "stateMutability": "nonpayable",
      "type": "function"
    },
    {
      "inputs": [
        {
          "internalType": "bytes32",
          "name": "_requestId",
          "type": "bytes32"
        },
        {
          "internalType": "bytes32",
          "name": "_homeTeam",
          "type": "bytes32"
        }
      ],
      "name": "storeHomeData",
      "outputs": [],
      "stateMutability": "nonpayable",
      "type": "function"
    },
    {
      "inputs": [
        {
          "internalType": "bytes32",
          "name": "_requestId",
          "type": "bytes32"
        },
        {
          "internalType": "bytes32",
          "name": "_visitorTeam",
          "type": "bytes32"
        }
      ],
      "name": "storeVisitorData",
      "outputs": [],
      "stateMutability": "nonpayable",
      "type": "function"
    },
    {
      "inputs": [
        {
          "internalType": "bytes32",
          "name": "_requestId",
          "type": "bytes32"
        },
        {
          "internalType": "bytes32",
          "name": "_date",
          "type": "bytes32"
        }
      ],
      "name": "storeDateData",
      "outputs": [],
      "stateMutability": "nonpayable",
      "type": "function"
    },
    {
      "inputs": [
        {
          "internalType": "bytes32",
          "name": "_requestId",
          "type": "bytes32"
        },
        {
          "internalType": "bytes32",
          "name": "_status",
          "type": "bytes32"
        }
      ],
      "name": "storeStatusData",
      "outputs": [],
      "stateMutability": "nonpayable",
      "type": "function"
    }
  ],
  "bytecode": "0x6080604052600160045573aa1dc356dc4b18f30c347798fd5379f3d77abc5b600760006101000a81548173ffffffffffffffffffffffffffffffffffffffff021916908373ffffffffffffffffffffffffffffffffffffffff1602179055506040518060400160405280600b81526020017f4e62612042657474696e6700000000000000000000000000000000000000000081525060089080519060200190620000ab929190620001f1565b50348015620000b957600080fd5b5060405162004af838038062004af883398181016040526020811015620000df57600080fd5b8101908080519060200190929190505050600062000102620001e960201b60201c565b905080600660006101000a81548173ffffffffffffffffffffffffffffffffffffffff021916908373ffffffffffffffffffffffffffffffffffffffff1602179055508073ffffffffffffffffffffffffffffffffffffffff16600073ffffffffffffffffffffffffffffffffffffffff167f8be0079c531659141344cd1fd0a4f28419497f9722a3daafe3b4186f6b6457e060405160405180910390a35080600960006101000a81548173ffffffffffffffffffffffffffffffffffffffff021916908373ffffffffffffffffffffffffffffffffffffffff16021790555050620002a0565b600033905090565b828054600181600116156101000203166002900490600052602060002090601f016020900481019282601f106200023457805160ff191683800117855562000265565b8280016001018555821562000265579182015b828111156200026457825182559160200191906001019062000247565b5b50905062000274919062000278565b5090565b6200029d91905b80821115620002995760008160009055506001016200027f565b5090565b90565b61484880620002b06000396000f3fe608060405234801561001057600080fd5b50600436106102325760003560e01c80636f6f2895116101305780639fda5d62116100b8578063c702738d1161007c578063c702738d14610ddc578063d743dc3c14610e44578063d82c13f014610e62578063ec5afd7414610ea4578063f2fde38b14610f0057610232565b80639fda5d6214610c71578063a69f7a6d14610cdf578063af4e99de14610d86578063b6b55f2514610d90578063c3f010f714610dbe57610232565b8063850c70e8116100ff578063850c70e814610a6d5780638d56031314610b145780638da5cb5b14610b5a57806392b070a614610ba45780639d12286214610bee57610232565b80636f6f2895146108cc578063715018a61461097357806375e8c2181461097d5780637759c93e14610a3557610232565b8063399b5c46116101be57806357add5161161018257806357add51614610712578063677f9f121461079557806367f07aa8146107b35780636deeebc4146107f15780636ea18a0b1461084957610232565b8063399b5c461461053a5780633ef5e8a21461058257806344f6ede1146106055780634d700f911461066d578063559f2e90146106f057610232565b80632f30cc4b116102055780632f30cc4b14610382578063323046b1146103ba57806334239c9c1461043d57806336e9ae13146104e45780633871b5921461050257610232565b806306fdde0314610237578063205a5bd3146102ba5780632785f5751461031c5780632e1a7d4d14610354575b600080fd5b61023f610f44565b6040518080602001828103825283818151815260200191508051906020019080838360005b8381101561027f578082015181840152602081019050610264565b50505050905090810190601f1680156102ac5780820380516001836020036101000a031916815260200191505b509250505060405180910390f35b610306600480360360408110156102d057600080fd5b81019080803573ffffffffffffffffffffffffffffffffffffffff16906020019092919080359060200190929190505050610fe2565b6040518082815260200191505060405180910390f35b6103526004803603604081101561033257600080fd5b810190808035906020019092919080359060200190929190505050611007565b005b6103806004803603602081101561036a57600080fd5b8101908080359060200190929190505050611223565b005b6103b86004803603604081101561039857600080fd5b81019080803590602001909291908035906020019092919050505061149e565b005b6103c26115f4565b6040518080602001828103825283818151815260200191508051906020019080838360005b838110156104025780820151818401526020810190506103e7565b50505050905090810190601f16801561042f5780820380516001836020036101000a031916815260200191505b509250505060405180910390f35b6104696004803603602081101561045357600080fd5b8101908080359060200190929190505050611692565b6040518080602001828103825283818151815260200191508051906020019080838360005b838110156104a957808201518184015260208101905061048e565b50505050905090810190601f1680156104d65780820380516001836020036101000a031916815260200191505b509250505060405180910390f35b6104ec611742565b6040518082815260200191505060405180910390f35b6105386004803603604081101561051857600080fd5b810190808035906020019092919080359060200190929190505050611748565b005b6105806004803603606081101561055057600080fd5b81019080803560ff169060200190929190803560ff1690602001909291908035906020019092919050505061189e565b005b61058a611d6f565b6040518080602001828103825283818151815260200191508051906020019080838360005b838110156105ca5780820151818401526020810190506105af565b50505050905090810190601f1680156105f75780820380516001836020036101000a031916815260200191505b509250505060405180910390f35b6106516004803603604081101561061b57600080fd5b81019080803573ffffffffffffffffffffffffffffffffffffffff16906020019092919080359060200190929190505050611e0d565b604051808260ff1660ff16815260200191505060405180910390f35b610675611e43565b6040518080602001828103825283818151815260200191508051906020019080838360005b838110156106b557808201518184015260208101905061069a565b50505050905090810190601f1680156106e25780820380516001836020036101000a031916815260200191505b509250505060405180910390f35b6106f8611ee1565b604051808215151515815260200191505060405180910390f35b61071a611ef4565b6040518080602001828103825283818151815260200191508051906020019080838360005b8381101561075a57808201518184015260208101905061073f565b50505050905090810190601f1680156107875780820380516001836020036101000a031916815260200191505b509250505060405180910390f35b61079d611f92565b6040518082815260200191505060405180910390f35b6107ef600480360360408110156107c957600080fd5b81019080803560ff169060200190929190803560ff169060200190929190505050611f98565b005b6108336004803603602081101561080757600080fd5b81019080803573ffffffffffffffffffffffffffffffffffffffff16906020019092919050505061252f565b6040518082815260200191505060405180910390f35b610851612547565b6040518080602001828103825283818151815260200191508051906020019080838360005b83811015610891578082015181840152602081019050610876565b50505050905090810190601f1680156108be5780820380516001836020036101000a031916815260200191505b509250505060405180910390f35b6108f8600480360360208110156108e257600080fd5b81019080803590602001909291905050506125e5565b6040518080602001828103825283818151815260200191508051906020019080838360005b8381101561093857808201518184015260208101905061091d565b50505050905090810190601f1680156109655780820380516001836020036101000a031916815260200191505b509250505060405180910390f35b61097b612695565b005b610a336004803603602081101561099357600080fd5b81019080803590602001906401000000008111156109b057600080fd5b8201836020820111156109c257600080fd5b803590602001918460208302840111640100000000831117156109e457600080fd5b919080806020026020016040519081016040528093929190818152602001838360200280828437600081840152601f19601f820116905080830192505050505050509192919290505050612820565b005b610a6b60048036036040811015610a4b57600080fd5b8101908080359060200190929190803590602001909291905050506129e7565b005b610a9960048036036020811015610a8357600080fd5b8101908080359060200190929190505050612b3d565b6040518080602001828103825283818151815260200191508051906020019080838360005b83811015610ad9578082015181840152602081019050610abe565b50505050905090810190601f168015610b065780820380516001836020036101000a031916815260200191505b509250505060405180910390f35b610b4060048036036020811015610b2a57600080fd5b8101908080359060200190929190505050612bed565b604051808215151515815260200191505060405180910390f35b610b62612c0d565b604051808273ffffffffffffffffffffffffffffffffffffffff1673ffffffffffffffffffffffffffffffffffffffff16815260200191505060405180910390f35b610bac612c37565b604051808273ffffffffffffffffffffffffffffffffffffffff1673ffffffffffffffffffffffffffffffffffffffff16815260200191505060405180910390f35b610bf6612c5d565b6040518080602001828103825283818151815260200191508051906020019080838360005b83811015610c36578082015181840152602081019050610c1b565b50505050905090810190601f168015610c635780820380516001836020036101000a031916815260200191505b509250505060405180910390f35b610c9d60048036036020811015610c8757600080fd5b8101908080359060200190929190505050612cfb565b604051808273ffffffffffffffffffffffffffffffffffffffff1673ffffffffffffffffffffffffffffffffffffffff16815260200191505060405180910390f35b610d0b60048036036020811015610cf557600080fd5b8101908080359060200190929190505050612d37565b6040518080602001828103825283818151815260200191508051906020019080838360005b83811015610d4b578082015181840152602081019050610d30565b50505050905090810190601f168015610d785780820380516001836020036101000a031916815260200191505b509250505060405180910390f35b610d8e612de7565b005b610dbc60048036036020811015610da657600080fd5b81019080803590602001909291905050506136d4565b005b610dc6613964565b6040518082815260200191505060405180910390f35b610e2860048036036040811015610df257600080fd5b81019080803573ffffffffffffffffffffffffffffffffffffffff1690602001909291908035906020019092919050505061396a565b604051808260ff1660ff16815260200191505060405180910390f35b610e4c6139a0565b6040518082815260200191505060405180910390f35b610e8e60048036036020811015610e7857600080fd5b81019080803590602001909291905050506139a6565b6040518082815260200191505060405180910390f35b610ee660048036036020811015610eba57600080fd5b81019080803573ffffffffffffffffffffffffffffffffffffffff1690602001909291905050506139be565b604051808215151515815260200191505060405180910390f35b610f4260048036036020811015610f1657600080fd5b81019080803573ffffffffffffffffffffffffffffffffffffffff1690602001909291905050506139de565b005b60088054600181600116156101000203166002900480601f016020809104026020016040519081016040528092919081815260200182805460018160011615610100020316600290048015610fda5780601f10610faf57610100808354040283529160200191610fda565b820191906000526020600020905b815481529060010190602001808311610fbd57829003601f168201915b505050505081565b600f60205281600052604060002081600f8110610ffb57fe5b01600091509150505481565b816005600082815260200190815260200160002060009054906101000a900473ffffffffffffffffffffffffffffffffffffffff1673ffffffffffffffffffffffffffffffffffffffff163373ffffffffffffffffffffffffffffffffffffffff16146110bf576040517f08c379a00000000000000000000000000000000000000000000000000000000081526004018080602001828103825260288152602001806147c76028913960400191505060405180910390fd5b6005600082815260200190815260200160002060006101000a81549073ffffffffffffffffffffffffffffffffffffffff0219169055807f7cc135e0cebb02c3480ae5d74d377283180a2601f8f644edf7987b009316c63a60405160405180910390a26060826040516020018082815260200191505060405160208183030381529060405290506060600a67ffffffffffffffff8111801561116057600080fd5b506040519080825280601f01601f1916602001820160405280156111935781602001600182028036833780820191505090505b50905060008090505b600a811015611204578281815181106111b157fe5b602001015160f81c60f81b8282815181106111c857fe5b60200101907effffffffffffffffffffffffffffffffffffffffffffffffffffffffffffff1916908160001a905350808060010191505061119c565b5080602a908051906020019061121b929190614558565b505050505050565b600b60003373ffffffffffffffffffffffffffffffffffffffff1673ffffffffffffffffffffffffffffffffffffffff168152602001908152602001600020548111156112bb576040517f08c379a000000000000000000000000000000000000000000000000000000000815260040180806020018281038252602981526020018061479e6029913960400191505060405180910390fd5b60008111611331576040517f08c379a00000000000000000000000000000000000000000000000000000000081526004018080602001828103825260118152602001807f43616e6e6f74207769746864726177203000000000000000000000000000000081525060200191505060405180910390fd5b600960009054906101000a900473ffffffffffffffffffffffffffffffffffffffff1673ffffffffffffffffffffffffffffffffffffffff1663a9059cbb33836040518363ffffffff1660e01b8152600401808373ffffffffffffffffffffffffffffffffffffffff1673ffffffffffffffffffffffffffffffffffffffff16815260200182815260200192505050602060405180830381600087803b1580156113da57600080fd5b505af11580156113ee573d6000803e3d6000fd5b505050506040513d602081101561140457600080fd5b81019080805190602001909291905050505080600b60003373ffffffffffffffffffffffffffffffffffffffff1673ffffffffffffffffffffffffffffffffffffffff1681526020019081526020016000205403600b60003373ffffffffffffffffffffffffffffffffffffffff1673ffffffffffffffffffffffffffffffffffffffff1681526020019081526020016000208190555050565b816005600082815260200190815260200160002060009054906101000a900473ffffffffffffffffffffffffffffffffffffffff1673ffffffffffffffffffffffffffffffffffffffff163373ffffffffffffffffffffffffffffffffffffffff1614611556576040517f08c379a00000000000000000000000000000000000000000000000000000000081526004018080602001828103825260288152602001806147c76028913960400191505060405180910390fd5b6005600082815260200190815260200160002060006101000a81549073ffffffffffffffffffffffffffffffffffffffff0219169055807f7cc135e0cebb02c3480ae5d74d377283180a2601f8f644edf7987b009316c63a60405160405180910390a28160405160200180828152602001915050604051602081830303815290604052602890805190602001906115ee929190614558565b50505050565b60108054600181600116156101000203166002900480601f01602080910402602001604051908101604052809291908181526020018280546001816001161561010002031660029004801561168a5780601f1061165f5761010080835404028352916020019161168a565b820191906000526020600020905b81548152906001019060200180831161166d57829003601f168201915b505050505081565b60256020528060005260406000206000915090508054600181600116156101000203166002900480601f01602080910402602001604051908101604052809291908181526020018280546001816001161561010002031660029004801561173a5780601f1061170f5761010080835404028352916020019161173a565b820191906000526020600020905b81548152906001019060200180831161171d57829003601f168201915b505050505081565b602d5481565b816005600082815260200190815260200160002060009054906101000a900473ffffffffffffffffffffffffffffffffffffffff1673ffffffffffffffffffffffffffffffffffffffff163373ffffffffffffffffffffffffffffffffffffffff1614611800576040517f08c379a00000000000000000000000000000000000000000000000000000000081526004018080602001828103825260288152602001806147c76028913960400191505060405180910390fd5b6005600082815260200190815260200160002060006101000a81549073ffffffffffffffffffffffffffffffffffffffff0219169055807f7cc135e0cebb02c3480ae5d74d377283180a2601f8f644edf7987b009316c63a60405160405180910390a2816040516020018082815260200191505060405160208183030381529060405260299080519060200190611898929190614558565b50505050565b60008360ff16101580156118b85750600f60ff168360ff16105b61192a576040517f08c379a00000000000000000000000000000000000000000000000000000000081526004018080602001828103825260138152602001807f43686f6f736520612076616c69642067616d650000000000000000000000000081525060200191505060405180910390fd5b600160ff168260ff1614806119455750600260ff168260ff16145b6119b7576040517f08c379a00000000000000000000000000000000000000000000000000000000081526004018080602001828103825260138152602001807f43686f6f736520612076616c6964207465616d0000000000000000000000000081525060200191505060405180910390fd5b60008111611a10576040517f08c379a000000000000000000000000000000000000000000000000000000000815260040180806020018281038252602181526020018061470c6021913960400191505060405180910390fd5b600b60003373ffffffffffffffffffffffffffffffffffffffff1673ffffffffffffffffffffffffffffffffffffffff16815260200190815260200160002054811115611aa8576040517f08c379a00000000000000000000000000000000000000000000000000000000081526004018080602001828103825260248152602001806147ef6024913960400191505060405180910390fd5b80600b60003373ffffffffffffffffffffffffffffffffffffffff1673ffffffffffffffffffffffffffffffffffffffff1681526020019081526020016000205403600b60003373ffffffffffffffffffffffffffffffffffffffff1673ffffffffffffffffffffffffffffffffffffffff168152602001908152602001600020819055506001600d60003373ffffffffffffffffffffffffffffffffffffffff1673ffffffffffffffffffffffffffffffffffffffff1681526020019081526020016000208460ff16600f8110611b7c57fe5b602091828204019190066101000a81548160ff021916908360ff16021790555081600e60003373ffffffffffffffffffffffffffffffffffffffff1673ffffffffffffffffffffffffffffffffffffffff1681526020019081526020016000208460ff16600f8110611bea57fe5b602091828204019190066101000a81548160ff021916908360ff16021790555080600f60003373ffffffffffffffffffffffffffffffffffffffff1673ffffffffffffffffffffffffffffffffffffffff1681526020019081526020016000208460ff16600f8110611c5857fe5b0181905550600c60003373ffffffffffffffffffffffffffffffffffffffff1673ffffffffffffffffffffffffffffffffffffffff16815260200190815260200160002060009054906101000a900460ff16611d1257600a339080600181540180825580915050600190039060005260206000200160009091909190916101000a81548173ffffffffffffffffffffffffffffffffffffffff021916908373ffffffffffffffffffffffffffffffffffffffff1602179055505b6001600c60003373ffffffffffffffffffffffffffffffffffffffff1673ffffffffffffffffffffffffffffffffffffffff16815260200190815260200160002060006101000a81548160ff021916908315150217905550505050565b60288054600181600116156101000203166002900480601f016020809104026020016040519081016040528092919081815260200182805460018160011615610100020316600290048015611e055780601f10611dda57610100808354040283529160200191611e05565b820191906000526020600020905b815481529060010190602001808311611de857829003601f168201915b505050505081565b600e60205281600052604060002081600f8110611e2657fe5b60209182820401919006915091509054906101000a900460ff1681565b602b8054600181600116156101000203166002900480601f016020809104026020016040519081016040528092919081815260200182805460018160011615610100020316600290048015611ed95780601f10611eae57610100808354040283529160200191611ed9565b820191906000526020600020905b815481529060010190602001808311611ebc57829003601f168201915b505050505081565b602760009054906101000a900460ff1681565b602a8054600181600116156101000203166002900480601f016020809104026020016040519081016040528092919081815260200182805460018160011615610100020316600290048015611f8a5780601f10611f5f57610100808354040283529160200191611f8a565b820191906000526020600020905b815481529060010190602001808311611f6d57829003601f168201915b505050505081565b60265481565b611fa0613bee565b73ffffffffffffffffffffffffffffffffffffffff16600660009054906101000a900473ffffffffffffffffffffffffffffffffffffffff1673ffffffffffffffffffffffffffffffffffffffff1614612062576040517f08c379a00000000000000000000000000000000000000000000000000000000081526004018080602001828103825260208152602001807f4f776e61626c653a2063616c6c6572206973206e6f7420746865206f776e657281525060200191505060405180910390fd5b60008090505b600a8054905081101561252a576000600d6000600a848154811061208857fe5b9060005260206000200160009054906101000a900473ffffffffffffffffffffffffffffffffffffffff1673ffffffffffffffffffffffffffffffffffffffff1673ffffffffffffffffffffffffffffffffffffffff1681526020019081526020016000208460ff16600f81106120fb57fe5b602091828204019190069054906101000a900460ff1660ff16141561211f5761251d565b8160ff16600e6000600a848154811061213457fe5b9060005260206000200160009054906101000a900473ffffffffffffffffffffffffffffffffffffffff1673ffffffffffffffffffffffffffffffffffffffff1673ffffffffffffffffffffffffffffffffffffffff1681526020019081526020016000208460ff16600f81106121a757fe5b602091828204019190069054906101000a900460ff1660ff16141561234557600f6000600a83815481106121d757fe5b9060005260206000200160009054906101000a900473ffffffffffffffffffffffffffffffffffffffff1673ffffffffffffffffffffffffffffffffffffffff1673ffffffffffffffffffffffffffffffffffffffff1681526020019081526020016000208360ff16600f811061224a57fe5b0154600260ff1602600b6000600a848154811061226357fe5b9060005260206000200160009054906101000a900473ffffffffffffffffffffffffffffffffffffffff1673ffffffffffffffffffffffffffffffffffffffff1673ffffffffffffffffffffffffffffffffffffffff1681526020019081526020016000205401600b6000600a84815481106122db57fe5b9060005260206000200160009054906101000a900473ffffffffffffffffffffffffffffffffffffffff1673ffffffffffffffffffffffffffffffffffffffff1673ffffffffffffffffffffffffffffffffffffffff168152602001908152602001600020819055505b6000600d6000600a848154811061235857fe5b9060005260206000200160009054906101000a900473ffffffffffffffffffffffffffffffffffffffff1673ffffffffffffffffffffffffffffffffffffffff1673ffffffffffffffffffffffffffffffffffffffff1681526020019081526020016000208460ff16600f81106123cb57fe5b602091828204019190066101000a81548160ff021916908360ff1602179055506000600e6000600a84815481106123fe57fe5b9060005260206000200160009054906101000a900473ffffffffffffffffffffffffffffffffffffffff1673ffffffffffffffffffffffffffffffffffffffff1673ffffffffffffffffffffffffffffffffffffffff1681526020019081526020016000208460ff16600f811061247157fe5b602091828204019190066101000a81548160ff021916908360ff1602179055506000600f6000600a84815481106124a457fe5b9060005260206000200160009054906101000a900473ffffffffffffffffffffffffffffffffffffffff1673ffffffffffffffffffffffffffffffffffffffff1673ffffffffffffffffffffffffffffffffffffffff1681526020019081526020016000208460ff16600f811061251757fe5b01819055505b8080600101915050612068565b505050565b600b6020528060005260406000206000915090505481565b60298054600181600116156101000203166002900480601f0160208091040260200160405190810160405280929190818152602001828054600181600116156101000203166002900480156125dd5780601f106125b2576101008083540402835291602001916125dd565b820191906000526020600020905b8154815290600101906020018083116125c057829003601f168201915b505050505081565b60226020528060005260406000206000915090508054600181600116156101000203166002900480601f01602080910402602001604051908101604052809291908181526020018280546001816001161561010002031660029004801561268d5780601f106126625761010080835404028352916020019161268d565b820191906000526020600020905b81548152906001019060200180831161267057829003601f168201915b505050505081565b61269d613bee565b73ffffffffffffffffffffffffffffffffffffffff16600660009054906101000a900473ffffffffffffffffffffffffffffffffffffffff1673ffffffffffffffffffffffffffffffffffffffff161461275f576040517f08c379a00000000000000000000000000000000000000000000000000000000081526004018080602001828103825260208152602001807f4f776e61626c653a2063616c6c6572206973206e6f7420746865206f776e657281525060200191505060405180910390fd5b600073ffffffffffffffffffffffffffffffffffffffff16600660009054906101000a900473ffffffffffffffffffffffffffffffffffffffff1673ffffffffffffffffffffffffffffffffffffffff167f8be0079c531659141344cd1fd0a4f28419497f9722a3daafe3b4186f6b6457e060405160405180910390a36000600660006101000a81548173ffffffffffffffffffffffffffffffffffffffff021916908373ffffffffffffffffffffffffffffffffffffffff160217905550565b612828613bee565b73ffffffffffffffffffffffffffffffffffffffff16600660009054906101000a900473ffffffffffffffffffffffffffffffffffffffff1673ffffffffffffffffffffffffffffffffffffffff16146128ea576040517f08c379a00000000000000000000000000000000000000000000000000000000081526004018080602001828103825260208152602001807f4f776e61626c653a2063616c6c6572206973206e6f7420746865206f776e657281525060200191505060405180910390fd5b600f60ff1681511115612965576040517f08c379a000000000000000000000000000000000000000000000000000000000815260040180806020018281038252601f8152602001807f43616e6e6f7420696e707574206d6f7265207468616e2031352067616d65730081525060200191505060405180910390fd5b805160118190555060008090505b600f60ff168110156129a0576000601282600f811061298e57fe5b01819055508080600101915050612973565b5060008090505b81518110156129e3578181815181106129bc57fe5b6020026020010151601282600f81106129d157fe5b018190555080806001019150506129a7565b5050565b816005600082815260200190815260200160002060009054906101000a900473ffffffffffffffffffffffffffffffffffffffff1673ffffffffffffffffffffffffffffffffffffffff163373ffffffffffffffffffffffffffffffffffffffff1614612a9f576040517f08c379a00000000000000000000000000000000000000000000000000000000081526004018080602001828103825260288152602001806147c76028913960400191505060405180910390fd5b6005600082815260200190815260200160002060006101000a81549073ffffffffffffffffffffffffffffffffffffffff0219169055807f7cc135e0cebb02c3480ae5d74d377283180a2601f8f644edf7987b009316c63a60405160405180910390a28160405160200180828152602001915050604051602081830303815290604052602b9080519060200190612b37929190614558565b50505050565b60236020528060005260406000206000915090508054600181600116156101000203166002900480601f016020809104026020016040519081016040528092919081815260200182805460018160011615610100020316600290048015612be55780601f10612bba57610100808354040283529160200191612be5565b820191906000526020600020905b815481529060010190602001808311612bc857829003601f168201915b505050505081565b60216020528060005260406000206000915054906101000a900460ff1681565b6000600660009054906101000a900473ffffffffffffffffffffffffffffffffffffffff16905090565b600960009054906101000a900473ffffffffffffffffffffffffffffffffffffffff1681565b602c8054600181600116156101000203166002900480601f016020809104026020016040519081016040528092919081815260200182805460018160011615610100020316600290048015612cf35780601f10612cc857610100808354040283529160200191612cf3565b820191906000526020600020905b815481529060010190602001808311612cd657829003601f168201915b505050505081565b600a8181548110612d0857fe5b906000526020600020016000915054906101000a900473ffffffffffffffffffffffffffffffffffffffff1681565b60246020528060005260406000206000915090508054600181600116156101000203166002900480601f016020809104026020016040519081016040528092919081815260200182805460018160011615610100020316600290048015612ddf5780601f10612db457610100808354040283529160200191612ddf565b820191906000526020600020905b815481529060010190602001808311612dc257829003601f168201915b505050505081565b612def613bee565b73ffffffffffffffffffffffffffffffffffffffff16600660009054906101000a900473ffffffffffffffffffffffffffffffffffffffff1673ffffffffffffffffffffffffffffffffffffffff1614612eb1576040517f08c379a00000000000000000000000000000000000000000000000000000000081526004018080602001828103825260208152602001807f4f776e61626c653a2063616c6c6572206973206e6f7420746865206f776e657281525060200191505060405180910390fd5b60008090505b6011548110156136d1576060601282600f8110612ed057fe5b0154604051602001808281526020019150506040516020818303038152906040529050612efb6145d8565b612f2d7f623732383564343835396461346232383963373836316462393731626166306130632f30cc4b60e01b613bf6565b9050612fee6040518060400160405280600381526020017f67657400000000000000000000000000000000000000000000000000000000008152508360405160200180806147766028913960280182805190602001908083835b60208310612faa5780518252602082019150602081019050602083039250612f87565b6001836020036101000a03801982511681845116808217855250505050505090500191505060405160208183030381529060405283613c279092919063ffffffff16565b61306d6040518060400160405280600481526020017f70617468000000000000000000000000000000000000000000000000000000008152506040518060400160405280601381526020017f686f6d655f7465616d2e66756c6c5f6e616d650000000000000000000000000081525083613c279092919063ffffffff16565b6130a2600760009054906101000a900473ffffffffffffffffffffffffffffffffffffffff168267016345785d8a0000613c5a565b50602860226000601286600f81106130b657fe5b0154815260200190815260200160002090805460018160011615610100020316600290046130e5929190614645565b506130ee6145d8565b6131207f623732383564343835396461346232383963373836316462393731626166306130633871b59260e01b613bf6565b90506131e16040518060400160405280600381526020017f67657400000000000000000000000000000000000000000000000000000000008152508460405160200180806147766028913960280182805190602001908083835b6020831061319d578051825260208201915060208101905060208303925061317a565b6001836020036101000a03801982511681845116808217855250505050505090500191505060405160208183030381529060405283613c279092919063ffffffff16565b6132606040518060400160405280600481526020017f70617468000000000000000000000000000000000000000000000000000000008152506040518060400160405280601681526020017f76697369746f725f7465616d2e66756c6c5f6e616d650000000000000000000081525083613c279092919063ffffffff16565b613295600760009054906101000a900473ffffffffffffffffffffffffffffffffffffffff168267016345785d8a0000613c5a565b50602960236000601287600f81106132a957fe5b0154815260200190815260200160002090805460018160011615610100020316600290046132d8929190614645565b506132e16145d8565b6133137f623732383564343835396461346232383963373836316462393731626166306130632785f57560e01b613bf6565b90506133d46040518060400160405280600381526020017f67657400000000000000000000000000000000000000000000000000000000008152508560405160200180806147766028913960280182805190602001908083835b60208310613390578051825260208201915060208101905060208303925061336d565b6001836020036101000a03801982511681845116808217855250505050505090500191505060405160208183030381529060405283613c279092919063ffffffff16565b6134536040518060400160405280600481526020017f70617468000000000000000000000000000000000000000000000000000000008152506040518060400160405280600481526020017f646174650000000000000000000000000000000000000000000000000000000081525083613c279092919063ffffffff16565b613488600760009054906101000a900473ffffffffffffffffffffffffffffffffffffffff168267016345785d8a0000613c5a565b50602a60246000601288600f811061349c57fe5b0154815260200190815260200160002090805460018160011615610100020316600290046134cb929190614645565b506134d46145d8565b6135067f623732383564343835396461346232383963373836316462393731626166306130637759c93e60e01b613bf6565b90506135c76040518060400160405280600381526020017f67657400000000000000000000000000000000000000000000000000000000008152508660405160200180806147766028913960280182805190602001908083835b602083106135835780518252602082019150602081019050602083039250613560565b6001836020036101000a03801982511681845116808217855250505050505090500191505060405160208183030381529060405283613c279092919063ffffffff16565b6136466040518060400160405280600481526020017f70617468000000000000000000000000000000000000000000000000000000008152506040518060400160405280600681526020017f737461747573000000000000000000000000000000000000000000000000000081525083613c279092919063ffffffff16565b61367b600760009054906101000a900473ffffffffffffffffffffffffffffffffffffffff168267016345785d8a0000613c5a565b50602b60256000601289600f811061368f57fe5b0154815260200190815260200160002090805460018160011615610100020316600290046136be929190614645565b5050505050508080600101915050612eb7565b50565b620f423f81111561374d576040517f08c379a000000000000000000000000000000000000000000000000000000000815260040180806020018281038252601f8152602001807f43616e6e6f74206465706f736974206d6f7265207468616e203939393939390081525060200191505060405180910390fd5b600081116137c3576040517f08c379a00000000000000000000000000000000000000000000000000000000081526004018080602001828103825260108152602001807f43616e6e6f74206465706f73697420300000000000000000000000000000000081525060200191505060405180910390fd5b600960009054906101000a900473ffffffffffffffffffffffffffffffffffffffff1673ffffffffffffffffffffffffffffffffffffffff166323b872dd3330846040518463ffffffff1660e01b8152600401808473ffffffffffffffffffffffffffffffffffffffff1673ffffffffffffffffffffffffffffffffffffffff1681526020018373ffffffffffffffffffffffffffffffffffffffff1673ffffffffffffffffffffffffffffffffffffffff1681526020018281526020019350505050602060405180830381600087803b1580156138a057600080fd5b505af11580156138b4573d6000803e3d6000fd5b505050506040513d60208110156138ca57600080fd5b81019080805190602001909291905050505080600b60003373ffffffffffffffffffffffffffffffffffffffff1673ffffffffffffffffffffffffffffffffffffffff1681526020019081526020016000205401600b60003373ffffffffffffffffffffffffffffffffffffffff1673ffffffffffffffffffffffffffffffffffffffff1681526020019081526020016000208190555050565b60115481565b600d60205281600052604060002081600f811061398357fe5b60209182820401919006915091509054906101000a900460ff1681565b602e5481565b601281600f81106139b357fe5b016000915090505481565b600c6020528060005260406000206000915054906101000a900460ff1681565b6139e6613bee565b73ffffffffffffffffffffffffffffffffffffffff16600660009054906101000a900473ffffffffffffffffffffffffffffffffffffffff1673ffffffffffffffffffffffffffffffffffffffff1614613aa8576040517f08c379a00000000000000000000000000000000000000000000000000000000081526004018080602001828103825260208152602001807f4f776e61626c653a2063616c6c6572206973206e6f7420746865206f776e657281525060200191505060405180910390fd5b600073ffffffffffffffffffffffffffffffffffffffff168173ffffffffffffffffffffffffffffffffffffffff161415613b2e576040517f08c379a000000000000000000000000000000000000000000000000000000000815260040180806020018281038252602681526020018061472d6026913960400191505060405180910390fd5b8073ffffffffffffffffffffffffffffffffffffffff16600660009054906101000a900473ffffffffffffffffffffffffffffffffffffffff1673ffffffffffffffffffffffffffffffffffffffff167f8be0079c531659141344cd1fd0a4f28419497f9722a3daafe3b4186f6b6457e060405160405180910390a380600660006101000a81548173ffffffffffffffffffffffffffffffffffffffff021916908373ffffffffffffffffffffffffffffffffffffffff16021790555050565b600033905090565b613bfe6145d8565b613c066145d8565b613c1d85858584613f12909392919063ffffffff16565b9150509392505050565b613c3e828460800151613fc290919063ffffffff16565b613c55818460800151613fc290919063ffffffff16565b505050565b600030600454604051602001808373ffffffffffffffffffffffffffffffffffffffff1673ffffffffffffffffffffffffffffffffffffffff1660601b815260140182815260200192505050604051602081830303815290604052805190602001209050600454836060018181525050836005600083815260200190815260200160002060006101000a81548173ffffffffffffffffffffffffffffffffffffffff021916908373ffffffffffffffffffffffffffffffffffffffff160217905550807fb5e6e01e79f91267dc17b4e6314d5d4d03593d2ceee0fbb452b750bd70ea5af960405160405180910390a2600260009054906101000a900473ffffffffffffffffffffffffffffffffffffffff1673ffffffffffffffffffffffffffffffffffffffff16634000aea08584613d9287613fe7565b6040518463ffffffff1660e01b8152600401808473ffffffffffffffffffffffffffffffffffffffff1673ffffffffffffffffffffffffffffffffffffffff16815260200183815260200180602001828103825283818151815260200191508051906020019080838360005b83811015613e19578082015181840152602081019050613dfe565b50505050905090810190601f168015613e465780820380516001836020036101000a031916815260200191505b50945050505050602060405180830381600087803b158015613e6757600080fd5b505af1158015613e7b573d6000803e3d6000fd5b505050506040513d6020811015613e9157600080fd5b8101908080519060200190929190505050613ef7576040517f08c379a00000000000000000000000000000000000000000000000000000000081526004018080602001828103825260238152602001806147536023913960400191505060405180910390fd5b60016004600082825401925050819055508090509392505050565b613f1a6145d8565b613f2a85608001516101006141b3565b508385600001818152505082856020019073ffffffffffffffffffffffffffffffffffffffff16908173ffffffffffffffffffffffffffffffffffffffff16815250508185604001907bffffffffffffffffffffffffffffffffffffffffffffffffffffffff191690817bffffffffffffffffffffffffffffffffffffffffffffffffffffffff191681525050849050949350505050565b613fcf8260038351614207565b613fe2818361434c90919063ffffffff16565b505050565b6060634042994660e01b60008084600001518560200151866040015187606001516001896080015160000151604051602401808973ffffffffffffffffffffffffffffffffffffffff1673ffffffffffffffffffffffffffffffffffffffff1681526020018881526020018781526020018673ffffffffffffffffffffffffffffffffffffffff1673ffffffffffffffffffffffffffffffffffffffff168152602001857bffffffffffffffffffffffffffffffffffffffffffffffffffffffff19167bffffffffffffffffffffffffffffffffffffffffffffffffffffffff1916815260200184815260200183815260200180602001828103825283818151815260200191508051906020019080838360005b838110156141165780820151818401526020810190506140fb565b50505050905090810190601f1680156141435780820380516001836020036101000a031916815260200191505b509950505050505050505050604051602081830303815290604052907bffffffffffffffffffffffffffffffffffffffffffffffffffffffff19166020820180517bffffffffffffffffffffffffffffffffffffffffffffffffffffffff83818316178352505050509050919050565b6141bb6146cc565b6000602083816141c757fe5b06146141e057602082816141d757fe5b06602003820191505b81836020018181525050604051808452600081528281016020016040525082905092915050565b601781116142345761422e8160058460ff16901b60ff16178461436e90919063ffffffff16565b50614347565b60ff811161427657614259601860058460ff16901b178461436e90919063ffffffff16565b506142708160018561438e9092919063ffffffff16565b50614346565b61ffff81116142b95761429c601960058460ff16901b178461436e90919063ffffffff16565b506142b38160028561438e9092919063ffffffff16565b50614345565b63ffffffff81116142fe576142e1601a60058460ff16901b178461436e90919063ffffffff16565b506142f88160048561438e9092919063ffffffff16565b50614344565b67ffffffffffffffff81116143435761432a601b60058460ff16901b178461436e90919063ffffffff16565b506143418160088561438e9092919063ffffffff16565b505b5b5b5b5b505050565b6143546146cc565b614366838460000151518485516143b0565b905092915050565b6143766146cc565b6143868384600001515184614469565b905092915050565b6143966146cc565b6143a78485600001515185856144b7565b90509392505050565b6143b86146cc565b82518211156143c657600080fd5b846020015182850111156143f1576143f08560026143ea8860200151888701614518565b02614534565b5b6000808651805187602083010193508088870111156144105787860182525b60208701925050505b6020841061443c5780518252602082019150602081019050602084039350614419565b60006001856020036101000a03905080198251168184511681811785525050879350505050949350505050565b6144716146cc565b8360200151831061448e5761448d846002866020015102614534565b5b83518051602085830101848153818614156144aa576001820183525b5050508390509392505050565b6144bf6146cc565b846020015184830111156144dd576144dc85600286850102614534565b5b60006001836101000a039050855183868201018583198251161781528151858801111561450a5784870182525b505085915050949350505050565b60008183111561452a5782905061452e565b8190505b92915050565b60608260000151905061454783836141b3565b50614552838261434c565b50505050565b828054600181600116156101000203166002900490600052602060002090601f016020900481019282601f1061459957805160ff19168380011785556145c7565b828001600101855582156145c7579182015b828111156145c65782518255916020019190600101906145ab565b5b5090506145d491906146e6565b5090565b6040518060a0016040528060008019168152602001600073ffffffffffffffffffffffffffffffffffffffff16815260200160007bffffffffffffffffffffffffffffffffffffffffffffffffffffffff191681526020016000815260200161463f6146cc565b81525090565b828054600181600116156101000203166002900490600052602060002090601f016020900481019282601f1061467e57805485556146bb565b828001600101855582156146bb57600052602060002091601f016020900482015b828111156146ba57825482559160010191906001019061469f565b5b5090506146c891906146e6565b5090565b604051806040016040528060608152602001600081525090565b61470891905b808211156147045760008160009055506001016146ec565b5090565b9056fe4d7573742062657420616e20616d6f756e742067726561746572207468616e20304f776e61626c653a206e6577206f776e657220697320746865207a65726f2061646472657373756e61626c6520746f207472616e73666572416e6443616c6c20746f206f7261636c6568747470733a2f2f7777772e62616c6c646f6e746c69652e696f2f6170692f76312f67616d65732f43616e6e6f74207769746864726177206d6f7265207468616e206163636f756e742062616c616e6365536f75726365206d75737420626520746865206f7261636c65206f6620746865207265717565737443616e6e6f7420626574206d6f7265207468616e2063757272656e742062616c616e6365a2646970667358221220cfd736c4119a8013a43b36722c77f039539cf68cc729e9eaae2e98d4a9e1000064736f6c63430006060033",
  "immutableReferences": {},
  "source": "pragma solidity ^0.6.0;\r\n\r\nimport \"@chainlink/contracts/src/v0.6/interfaces/AggregatorV3Interface.sol\";\r\nimport \"@chainlink/contracts/src/v0.6/ChainlinkClient.sol\";\r\nimport \"@openzeppelin/contracts/token/ERC20/IERC20.sol\";\r\nimport \"@openzeppelin/contracts/access/Ownable.sol\";\r\n\r\ncontract NbaBetting is ChainlinkClient, Ownable {\r\n    uint8 constant private MAX_GAMES = 15;\r\n    uint constant private DATE_FROM_API = 10;\r\n    uint8 constant private INT_ASCII_OFFSET = 48;\r\n    uint8 constant private MAX_DIGITS = 78;\r\n    uint8 constant private DECIMAL_BASE = 10;\r\n    uint8 constant private HALF = 2;\r\n    uint8 constant private HOME_TEAM = 1;\r\n    uint8 constant private VISITOR_TEAM = 2;\r\n    uint8 constant private DOUBLE = 2;\r\n    uint constant private MAX_DEPOSIT = 999999;\r\n\r\n    //Address of Kovan network oracle which contains Get > bytes32 job\r\n    //Alpha Chain - Kovan oracle found on market.link\r\n    address private ORACLE_ADDRESS = \r\n        0xAA1DC356dc4B18f30C347798FD5379F3D77ABC5b;\r\n    //Job ID of Get > bytes32 job\r\n    //Found on market.link\r\n    bytes32 constant private BYTES_JOB = \"b7285d4859da4b289c7861db971baf0a\";\r\n    //Job ID of Get > uint256 job\r\n    //Found on market.link\r\n    bytes32 constant private UINT_JOB = \"c7dd72ca14b44f0c9b6cfcd4b7ec0a2c\";\r\n    //LINK payment for Get > bytes32 and Get > uint256 jobs (0.1 LINK)\r\n    //1 LINK  = 1 * (10^18)\r\n    uint constant private LINK_PAYMENT = 100000000000000000;\r\n\r\n    string public name = \"Nba Betting\";\r\n    IERC20 public nbaToken;\r\n\r\n    //Array that contains betters and their attributes\r\n    address[] public betters;\r\n    mapping(address => uint) public nbaTokenBalance;\r\n    mapping(address => bool) public hasBetted;\r\n    mapping(address => uint8[MAX_GAMES]) public gamesBetted;\r\n    mapping(address => uint8[MAX_GAMES]) public teamsBetted;\r\n    mapping(address => uint[MAX_GAMES]) public betAmounts;\r\n\r\n    //Array that contains upcoming games and their attributes\r\n    string public date;\r\n    uint public numGames;\r\n    uint[MAX_GAMES] public gameIds;\r\n    mapping(uint => bool) public isStored;\r\n    mapping(uint => string) public homeTeam;\r\n    mapping(uint => string) public visitorTeam;\r\n    mapping(uint => string) public gameDate;\r\n    mapping(uint => string) public gameStatus;\r\n    uint public tempGameId;\r\n    bool public addGameId;\r\n    string public tempHomeTeam;\r\n    string public tempVisitorTeam;\r\n    string public tempGameDate;\r\n    string public tempGameStatus;\r\n    string public tempStatus;\r\n    uint public tempHomeScore;\r\n    uint public tempVisitorScore;\r\n\r\n    constructor(address _nbaTokenAddress) public {\r\n        //setPublicChainlinkToken();\r\n        nbaToken = IERC20(_nbaTokenAddress);\r\n    }\r\n\r\n    /* Allow users to deposit NbaTokens */\r\n    function deposit(uint _amount) public {\r\n        require(_amount <= MAX_DEPOSIT, \r\n                \"Cannot deposit more than 999999\");\r\n        require(_amount > 0, \"Cannot deposit 0\");\r\n\r\n        nbaToken.transferFrom(msg.sender, address(this), _amount);\r\n        nbaTokenBalance[msg.sender] = nbaTokenBalance[msg.sender] + _amount;\r\n    }\r\n\r\n    /* Allow users to withdraw NbaTokens */ \r\n    function withdraw(uint _amount) public {\r\n        require(_amount <= nbaTokenBalance[msg.sender], \r\n                \"Cannot withdraw more than account balance\");\r\n        require(_amount > 0, \"Cannot withdraw 0\");\r\n\r\n        nbaToken.transfer(msg.sender, _amount);\r\n        nbaTokenBalance[msg.sender] = nbaTokenBalance[msg.sender] - _amount;\r\n    }\r\n\r\n    /* Allow users to place bets */\r\n    function placeBet(uint8 _game, uint8 _team, uint _amount) public {\r\n        require(_game >= 0 && _game < MAX_GAMES, \"Choose a valid game\");\r\n        require(_team == HOME_TEAM || _team == VISITOR_TEAM, \r\n                \"Choose a valid team\");\r\n        require(_amount > 0, \"Must bet an amount greater than 0\");\r\n        require(_amount <= nbaTokenBalance[msg.sender], \r\n                \"Cannot bet more than current balance\");\r\n\r\n        //Transfer tokens from user\r\n        nbaTokenBalance[msg.sender] = nbaTokenBalance[msg.sender] - _amount;\r\n\r\n        //Update relevant attributes of user\r\n        (gamesBetted[msg.sender])[_game] = 1;\r\n        (teamsBetted[msg.sender])[_game] = _team;\r\n        (betAmounts[msg.sender])[_game] = _amount;\r\n\r\n        //Add user to betters array\r\n        if(!hasBetted[msg.sender]){\r\n            betters.push(msg.sender);\r\n        }\r\n        hasBetted[msg.sender] = true;\r\n    }\r\n\r\n    /* Allow owner to reward betters if they won */\r\n    function rewardBets(uint8 _finishedGame, uint8 _winningTeam) public onlyOwner {\r\n        //Check who betted on this game\r\n        for(uint i = 0; i < betters.length; i++){\r\n            if((gamesBetted[betters[i]])[_finishedGame] == 0){\r\n                continue;\r\n            }\r\n\r\n            //Reward winning betters\r\n            if((teamsBetted[betters[i]])[_finishedGame] == _winningTeam){\r\n                nbaTokenBalance[betters[i]] = nbaTokenBalance[betters[i]] \r\n                    + (DOUBLE * (betAmounts[betters[i]])[_finishedGame]);\r\n            }\r\n\r\n            //Remove relevant bet data\r\n            (gamesBetted[betters[i]])[_finishedGame] = 0;\r\n            (teamsBetted[betters[i]])[_finishedGame] = 0;\r\n            (betAmounts[betters[i]])[_finishedGame] = 0;\r\n        }\r\n    }\r\n\r\n    /* \r\n     * APIs used:\r\n     * NBA API instructions: https://www.balldontlie.io/#get-all-games\r\n     * World Clock API: http://worldtimeapi.org/ \r\n     */\r\n\r\n    /* Allow owner to add a new array of game IDs */\r\n    function addGames(uint[] memory _ids) public onlyOwner {\r\n        require(_ids.length <= MAX_GAMES, \"Cannot input more than 15 games\");\r\n\r\n        numGames = _ids.length;\r\n\r\n        //Clear original array\r\n        for(uint i = 0; i < MAX_GAMES; i++){\r\n            gameIds[i] = 0;\r\n        }\r\n\r\n        //Add new game IDs\r\n        for(uint i = 0; i < _ids.length; i++){\r\n            gameIds[i] = _ids[i];\r\n        }\r\n    }\r\n\r\n    /* Allow owner to get the data of stored games */\r\n    function getGameData() public onlyOwner {\r\n        for(uint i = 0; i < numGames; i++){\r\n            string memory id = string(abi.encodePacked(gameIds[i]));\r\n\r\n            //Get home team\r\n            Chainlink.Request memory reqHome = buildChainlinkRequest(BYTES_JOB,\r\n                address(this), this.storeHomeData.selector);\r\n            reqHome.add(\"get\", string(abi.encodePacked(\r\n                    \"https://www.balldontlie.io/api/v1/games/\", id)));\r\n            reqHome.add(\"path\", \"home_team.full_name\");\r\n            sendChainlinkRequestTo(ORACLE_ADDRESS, reqHome, LINK_PAYMENT);\r\n            homeTeam[gameIds[i]] = tempHomeTeam;\r\n\r\n            //Get visitor team\r\n            Chainlink.Request memory reqVisitor = buildChainlinkRequest(\r\n                BYTES_JOB, address(this), this.storeVisitorData.selector);\r\n            reqVisitor.add(\"get\", string(abi.encodePacked(\r\n                    \"https://www.balldontlie.io/api/v1/games/\", id)));\r\n            reqVisitor.add(\"path\", \"visitor_team.full_name\");\r\n            sendChainlinkRequestTo(ORACLE_ADDRESS, reqVisitor, LINK_PAYMENT);\r\n            visitorTeam[gameIds[i]] = tempVisitorTeam;\r\n\r\n            //Get game date\r\n            Chainlink.Request memory reqDate = buildChainlinkRequest(BYTES_JOB,\r\n                address(this), this.storeDateData.selector);\r\n            reqDate.add(\"get\", string(abi.encodePacked(\r\n                    \"https://www.balldontlie.io/api/v1/games/\", id)));\r\n            reqDate.add(\"path\", \"date\");\r\n            sendChainlinkRequestTo(ORACLE_ADDRESS, reqDate, LINK_PAYMENT);\r\n            gameDate[gameIds[i]] = tempGameDate;\r\n\r\n            //Get game status\r\n            Chainlink.Request memory reqStatus = buildChainlinkRequest(\r\n                BYTES_JOB, address(this), this.storeStatusData.selector);\r\n            reqStatus.add(\"get\", string(abi.encodePacked(\r\n                    \"https://www.balldontlie.io/api/v1/games/\", id)));\r\n            reqStatus.add(\"path\", \"status\");\r\n            sendChainlinkRequestTo(ORACLE_ADDRESS, reqStatus, LINK_PAYMENT);\r\n            gameStatus[gameIds[i]] = tempGameStatus;\r\n        }\r\n    }\r\n\r\n    /* For getGameData() function only */\r\n    function storeHomeData(bytes32 _requestId, bytes32 _homeTeam) public \r\n             recordChainlinkFulfillment(_requestId) {\r\n        tempHomeTeam = string(abi.encodePacked(_homeTeam));\r\n    }\r\n\r\n    /* For getGameData() function only */\r\n    function storeVisitorData(bytes32 _requestId, bytes32 _visitorTeam) public \r\n             recordChainlinkFulfillment(_requestId) {\r\n        tempVisitorTeam = string(abi.encodePacked(_visitorTeam));\r\n    }\r\n\r\n    /* For getGameData() function only */\r\n    function storeDateData(bytes32 _requestId, bytes32 _date) public \r\n             recordChainlinkFulfillment(_requestId) {\r\n        //Create arrays to parse date from _date\r\n        bytes memory datetime = abi.encodePacked(_date);\r\n        bytes memory _datetime = new bytes(DATE_FROM_API);\r\n\r\n        //Extract date from datetime\r\n        for(uint i = 0; i < DATE_FROM_API; i++){\r\n            _datetime[i] = datetime[i];\r\n        }\r\n\r\n        //Save date\r\n        tempGameDate = string(_datetime);\r\n    }\r\n\r\n    /* For getGameData() function only */\r\n    function storeStatusData(bytes32 _requestId, bytes32 _status) public \r\n             recordChainlinkFulfillment(_requestId) {\r\n        tempGameStatus = string(abi.encodePacked(_status));\r\n    }\r\n}",
  "sourcePath": "C:/Users/Minh Dinh/Desktop/Projects/chainlink-project/src/contracts/NbaBetting.sol",
  "compiler": {
    "name": "solc",
    "version": "0.6.6+commit.6c089d02.Emscripten.clang"
  },
  "schemaVersion": "3.2.5",
  "updatedAt": "2020-09-26T00:57:16.332Z",
  "networkType": "ethereum",
  "devdoc": {
    "methods": {
      "owner()": {
        "details": "Returns the address of the current owner."
      },
      "renounceOwnership()": {
        "details": "Leaves the contract without owner. It will not be possible to call `onlyOwner` functions anymore. Can only be called by the current owner.     * NOTE: Renouncing ownership will leave the contract without an owner, thereby removing any functionality that is only available to the owner."
      },
      "transferOwnership(address)": {
        "details": "Transfers ownership of the contract to a new account (`newOwner`). Can only be called by the current owner."
      }
    }
  },
  "userdoc": {
    "methods": {}
  }
}